:020000040800F2
:10000000B00D002065A0000851A0000853A0000812
:1000100081A0000885A0000889A000080000000059
:100020000000000000000000000000008DA000089B
:1000300055A000080000000091A0000857A000088B
:1000400095A0000899A000089DA00008A1A00008A4
:10005000A5A00008A9A00008ADA00008B1A0000854
:10006000B5A00008B9A00008BDA00008C1A0000804
:10007000C5A00008C9A00008CDA00008D1A00008B4
:10008000D5A00008D9A00008DDA00008E1A0000864
:10009000E5A00008E9A00008EDA00008F1A0000814
:1000A000F5A00008F9A00008FDA0000801A10008C3
:1000B00005A1000809A100080DA1000811A1000870
:1000C00015A1000819A100081DA1000821A1000820
:1000D00025A1000829A100082DA1000831A10008D0
:1000E0005BA0000835A1000839A100083DA1000867
:1000F00041A1000845A1000849A100084DA1000840
:1001000051A1000855A1000859A100085DA10008EF
:1001100061A1000865A1000869A100086DA100089F
:1001200071A1000875A1000879A100087DA100084F
:1001300081A1000885A1000889A100088DA10008FF
:1001400091A1000895A1000899A100089DA10008AF
:10015000A1A10008A5A10008A9A10008ADA100085F
:10016000B1A10008B5A10008B9A10008BDA100080F
:10017000C1A10008C5A10008C9A100080000000035
:10018000CDA10008D1A1000838B50FF2500100F050
:1001900027F8012821D00421204601F0C3F970B1CD
:1001A0004021204601F0D0F948B10021204601F05D
:1001B000D8F820B100F062FA01F048F908B901203E
:1001C00032BD0021204600F0B9F9012805D000A970
:1001D000204600F007FA00F067FA32BD0101010085
:1001E0000A68044600A80260A0680568204600F07E
:1001F000C7BC38B50446FFF7F7FF012827D02046D3
:1002000000F0D1FD012822D0204601F001F801289C
:100210001DD0204600F011FE012818D0204600F025
:1002200023FF012813D0204600F08AFF01280ED0BA
:10023000204600F062FE012809D0204600F0A2FE10
:10024000012804D0204600F012F800F03FFA32BD39
:1002500010B504462079012807D000F04CFA00F0D0
:10026000ADFC012802D001202071002010BD10B586
:100270000446207978B1A0680168204600F046F86D
:10028000012808D00021204601F0E0F808B901203B
:1002900010BD0020207110BD00F06EBC00F070BCDD
:1002A0003EB500F081FA00F080FC012805D000A9DD
:1002B000204600F009F800F049FA3EBD1CB50C4696
:1002C00000A900F072FC7BE210B582B00C4600A9D8
:1002D00001F0B7F8B8B19DF8000030B104280DD096
:1002E000082805D00C2806D00BE09FED860A57E0C1
:1002F0009FED850AFBE79FED850AF8E79FED840AED
:10030000F5E700F0FAF8012016BD000010B582B044
:100310000C4600A901F0A6F808B9012016BD9DF809
:100320000000B0B1102817D0202818D0302819D0DC
:1003300040281AD050281BD060281CD070281DD00F
:1003400080281ED090281FD0A02820D0B02821D0EF
:1003500023E09FED700A23E0B2EE0A0AFBE7B3EE5A
:100360000A0AF8E79FED6C0AF5E79FED6C0AF2E7E1
:100370009FED6B0AEFE79FED6B0AECE79FED6A0AD2
:10038000E9E79FED6A0AE6E79FED690AE3E79FED7B
:10039000690AE0E79FED680ADDE700F0AEF8BCE728
:1003A00084ED000A002016BD80B50279012A13D120
:1003B00061B1022908D009D3042901D002D309E090
:1003C000402104E0302102E0202100E0102101F072
:1003D0003DF8A8B9012002BD8068006869B1022912
:1003E00008D00AD3042901D002D3F3E74B4906E031
:1003F000494904E0DFF8581901E0DFF84C1C0160BE
:10040000002002BD80B50179012904D100F0D6FB9E
:1004100001284FD102BD00F0C3FA48BFB2EE0A0A6C
:1004200046D400F037FB48BFB3EE0A0A40D4DFEDF4
:10043000960A00F031FB48BF9FED370A38D4DFED54
:10044000930A00F029FB48BF9FED340A30D4DFED5A
:10045000900A00F021FB48BF9FED310A28D4DFED60
:100460008D0A00F019FB48BF9FED2E0A20D4DFED66
:100470008A0A00F011FB48BF9FED2B0A18D4DFED6C
:10048000870A00F009FB48BF9FED280A10D4DFED72
:10049000840A00F001FB48BF9FED250A08D4DFED78
:1004A000810A00F0F9FA4CBF9FED220A9FED220A63
:1004B00080ED000A002002BD10B582B00C4600A9F4
:1004C00000F0BFFFB8B19DF8000030B104280DD096
:1004D000082805D00C2806D00BE0B0EE000A5FE734
:1004E000B1EE000AFBE7B2EE000AF8E7B3EE000A4D
:1004F000F5E700F002F8012016BDDFF8500B206090
:100500007047000023DB793D23DBF93D23DB793E97
:1005100023DBF93E00000000000050420000D04202
:10052000000050430000D043004050440080CF44BE
:10053000002050450020D0450048504680B519B1F4
:10054000022904D001D304E01CE00821FCE70C21BF
:10055000FAE7012002BD0000DFEDB80A80B500F027
:100560009BFA48BF00210DD4DFEDB50A00F094FAE4
:1005700048BF082106D4DFEDB30A00F08DFA4CBF66
:100580000C21042100F04CFF401E8041C00F02BD31
:1005900038B50D4604460DF1020101F015F850B1D1
:1005A0000DF10101204601F028F820B100A92046F4
:1005B00001F03AF808B9012032BD9DF80200082880
:1005C0000CBF0120002028709DF8010010280CBFEE
:1005D0000120002068709DF8000020280CBF012039
:1005E0000020A0E238B50D460446287801280CBF4B
:1005F00008210021204600F0D2FF40B16878012890
:100600000CBF10210021204600F0E2FF08B90120B4
:1006100032BDA87801280CBF20210021204600F01F
:10062000F1FFA2E238B50FF25001FFF7D9FD012822
:1006300021D00421204600F075FF70B140212046F2
:1006400000F082FF48B10021204600F08AFE20B170
:1006500000F014F800F044FF08B9012032BD022177
:10066000204600F0DAF9012805D000A9204600F064
:100670005DFA00F019F832BD01010100DFF82C0429
:100680002860002120467047010050420100D042FE
:10069000010050430100D043014050440180CF4449
:1006A000012050450120D045012802D00120E070F2
:1006B0000020704738B50446FFF796FD012804D0A6
:1006C000204600F01EF800F001F832BD012802D0EB
:1006D00000202860E070704710B50446207901289A
:1006E00007D000F008F800F0E5FA012802D0012058
:1006F0002071002010BDA068006890ED000A20461F
:10070000704710B50446207978B1A068016820468A
:1007100000F09AF8012808D00021204600F0E0FE01
:1007200008B9012010BD0020207110BD24E227E28D
:100730003EB500F039F800F097FA012805D000A97D
:10074000204600F049F800F001F83EBD01282AD00B
:10075000BDF90400DDED000A00EE100AB8EEC00A93
:1007600020EE200ABDEEC00A85ED000ABDF90600A4
:10077000DDED000A00EE100AB8EEC00A20EE200AF5
:10078000BDEEC00A85ED010ABDF90800DDED000AE5
:1007900000EE100AB8EEC00A20EE200ABDEEC00A34
:1007A00085ED020A002070470446002000900D46A7
:1007B00001A9204670471CB50C4600A900F054FA68
:1007C000012808D0BDF80000208000A84188618081
:1007D0008088A080002016BD38B50C4605460DF176
:1007E000010100F050FE68B19DF80100022804D11B
:1007F000DFF860082060002032BD00A9284600F024
:1008000062FE08B9012032BD9DF8000030B1042815
:1008100007D0082808D00C2809D00BE0DFF83808EA
:10082000E8E7DFF83808E5E7DFF83408E2E7DFF863
:100830003408DFE7FFF761FEE4E700000100004055
:10084000010080400100004110B582B00C4600A9B3
:1008500000F05BFE08B9012016BD9DF8000080B1D4
:10086000102811D0202812D0302813D0402814D0BE
:10087000502815D0602816D0702817D0802818D09E
:100880001AE09FED880A8BE5B2EE0A0AFBE7B3EEA9
:100890000A0AF8E79FED840AF5E79FED840AF2E77C
:1008A0009FED830AEFE79FED830AECE79FED820A55
:1008B000E9E79FED820AE6E7FFF71FFECBE780B589
:1008C0000279012A13D161B1022908D009D3042980
:1008D00001D002D309E0402104E0302102E02021D0
:1008E00000E0102100F0FCFDA8B9012002BD8068E5
:1008F000006869B1022908D00AD3042901D002D3C3
:10090000F3E76A4906E0684904E0DFF8441401E0CF
:10091000DFF834170160002002BD000080B50179C6
:10092000012904D100F0C6F9012837D102BD00F039
:1009300037F848BFB2EE0A0A2ED400F0ABF848BF31
:10094000B3EE0A0A28D4DFED5E0A00F0A5F848BF2E
:100950009FED550A20D4DFED5B0A00F09DF848BFFB
:100960009FED520A18D4DFED580A00F095F848BF01
:100970009FED4F0A10D4DFED550A00F08DF848BF07
:100980009FED4C0A08D4DFED520A00F085F84CBF09
:100990009FED490A9FED490A80ED000A002002BD43
:1009A00080680068DFEDA90AB4EE600AF1EE10FA83
:1009B0007047000038B50D46044600A900F063FDFD
:1009C00028B10DF10101204600F07DFD08B901209C
:1009D00032BD9DF80000022805D19FED9D0A85EDEE
:1009E000000A002032BD9DF8010030B1042807D074
:1009F000082808D00C2809D00BE09FED960AEEE7F6
:100A00009FED950AEBE79FED950AE8E79FED940AC5
:100A1000E5E7DFF838062860D9E780B519B1022983
:100A200006D003D306E000F033FDADE50421FAE77C
:100A30000C21F8E7012002BD38B5DFED8A0A00F08D
:100A40002BF8044605D5022100F011FD00B300206B
:100A500032BDDFEDB20A00F01FF848BF00250DD40B
:100A6000DFEDAF0A00F018F848BF042506D4DFED2B
:100A7000AD0A00F011F84CBF08250C25002100F04C
:100A8000F6FC28B12946204600F002FD0028DED100
:100A9000012032BDDFEDA40AB4EE600AF1EE10FAD7
:100AA0007047000000000000000050420000D042EB
:100AB000000050430000D043004050440080CF4429
:100AC000010050420100D042010050430100D043D8
:100AD0000140504438B50D4604460DF1020100F0C6
:100AE000D6FD50B10DF10101204600F0E6FD20B128
:100AF00000A9204600F0F6FD08B9012032BD9DF89E
:100B0000020008280CBF0120002028709DF8010079
:100B100010280CBF0120002068709DF800002028DC
:100B20000CBF01200020A870002032BD38B50D4652
:100B30000446287801280CBF08210021204600F037
:100B40009AFD40B1687801280CBF10210021204691
:100B500000F0A1FD08B9012032BDA87801280CBF22
:100B600020210021204600F0B1FD00F001F832BD47
:100B7000401E8041C00F704780B500F049FC03E57E
:100B800010B582B0044600208DF8000000A9204670
:100B9000FFF7F2FF012807D09DF800002178884276
:100BA00001D0012016BD002016BD1CB500F07AF85A
:100BB00000F0A0FF08B9012016BD5DE0DFED230ABB
:100BC00080B5FFF769FF48BF10213CD4FFF762FFF3
:100BD00048BF202137D4DFED550AFFF75DFF48BF3E
:100BE000302130D4DFED520AFFF756FF48BF4021D5
:100BF00029D4DFED500AFFF74FFF48BF502122D420
:100C0000DFED4D0AFFF748FF48BF60211BD4DFED41
:100C10004B0AFFF741FF48BF702114D4DFED480AAB
:100C2000FFF73AFF48BF80210DD4DFED460AFFF7FA
:100C300033FF48BF902106D4DFED430AFFF72CFFB6
:100C40004CBFA021B02100F001FC9DE40100504107
:100C50000000FA42000075430000FA4300007A44A5
:100C60000000FA440100FA421CB500F01BF800F045
:100C70002CFF08B9012016BD00A841789DF800207E
:100C8000090251FA82F1218082789DF8031002EB6B
:100C90000121618000799DF8051000EB0120A08002
:100CA000002016BD0C4600A9002200230CC100A99B
:100CB00070470000DFED250A80B5FFF7EDFE48BF65
:100CC000102127D4FFF7E6FE48BF202122D4DFED14
:100CD000170AFFF7E1FE48BF30211BD4DFED140AED
:100CE000FFF7DAFE48BF402114D4DFED120AFFF708
:100CF000D3FE48BF50210DD4DFED0F0AFFF7CCFE25
:100D000048BF602106D4DFED0D0AFFF7C5FE4CBFDA
:100D10007021802100F0E4FB36E4000001007543FF
:100D20000100FA4301007A440100D0410100504221
:100D30000100D042010050430100D0430140504423
:100D40000180CF44012050450120D0450100504191
:100D50000000D04110B500F071F9012822D000F058
:100D60000DF988B10621204600F034FE60B100F094
:100D700001F948B10021204600F0F7FD20B1002123
:100D8000204600F0E5FD08B9012010BD03212046F2
:100D900000F02BF8012805D01021204600F06BFE52
:100DA000FFF7E6FE10BD10B50446002100F063FE1B
:100DB00020B10021204600F00DFE08B9012010BD31
:100DC0000021204600F0F7FDA7E010B582B00C46E8
:100DD00000A900F0A0FC30B19DF8000010B120285F
:100DE00001D1012052E0012016BD80B500F0E3FDE5
:100DF000FFF7CABB10B500F07BF8012818D000F04F
:100E0000BDF868B11721204600F054F801280FD032
:100E100000F00FF820B14021204600F008FD08B98D
:100E2000012010BD8021204600F0CCFAFFF7A0FE83
:100E300010BD0421204600F05ABC10B50446002124
:100E400000F0C0FA40B10021204600F0F0FC18B1DB
:100E50000021FFF7EFFF08B9012010BD0021204657
:100E600000F028F8012818BF002010BD10B582B08E
:100E70000C4600A900F097FC30B19DF8000010B1BD
:100E8000102801D1012001E0012016BD20700020B2
:100E900016BD80B500F04DFEFFF776BB80B5022190
:100EA00000F0D4FBFFF770BB80B5002100F0CEFB53
:100EB000FFF76ABB80B500F04CFEFFF765BB10B5CD
:100EC00000F016F8012812D000F058F838B1FFF7FA
:100ED000B0FF20B12021204600F097FC08B9012086
:100EE00010BD0221204600F0A2FDFFF741FE10BD1B
:100EF0000446B3EE0A0AFFF785BA10B5044600218E
:100F000000F095FD20B10021204600F07EFC08B9DC
:100F1000012010BD0021FFF78DFF401E8041C00F52
:100F200010BD10B582B00C4600A900F045FC30B1F0
:100F30009DF8000010B1202801D10120A6E7012072
:100F400016BD10B500F07AF8012812D000F016F89E
:100F500038B100F00FF820B10221204600F0D5FC96
:100F600008B9012010BD2021204600F096FDFFF7B2
:100F7000FFFD10BD0021204600F009BD00212046E4
:100F800000F04EBA10B50446002100F086FD10B105
:100F9000FFF7F0FF08B9012010BD0021204600F046
:100FA000B4FCBAE710B582B00C4600A900F0ABFB68
:100FB00030B19DF8000010B1082801D1012065E78B
:100FC000012016BD80B500F0A0FCFFF7DDBA10B51A
:100FD00000F034F8012821D0FFF7D0FF40B100F035
:100FE00029F828B100F022F810B100F01BF808B978
:100FF000012010BD00F013F801280FD0022100F0ED
:101000005AF801280AD0012100F052F8012805D031
:101010004021204600F04DFDFFF7AAFD10BD08213C
:101020002046CBE00221204600F0CBBB0421204625
:1010300000F0D3BB0821204600F0DBBB04469FED47
:10104000040AFFF7DFB9000000005041000080BF34
:101050000000D04300008C4000000C4100008C4197
:1010600000000C4200008C4210B50446002100F044
:1010700020FDA0B10021FFF7D3FF012816D000F01A
:1010800019F8012812D000F012F801280ED0002122
:10109000FFF7C9FF18B10021FFF7C9FF08B9012008
:1010A00010BD0021FFF7C7FFFFF762FD10BD002153
:1010B00020468DE00021204685E010B582B00C4628
:1010C00000A900F036FB30B19DF8000010B12028D7
:1010D00001D10120DAE6012016BD10B5FFF7AEFF01
:1010E00001282CD0FFF74AFF08B3FFF7A3FFF0B1A8
:1010F000FFF79CFFD8B1FFF795FFC0B1FFF78FFF57
:1011000001281CD00321FFF7D6FF012817D00321A7
:10111000FFF7CEFF012812D00821204600F05DF82D
:1011200001280CD08021204600F006FC08B90120DF
:1011300010BD0821204600F092FCFFF719FD10BDFC
:1011400010B50446002100F08AFCF8B10021FFF739
:1011500067FF012821D0FFF7ADFF01281DD0FFF761
:10116000A6FF012819D00021204600F036F80128FA
:1011700013D00021204600F0DFFB38B10021FFF73B
:1011800052FF18B10021FFF752FF08B9012010BD2E
:101190000021FFF750FFFFF7EBFC10BD10B582B048
:1011A0000C4600A900F0C0FA30B19DF8000010B163
:1011B000102801D1012069E6012016BD80B500F09C
:1011C00042FBFFF7E1B980B500F064FBFFF7DCB943
:1011D00080B500F06CFBFFF7D7B980B500F081FB5C
:1011E000FFF7D2B910B5FFF729FF01280FD0FFF79D
:1011F000C5FE20B14021204600F031FB08B9012096
:1012000010BD0421204600F01EFCFFF7B1FC10BD0C
:1012100010B50446002100F016FC08B9012010BDED
:101220000021204600F01BFB77E610B582B00C468B
:1012300000A900F0A4FA30B19DF8000010B14028D8
:1012400001D1012022E6012016BD10B582B00C4666
:1012500000A900F073FA30B19DF80000002818BF13
:10126000012800D112E6012016BD10B582B00C464F
:1012700000A900F068FA30B19DF8000010B1022812
:1012800001D1012002E6012016BD10B582B00C4646
:1012900000A900F05DFA30B19DF8000010B10428FB
:1012A00001D10120F2E5012016BD10B582B00C4637
:1012B00000A900F052FA30B19DF8000010B10828E2
:1012C00001D10120E2E5012016BD10B582B00C4627
:1012D00000A900F04AFA30B19DF8000010B11028C2
:1012E00001D10120D2E5012016BD10B582B00C4617
:1012F00000A900F03FFA30B19DF8000010B120289D
:1013000001D10120C2E5012016BD0268531C036013
:101310001170704780B5012305E004B5012300AAD0
:1013200000F086FC01E000F08BFC401E8041C00F05
:1013300002BD38B500F028FA0121FFF7EBFF30B10C
:1013400000F020F9012100F027F900B1012032BDA1
:10135000FFF7E0FF20B1207800F04000207001206E
:1013600010BD38B500F012F830B100F006F80A21CF
:1013700000F012F900B1012032BD9DF8000000F02C
:10138000F80028438DF80000024670470D460446D9
:1013900000AA0A21BEE70D46044600AA0D21B9E7BE
:1013A000FFF7B8FF20B1207800F010002070012076
:1013B00010BDFFF7AFFF20B1207800F020002070B3
:1013C000012010BD38B5FFF7E6FF28B100F0DAF8CC
:1013D00000F0E1F800B1012032BDFFF79BFF20B122
:1013E000207800F001002070012010BDFFF792FF6F
:1013F00020B1207800F002002070012010BDFFF71E
:1014000089FF20B1207800F004002070012010BD79
:1014100080B50A460F21FFF77DFF00B1012002BD14
:1014200038B500F009F830B100F03EF8102100F0B6
:10143000B3F800B1012032BD0D46044600AA1021C8
:1014400068E710B50C462246102140E038B5FFF79A
:10145000F3FF30B100F050F8102100F09DF800B11A
:10146000012032BD10B50C462246102151E038B59E
:1014700000F023F830B100F0F5F8112100F08CF8FD
:1014800000B1012032BD10B50C4622461121ADE756
:1014900038B500F012F830B100F006F8112100F074
:1014A0007BF800B1012032BD9DF8000000F0F30090
:1014B00028438DF80000024670470D46044600AAF6
:1014C0001121FFF727BF10B50C4622461121FFF767
:1014D00021FF20B1207800F00C002070012010BD09
:1014E00038B5FFF7EAFF30B100F006F8112100F03F
:1014F00053F800B1012032BD9DF8000000F00F004C
:1015000028438DF800000246704710B50C4622466D
:101510001121FFF7FFFE20B1207800F0F0002070CD
:10152000012010BD38B500F009F830B100F085F8A1
:10153000122100F031F800B1012032BD0D46044601
:1015400000AA1221FFF7E6BE38B5FFF7F7FF30B16A
:1015500000F00FF8122100F01FF800B1012032BD99
:101560009DF8000000F0DF0028438DF800000246DF
:1015700070479DF8000000F0BF0028438DF8000080
:10158000024670479DF8000000F07F0028438DF868
:101590000000024670470D212046FFF7BEBE38B559
:1015A00000F03CF830B100F006F81821FFF7F4FF26
:1015B00000B1012032BD9DF8000000F0F700284383
:1015C0008DF800000246704710B500F032F8E1E0F7
:1015D00038B500F023F830B100F006F81821FFF715
:1015E000DBFF00B1012032BD9DF8000000F0EF00EC
:1015F00028438DF800000246704710B500F019F836
:10160000FFF7CEBE38B500F009F830B1FFF7A8FFFC
:101610001821FFF7C1FF00B1012032BD0D4604467D
:1016200000AA1821FFF776BE10B500F002F8FFF708
:10163000C0BE0C462246182170479DF8000000F0FD
:10164000FB0028438DF800000246704738B500F0D3
:101650002EF830B100F006F81921FFF79DFF00B118
:10166000012032BD9DF8000000F0FD0028438DF8F8
:1016700000000246704738B500F019F830B1FFF7A6
:101680009AFF1921FFF788FF00B1012032BD10B584
:1016900000F018F87EE038B500F009F830B1FFF737
:1016A000A3FF1921FFF778FF00B1012032BD0D46DD
:1016B000044600AA1921FFF72DBE10B500F002F86C
:1016C000FFF76EBE0C4622461921704738B5FFF76A
:1016D000EEFF30B1FFF744FF1921FFF75DFF00B1C6
:1016E000012032BD10B5FFF7EDFFFFF762BE38B540
:1016F000FFF7DDFF30B1FFF7A0FF1921FFF74CFF27
:1017000000B1012032BD10B500F001F842E00C46F6
:1017100022461B21704710B5FFF7F9FFFFF749BEBE
:101720000C4622461C21704710B5FFF7F9FFFFF762
:1017300037BE10B5FFF7F4FFFFF73BBE10B500F062
:1017400010F8FFF74ABE10B500F00BF8FFF74EBED9
:1017500010B500F006F8FFF752BE10B500F001F822
:1017600018E00C4622461D21704710B5FFF7F9FF1F
:10177000FFF716BE10B5FFF7F4FFFFF71ABE10B55E
:10178000FFF7EFFFFFF7E4BD0D46044600AA7047E0
:1017900000F00EF8FFF7BEFD20B1207800F0080041
:1017A0002070012010BD10B500F002F8FFF7F8BD61
:1017B0000C4622465321704710B5FFF7F9FFFFF79B
:1017C000F8BD38B500F02DF830B1FFF74BFF5821C8
:1017D000FFF7E2FE00B1012032BD38B500F021F87C
:1017E00030B1FFF72AFF5821FFF7D6FE00B10120E4
:1017F00032BD38B500F015F830B1FFF7DCFE5821E6
:10180000FFF7CAFE00B1012032BD38B500F009F87B
:1018100030B1FFF7A5FE5821FFF7BEFE00B1012051
:1018200032BD0D46044600AA5821FFF773BD38B5F6
:10183000FFF7F7FF30B1FFF79CFE5821FFF7ACFE32
:1018400000B1012032BD38B500F01EF830B100F013
:101850008DF95921FFF7A0FE00B1012032BD38B546
:1018600000F012F830B100F006F85921FFF794FEAD
:1018700000B1012032BD9DF8000000F09F00284318
:101880008DF80000024670470D46044600AA592113
:10189000FFF740BD38B500F01EF838B19DF80000E4
:1018A00065F3010000F010F800B1012032BD38B539
:1018B00000F011F838B19DF8000065F3830000F0E6
:1018C00003F800B1012032BD8DF8000002465A2114
:1018D0002046FFF722BD0D46044600AA5A21FFF715
:1018E00019BD38B5FFF7F7FF70B19DF8000000F0A3
:1018F0000F0040EA05108DF800005A219DF80020E5
:10190000FFF74AFE00B1012032BD38B500F00EF8F5
:1019100058B19DF8000065F305008DF800000246FF
:101920005B21FFF739FE00B1012032BD0D460446B0
:1019300000AA5B21FFF7EEBC38B5FFF7F7FF30B127
:10194000FFF720FE5B21FFF727FE00B1012032BD2B
:1019500038B500F016F838B19DF8000065F30300C3
:1019600000F022F800B1012032BD38B500F009F8CE
:1019700030B1FFF739FE5C21FFF70EFE00B1012008
:1019800032BD0D46044600AA5C21FFF7C3BC38B542
:10199000FFF7F7FF38B19DF8000065F3461000F03F
:1019A00003F800B1012032BD8DF8000002465C2131
:1019B0002046FFF7B2BC38B5FFF7E6FE5D21FFF722
:1019C000A9FC30B1FFF7D9FC5D21FFF7E5FD00B1BF
:1019D000012032BD70B582B0044600AA0E465D21DA
:1019E000FFF798FC750908B39DF8000000F00700A8
:1019F00040EAC6008DF800005D219DF80020FFF749
:101A0000CBFD98B100AA5C2100F0B9F870B19DF847
:101A1000000000F07F0040EAC5108DF800005C2156
:101A20009DF80020FFF7B8FD00B1012076BD38B564
:101A300000F02DF830B1FFF715FE5E21FFF7ACFD89
:101A400000B1012032BD38B500F021F830B1FFF708
:101A5000F4FD5E21FFF7A0FD00B1012032BD38B5D5
:101A600000F015F830B1FFF7A6FD5E21FFF794FDF9
:101A700000B1012032BD38B500F009F830B1FFF7F0
:101A8000B3FD5E21FFF788FD00B1012032BD0D4698
:101A9000044600AA5E21FFF73DBC38B5FFF7F7FF0B
:101AA00030B1FFF75DFD5E21FFF776FD00B101204B
:101AB00032BD38B5FFF7EBFF30B1FFF75AFD5E21BD
:101AC000FFF76AFD00B1012032BD2DE9F0418046EB
:101AD0000D46002603270224F6B206F1220100F08B
:101AE0001EF828B1761C641EF6D17F1EF3D10120AA
:101AF000BDE8F0812DE9F04180460D460026032720
:101B00000224F6B206F1280100F009F828B1761C8B
:101B1000641EF6D17F1EF3D10120BDE8F081721959
:101B2000C9B24046FFF7F6BB7219C9B22046FFF7AB
:101B3000F1BBF8B504460D4600260227F6B206F1C1
:101B40004B01FFF7F1FF18B1761C7F1EF6D1012083
:101B5000F2BD38B500F01AF800AA0F2100F00FF816
:101B600000F004F80F21FFF717FD0BE09DF80000CF
:101B700065F304008DF800000246704707212046F7
:101B8000FFF7C8BB00F007F8012032BD0D46044640
:101B90008021FFF7CEBB00212046FFF7CABB000023
:101BA00080B500F065F800B1012002BD002070474B
:101BB00030B55E4C5E4D8BB0206840F00100206077
:101BC00006A9206800F001000090009807951020F9
:101BD000069002200990002008904FF0904000F0FD
:101BE000B3F8002200210A2000F0CCF90A2000F00E
:101BF000E6F9206840F00200206001A9206800F0AA
:101C000002000090009802950120019002200490AB
:101C100000200390474800F097F800221146062064
:101C200000F0B0F9062000F0CAF900200BB030BD7A
:101C300010B5447884B000F011F800F063FA06E0C3
:101C400010B5447884B000F009F800F0C0FA18B17B
:101C5000204600F063F8012004B010BD4FF480501E
:101C60000092029001930A460123214632487047B0
:101C700030B5314C87B0204600F031FB002844D10C
:101C80002E482F4D606001A93320A0600120E06044
:101C90002C482060686940F002006861686900F0C3
:101CA0000200009000984FF44070019012200290C2
:101CB0000220049000200390042005901D4800F0AD
:101CC00043F8286A40F4001028620022286A00F4D1
:101CD0000010009000210098286840F4001028604F
:101CE000286820F4001028601F2000F04BF91F2006
:101CF00000F065F900221146202000F043F9202071
:101D000000F05DF9204600F085F9204600F0E7FA82
:101D100001280CBF0020012007B030BD80B5064867
:101D200000F0C6F9BDE80140A2E700004C100240F7
:101D300000001110000400480C090020280ED000FB
:101D400038100240005400402DE9F8470022764B3D
:101D5000DFF8D881DFF8D8914FF00F0A30E005FAAC
:101D60000EFE4EEA040448F82C406FEA070C1C688B
:101D70000CEA040E4C68E40348BF47EA0E0EC3F8B1
:101D800000E05C680CEA040E4C68A40348BF47EA14
:101D90000E0EC3F804E09C680CEA040E4C68E402E2
:101DA00048BF47EA0E0EC3F808E0DC680CEA040CF2
:101DB0004C68A40248BF47EA0C0CC3F80CC0521C84
:101DC0000F6837FA02F400F09B804FF0010C0CFA18
:101DD00002F42740F3D04D68022D18BF122D11D107
:101DE000D50800EB850C02F00706DCF820504FEA1E
:101DF000860E0AFA0EF6B5430E6906FA0EF635435C
:101E0000CCF820504FEA420C0326056806FA0CF67F
:101E10006FEA060E0E7906F003060EEA050506FACD
:101E20000CF635430560E4434D68012D18BF022DC3
:101E300003D0112D18BF122D0FD18568CE680EEA80
:101E4000050506FA0CF63543856045684E68C6F30D
:101E5000001625409640354345604D6805F0030661
:101E6000032E06D1C66AC5F3C005344095402C4305
:101E7000C462C4680EEA040E8C6804FA0CF444EAE6
:101E80000E04C4604C68E40099D5D9F8004044F0D1
:101E90000104C9F800404FEA920CD9F8004004F060
:101EA0000104009402F00305009C58F82C404FEA0E
:101EB000850E0AFA0EF5AC43B0F1904F08BF00252D
:101EC0001DD01C4DA84208BF012518D01A4DA842AC
:101ED00008BF022513D0194DA84208BF03250ED014
:101EE000174DA84208BF042509D0164DA84208BFC7
:101EF000052504D0144DA8420CBF062507252EE762
:101F0000BDE8F1870069084018BF0120C0B27047E2
:101F10000E4A1368034200D1704780B5106000F08C
:101F20001AFF01BD0000000000040140080001404C
:101F3000601002400004004800080048000C0048FF
:101F40000010004800140048001800481404014024
:101F50000901002806D5294A00F00F00801800F872
:101F6000041C7047264A8154704726490A684FF678
:101F7000FF031A4000F0070042EA0020224A104303
:101F80000860704770B51F4B1B68C3F30223012420
:101F9000C3F10705052D2EBF0F2504FA05F56D1EAB
:101FA0001E1D072E34BF0023DB1E2940994004FA72
:101FB00003F3BDE870405B1E1A401143C8E70121DE
:101FC00000F01F029140114AFFE7400942F820103B
:101FD000704710B5401EB0F1807F01D3012010BDC5
:101FE0000B4C60600F214FF0FF30FFF7B1FF002076
:101FF000A06007202060002010BD000018ED00E068
:1020000000E400E00CED00E00000FA0500E100E073
:1020100010E000E038B5050001D1012032BD05F126
:102020003404607818B92070284600F055F8022072
:10203000607028680168490849000160686829687B
:1020400020F0706008612868816821F40041816097
:10205000A86840B1E968012929680CBF40F4004034
:1020600040F404408860E868022803D129684FF4EE
:10207000006048602868416841F0007100F038F85D
:10208000286969690843A96940EA01202968C8608C
:10209000E869296A0843296808602868016841F0EE
:1020A000010101600020606001206070002032BDED
:1020B00010B508B9012010BD00F13404022161708F
:1020C00001680A68520852000A6000F006F8002011
:1020D00060606070207010BD7047704719212846FD
:1020E00000F0B9B928688069000470472068416829
:1020F00041F4004141607047534600228021284648
:1021000000F058B92DE9F84F00F0C4F855D10A9FF6
:10211000002F1CBF0B9C002C50D0FFF7E3FF4CD4CA
:102120003078012849D001203070522000F0CAF8E0
:1021300000F0DDF840B17068042802D10020307052
:1021400034E00020307033E0FF2C4FF0FF0A0090A5
:1021500006DD00F035F8494600F036F8D34606E0D3
:102160004FF00073E2B2494600F02EF8A34600F0AB
:10217000B2F8C0B9296817F8010BABF1010B641E66
:10218000BBF1000F8862A4B208D14CB14346FFF7FF
:10219000B4FF68B9FF2C0090E2DDDAE7002CE6D14D
:1021A000FFF79CFF30B17068042801D1012005E0E1
:1021B000032003E000F075F800E00220BDE8F28F94
:1021C0004FF08073FF227047284600F0AEB92DE92A
:1021D000F84F00F05FF85AD10A9F002F1CBF0B9CEC
:1021E000002C55D0FFF77EFF51D4307801284ED017
:1021F00001203070622000F065F800F09EF840B1D8
:102200007068042802D10020307039E0002030705E
:1022100038E0FF2C4FF410504FF0FF0A009006DD1D
:10222000FFF7CEFF4946FFF7CFFFD34606E04FF05A
:102230000073E2B24946FFF7C7FFA34643460022B8
:102240000421FFF75CFFE8B92868ABF1010B406A95
:1022500007F8010B641EBBF1000FA4B208D14CB10A
:102260004346FFF74AFF68B9FF2C0090DFDDD7E750
:10227000002CE3D1FFF732FF30B17068042801D1A0
:10228000012005E0032003E000F00BF800E002204D
:10229000BDE8F28F054605F13406894670780128BD
:1022A00070472968064A2020C861286841681140A3
:1022B0004160012070700020307070470000000005
:1022C00000E800FE7070002070602846DDF8308065
:1022D000CDF8008070474146284600F0A1B890F83C
:1022E00035007047416841F4804141607047F8B55E
:1022F00000F04FF84FF08073F2B200F048F800F0B1
:1023000018F818B1A06B042811D107E0012E07D0EE
:1023100000F036F820B1A06B042808D10120F2BDEE
:102320002068EDB285623B4600F040F800B1032022
:10233000F2BD069F3946204672E0F8B500F029F854
:102340000023F2B200F023F8FFF7F3FF18B1A06BFF
:10235000042813D107E0012E07D000F011F820B1B6
:10236000A06B04280AD10120F2BD2068EDB285627D
:102370003B460022402100F016F800B10320F2BDD8
:102380002168280A88623946204649E029462046C5
:10239000CBE004464FF40050009015461E467047AF
:1023A00001224FF40041204604E01923002280213D
:1023B0002046FFE72DE9F04104460D4690461E46B3
:1023C00000F0E4FDB8F1000F07460CD100F01FF853
:1023D0001AD016F1010FF9D08EB100F0D7FDC01B55
:1023E0008642F3D20BE000F012F80DD116F1010F86
:1023F000F9D026B100F0CAFDC01B8642F3D204F129
:10240000340000F04DF800E00020BDE8F0812068C5
:1024100080692840C003C00BE903B0EBD13F70478F
:1024200070B500F030F8064620688069800710D447
:102430002946204600F03AF808B1012070BD15F198
:10244000010FF1D025B100F0A1FD801B8542EBD238
:102450001DE0002070BD70B500F015F8064620683C
:10246000806980060DD42946204600F01FF808B187
:10247000012070BD25B100F089FD801B8542EED2A0
:1024800005E0002070BD04460D4600F07FBD04F15C
:102490003400416841F02001416000F001F870BD56
:1024A000012141700021017003207047F8B5FFF74A
:1024B000EAFF064620688169C9062FD504F1340772
:1024C000797812291FBF797852297978622904D145
:1024D0004168890101D4FFF705FF206881698906F9
:1024E0000CD415F1010FF8D025B100F04FFD801B81
:1024F0008542F2D200F014F80320F2BD1021C16130
:1025000020202168114AC86120684168114041605B
:102510000420786000F004F80120F2BD0020F2BD34
:102520000120787000203870704730B50068084D81
:1025300044682C40890554EA915141EA0241039ACA
:1025400019431143416030BD0000000000E800FE67
:10255000009800FC10B588B000F0F0FC00F028FDF9
:10256000002000F07FFD0121002000F09FFD00F021
:1025700001FEDFF80848DFF80808A0604020E060AE
:102580007F2020614FF4987060610020A06120627C
:10259000606204F1080000F041FE00B1FEE78DF832
:1025A0000300012201208DF801008DF802008DF852
:1025B000000000A904F1080000F0F5FE00B1FEE7FC
:1025C0008DF804008DF805008DF806008DF80700E1
:1025D00004900590012201A904F1080000F06EFEAC
:1025E00000B1FEE704F12C0100F0CAFF04F1300154
:1025F000012000F0C5FF012808BFA07004F13401DC
:10260000002001F0C9F804F13801012001F0C4F8FC
:10261000012808BFE07004F13C01002001F0C6F978
:1026200004F14001002001F07BFA04F14401002094
:1026300001F026FB04F14C01012001F021FB04F123
:102640005401022001F01CFB012808BF607104F155
:102650004801002001F03CFC04F15001012001F090
:1026600037FC012862D1207160E0A079012859D19E
:10267000002203A904F1080000F070FE002202A964
:1026800004F1080000F0ECFE0498C0F59870642195
:10269000484340F2311190FBF1F0C0B201909DF837
:1026A0000E009DF80D309DF80C200FF2E0610090B7
:1026B00004F1580001F0EAFC04F1580001F000FDBB
:1026C00082B241F2883304F15801DFF8B80601F014
:1026D00051FDE06A00F0C0F8A07810B9206B00F05E
:1026E000BBF8606B00F011F9E07810B9A06B00F056
:1026F0000CF9E06B00F0B1F9206C00F007FA606CA7
:1027000000F064FAE06C00F061FA607910B9606D75
:1027100000F05CFAA06C00F0D4FA207910B9206DBA
:1027200000F0CFFA4FF47A7000F033FC20780128E3
:102730002CD1E06A00F0C6FFA07810B9206B00F041
:10274000C1FF606B01F0C4F8E07810B9A06B01F034
:10275000BFF8E06B01F076F9206C01F033FA606CA1
:1027600001F058FBE06C01F055FB607910B9606D29
:1027700001F050FBA06C01F02BFC207910B9206D0A
:1027800001F026FC0120A071002020706078012853
:102790007FF46BAFE06A00F0A2FFA07810B9206B65
:1027A00000F09DFF606B01F0A0F8E07810B9A06B1D
:1027B00001F09BF8E06B01F052F9206C01F00FFA88
:1027C000606C01F034FBE06C01F031FB607910B912
:1027D000606D01F02CFBA06C01F007FC207910B9B2
:1027E000206D01F002FC0020A07160709AE70000EB
:1027F00010B52DED048BFDEEC00AC0ED000AB5EE5C
:10280000400AF8EEE00AF1EE10FA0C46ACBF30EEEA
:10281000608A30EEC08A104601F006FF41EC110BD1
:102820009FED890B02F059F9B0EE409AF0EE609AF4
:1028300018EE100A02F070FB53EC192B02F094FB17
:1028400041EC100B02F061FC51EC100B02F06AFC41
:102850002060BDEC048B10BDF0B58DB0044604A91A
:1028600000F055FF0DF11101204600F045FF9DF8E5
:102870001100012847D109A9204600F05DFF012879
:1028800001D100F0E5F800F0AAF80FF2245100F0B1
:10289000D1F800F085F900F087F90DF1120120461A
:1028A00000F03DFF012802D100F0BCF801E000F08B
:1028B000AFF800F075F900F077F908A9204600F0AC
:1028C0004BFF012802D100F09BF803E000F081F8F3
:1028D00000F071F900F064F900F066F907A92046EC
:1028E00000F04AFF012802D100F082F807E000F072
:1028F0006AF800F063F80FF2605100F062F900F03E
:102900004FF900F051F90DB0F0BDF0B58DB00446AF
:1029100004A901F002F80DF11101204600F0F2FFC8
:102920009DF81100012847D109A9204601F00DF8B2
:10293000012801D100F08CF800F051F80FF22C5171
:1029400000F078F800F02CF900F02EF90DF11201EA
:10295000204600F0EAFF012802D100F063F801E010
:1029600000F056F800F01CF900F01EF908A9204606
:1029700000F0FBFF012802D100F042F803E000F074
:1029800028F800F018F900F00BF900F00DF907A98C
:10299000204600F0FAFF012802D100F029F807E0F4
:1029A00000F011F800F00AF80FF2F04100F009F918
:1029B00000F0F6F800F0F8F80DB0F0BD0598069BB1
:1029C0009DF810207047032205A906A89DED070A6F
:1029D0000EE7032205A906A89DED080A08E741F2C3
:1029E00088370B989DF81020DFF89053099B7047AB
:1029F0009DF810200FF2504105F1580001F046BB40
:102A00009DF810200FF2184105F1580001F03EBB6F
:102A10009DF812309DF810200FF2E43105F15800B6
:102A200001F034BB9DF810200FF2B43105F15800CD
:102A300001F02CBBD34E0390029200920A980190B1
:102A400005F1580001F022BB000000000000244006
:102A5000002009900A900B907047F0B58DB00446A5
:102A600004A901F014F80DF11101204601F004F859
:102A70009DF81100012847D109A9204601F01FF84F
:102A8000012801D1FFF7E4FFFFF7A9FF0FF224416E
:102A9000FFF7D0FF00F084F800F086F80DF1120186
:102AA000204600F0FCFF012802D1FFF7BBFF01E048
:102AB000FFF7AEFF00F074F800F076F808A92046A2
:102AC00001F00DF8012802D1FFF79AFF03E0FFF7AC
:102AD00080FF00F070F800F063F800F065F807A9D7
:102AE000204601F00CF8012802D1FFF781FF07E032
:102AF000FFF769FFFFF762FF0FF2E83100F061F8BE
:102B000000F04EF800F050F80DB0F0BDF0B587B011
:102B1000044601A901F07BF80DF10501204601F002
:102B20006BF89DF80500012838D104A9204601F072
:102B300086F8012804BF0020049000F0BAF800F0E5
:102B400094F80FF2B83100F0ADF800F029F800F079
:102B50002BF80DF10601204601F061F8012802D1A1
:102B600000F092F801E000F085F800F019F800F0AC
:102B70001BF805A9204601F072F8012804D100F0E5
:102B80006FF800F085F805E000F086F800F06DF8C9
:102B900000F015F800F004F800F006F807B0F0BDFA
:102BA00005F1580001F08CBA82B23B4605F158019C
:102BB000304601F0DFBA0598069B9DF810200FF211
:102BC0007021009005F1580001F060BAF0B587B0AF
:102BD000044601A901F043F90DF10501204601F079
:102BE00033F99DF80500012838D104A9204601F0E9
:102BF0004EF9012804BF0020049000F05AF800F0BC
:102C000034F80FF20C3100F04DF8FFF7C9FFFFF771
:102C1000CBFF0DF10601204601F029F9012802D170
:102C200000F032F801E000F025F8FFF7B9FFFFF7F8
:102C3000BBFF05A9204601F03AF9012804D100F0B4
:102C40000FF800F025F805E000F026F800F00DF888
:102C5000FFF7B5FFFFF7A4FFFFF7A6FF07B0F0BD32
:102C60009DF804200FF2B81170470298039B9DF85D
:102C7000042070479DF806309DF804200FF2801163
:102C800005F1580001F002BA9DF804200FF250112E
:102C900005F1580001F0FAB9032202A903A89DED3D
:102CA000050AA5E5009041F2883705F1580001F0CA
:102CB000EDB9022202A903A89DED040A2F4D314E61
:102CC00096E5F0B587B0044601A901F0A6F90DF12B
:102CD0000501204601F096F99DF80500012838D13C
:102CE00004A9204601F0B1F9012804BF0020049096
:102CF000FFF7DFFFFFF7B9FF0FF22821FFF7D2FF41
:102D0000FFF74EFFFFF750FF0DF10601204601F0DF
:102D10008CF9012802D1FFF7B7FF01E0FFF7AAFF06
:102D2000FFF73EFFFFF740FF05A9204601F09DF9A0
:102D3000012804D1FFF794FFFFF7AAFF05E0FFF792
:102D4000ABFFFFF792FFFFF73AFFFFF729FFFFF70F
:102D50002BFF07B0F0BDB0F5005F00D0704780B525
:102D6000002000F0E3F938B90448817911B9012154
:102D7000017001BD0121417001BD00000000002073
:102D80000028004044050020FEE700000A0A0A541B
:102D9000696D655374616D703A20253032643A254F
:102DA0003032643A253032642E253032640A000015
:102DB0000A4143435F585B25645D3A2025642C201B
:102DC0004143435F595B25645D3A2025642C2041D3
:102DD00043435F5A5B25645D3A2025640A00000086
:102DE00057484F20414D20492061646472657373D8
:102DF0005B25645D3A204552524F520A00000000A4
:102E000057484F20414D20492061646472657373B7
:102E10005B25645D3A203078253032580A00000086
:102E20004F44525B25645D3A204552524F520A008E
:102E30004F44525B25645D3A2025642E253033646F
:102E400020487A0A0000000046535B25645D3A2062
:102E50004552524F520A000046535B25645D3A20AA
:102E600025642E2530336420670A00000A47595232
:102E70005F585B25645D3A2025642C204759525FDA
:102E8000595B25645D3A2025642C204759525F5ACE
:102E90005B25645D3A2025640A00000046535B25EB
:102EA000645D3A2025642E25303364206470730AF3
:102EB000000000000A4D41475F585B25645D3A20E1
:102EC00025642C204D41475F595B25645D3A2025E0
:102ED000642C204D41475F5A5B25645D3A20256490
:102EE0000A00000046535B25645D3A2025642E25C8
:102EF0003033642047617573730A00000A48554DEA
:102F00005B25645D3A2025642E253032640A00007A
:102F10000A54454D505B25645D3A2025642E2530CA
:102F200032640A000A50524553535B25645D3A20CF
:102F300025642E253032640A0000000080B51A484E
:102F4000016841F4807101600320FFF70EF80F2043
:102F500000F005F800F002F8002002BD704710B53F
:102F6000044602F081FC4FF47A71B0FBF1F0FFF7F8
:102F700030F8002221464FF0FF30FFF703F8002021
:102F800010BD0A480168491C016070470748006885
:102F9000704738B50446FFF7F9FF0546FFF7F6FF1F
:102FA000401BA042FAD331BD00200240A4090020FA
:102FB00000B595B000A8142102F0D8FC0FF264010E
:102FC00005A891EC100B80EC100B1020059001204F
:102FD0000B9060200D9000200C9002200E9001209C
:102FE0000F9010902820119002201490072012902A
:102FF0000420139005A802F0BBF808B1FFF7C4FE47
:103000000F200090042103200190002002900390E3
:10301000049000A802F0C2FA08B1FFF7B5FE15B09F
:1030200000BD0000000000000000000000000000E3
:103030000000000000000000000000000000000090
:103040000000000000000000000000000000000080
:103050000000000000000000000000000000000070
:103060000000000010B586B0044600F070F83CB9CE
:10307000DFF8E400016841F00101016000F010F8A0
:103080000FF2E40030F8140000F05AF80220049027
:10309000DFF8C80050F82400FEF756FE06B010BD59
:1030A000006800F0010000900098704730B587B0CC
:1030B00004460D4600F04BF854B9DFF89C00016857
:1030C00041F004010160006800F0040000900098E5
:1030D000DFF88C000FF294013DB931F81410019122
:1030E0000021029100F01AF816E0012D14D131F8F8
:1030F00014100191DFF86C100291002100F00EF81D
:103100000FF26C0030F8144000220F2160B2FEF77D
:1031100039FF60B2FEF753FF07B030BD03910221C3
:10312000049101A950F82400FEF70EBE0FF23C01F5
:10313000DFF82C2031F8101052F82000FEF7E2BE24
:10314000019001A90120029000200390704701A87E
:10315000142102F00BBC00004C100240340500208A
:103160003805002000002110200000000020000091
:103170002800000010B51E481E4C86B000F044F830
:1031800000F042F8C16841F40031C16001A9C06893
:1031900000F400300090009804200190022002907A
:1031A000002003900220049000F028F808200190ED
:1031B00001A900F023F8104820604FF4E13060606E
:1031C0000020A060E0602061A0610C2060612046CA
:1031D00000F092FF00B1FEE704F1700060654FF46B
:1031E000807104F1580001800021416106B010BDDA
:1031F0004C10024044050020004400400720059088
:103200004FF09040FEF7A0BD016841F00101016060
:10321000016801F0010100910099704738B5040080
:1032200011D094F8210020B984F82000204602F043
:10323000A1FB00F038F8FF250028206805D0456282
:10324000042084F82100012032BD8168DFF8982233
:10325000114000F07FF8626823691A43A3691A439A
:10326000114381602168E068086120680169A268F3
:1032700041EA024101612068C16821F08001C1601A
:103280002068C16C89088900C1642068C16CE2694A
:1032900063691A431143C16420684562012084F8C0
:1032A0002100002032BD022084F82100CA202168BC
:1032B0004862532021684862204633E1F8B500F0A7
:1032C000F3F801D10220F2BD00F0FAF80FD1400668
:1032D0005CBF0020E870287800F03EF900F037F875
:1032E00000F0DFF8390241EA064108430BE04006EE
:1032F00003D5287800F03BF901E00020E8706978F8
:10330000287800F091F8E97840EA014600F09BF84F
:10331000FF27B0B92168DFF8D40130400860206889
:10332000816821F4802100F015F8EA682B691A43BE
:103330001143816000F07EF806D4204600F0DAF8F0
:1033400010B12068476286E020684762C4E0064604
:10335000687801E1816020688168704710B5006875
:103360000C46816A616001694904490CA1600068EA
:10337000DFF878110840010C01F03F032370A070C2
:10338000030A01F040006370E0703AB9207800F061
:10339000EEF800F005F800F081F8A070002010BDF4
:1033A00020706078E3E0F8B500F07EF801D10220EB
:1033B000F2BD012084F82000022084F82100002AB8
:1033C000687826D1C10603D500F0EF000A30687096
:1033D000E87800F0C1F8FFF7BAFF00F062F83902B0
:1033E00041EA06410843297840EA413600F02BF8CB
:1033F000FF2558B92168DFF8F8003040486000F038
:1034000019F810D4204600F075F860B120684562C4
:1034100021E000F0ACF8A87800F0A9F86978E87825
:1034200000F002F8DFE755E0090241EA0040A97820
:10343000084370472068C16821F08001C16020689E
:103440008068800670472168CA204862532021683E
:103450004862204666E0042000F02CF80120F2BD0E
:1034600010B5006840680C46DFF884100840010C75
:10347000E170A070010A01F01F01400B617000F0C3
:103480000700207042B9E07800F071F8E070FFF7B3
:1034900088FF00F003F8A070002010BD6070A078D5
:1034A00065E00746A87857E004460D4694F82000EA
:1034B0000128704784F82100002084F8200070471C
:1034C000012084F82000022084F82100002A2068CE
:1034D0008068704720684562012084F82100002040
:1034E00084F82000F2BD0000BFFF8FFF7F7F7F00C8
:1034F0003FFFFF0038B504462068C16821F0A001F5
:10350000C160FFF743FD05462068C068800607D408
:10351000FFF73CFD401BB0F57A7FF5D9032032BDA3
:10352000002032BD38B504462068C168490611D470
:103530004FF0FF31C160FFF729FD05462068C068E4
:10354000400607D4FFF722FD401BB0F57A7FF5D97E
:10355000032032BD002032BD002101E0491C0A38A1
:10356000C0B20A28FADA40EA0110C0B27047010975
:103570000A2200F00F0012FB0100C0B270470000E9
:1035800010B50C460021216068B10128204610D0FA
:1035900000F04DF8012804D1204600F010F8012871
:1035A0000BD0002010BD204600F009F80128F8D10A
:1035B00003E000F03CF80128F3D1012010BD38B53C
:1035C000394D0446E878012830D0FEF7E9FA0128A1
:1035D0002CD068202870D620687000206880287160
:1035E0000120687105F12800A8603048E8600020DB
:1035F00028612F48E86305F13800A8620020E862DE
:103600002560E8680168080004D11421284602F00A
:10361000ADF907E028468847012804D12068142125
:1036200002F0E0F94AE0FEF7C1FA002032BD38B5F9
:103630001D4D0446E87D012834D0FEF7B1FA01287B
:1036400030D069202875D42068750120A875002025
:10365000E87528760120687605F13000E8611548A4
:1036600028621548686205F14000286300206863FD
:1036700005F114002060286A0168080005D11421B2
:1036800005F1140002F072F908E005F11400884712
:10369000012804D12068142102F0A4F90EE0FEF7FD
:1036A00087FA002032BD000084080020600200205C
:1036B00090090020E802002058010020002020602E
:1036C000012032BD80B518B1C16889680A0001D1F6
:1036D000012002BD8847012818BF002002BD80B527
:1036E00018B1C168C9680A0001D1012002BD88472C
:1036F000012818BF002002BD002818BF002901D1F1
:1037000001207047C078FFE708700020704700284C
:1037100018BF002901D1012070478078F4E780B5F7
:1037200018B1C2681269130001D1012002BD90478F
:10373000012818BF002002BD80B500281CBFC26848
:10374000002902D09269130001D1012002BD9047E7
:10375000012818BF002002BD80B500281CBFC26828
:10376000002902D0526A130001D1012002BD904706
:10377000012818BF002002BD80B500281CBFC26808
:10378000002902D0126B130001D1012002BD904725
:10379000012818BF002002BD10B50C460021216091
:1037A00068B10128204610D000F04BF8012804D160
:1037B000204600F010F801280BD0002010BD204654
:1037C00000F009F80128F8D103E000F03AF80128E8
:1037D000F3D1012010BD38B5374D0446E8780128F3
:1037E0002ED0FEF7DDF901282AD068202870D620D7
:1037F00068700020688028710120687105F1280038
:10380000A8602E48E860002028612D48E86305F193
:103810003800A8620020E8622560E86801680800B6
:1038200004D11421284602F0A1F807E02846884771
:10383000012804D12068142102F0D4F844E00020CB
:1038400032BD38B51C4D0446E87D012832D0FEF764
:10385000A7F901282ED069202875D4206875012089
:10386000A8750020E87528760120687605F13000FB
:10387000E861144828620020686205F1400028636E
:103880000020686305F114002060286A01680800C0
:1038900005D1142105F1140002F068F808E005F1E3
:1038A00014008847012804D12068142102F09AF8F6
:1038B0000AE0002032BD0000C8080020A402002059
:1038C000900900202C03002000202060012032BD40
:1038D00080B518B1C16889680A0001D1012002BD14
:1038E0008847012818BF002002BD80B518B1C16803
:1038F000C9680A0001D1012002BD8847012818BF0C
:10390000002002BD002818BF002901D10120704706
:10391000C078FFE7087000207047002818BF002912
:1039200001D1012070478078F4E780B500281CBFE2
:10393000C268002902D01269130001D1012002BD22
:103940009047012818BF002002BD80B500281CBF89
:10395000C268002902D09269130001D1012002BD82
:103960009047012818BF002002BD80B500281CBF69
:10397000C268002902D0526A130001D1012002BDA1
:103980009047012818BF002002BD80B500281CBF49
:10399000C268002902D0126B130001D1012002BDC0
:1039A0009047012818BF002002BD000080B500220A
:1039B00000280A60084605D000F00AF8012805D062
:1039C000002002BD00F004F80128F9D1012002BD59
:1039D00038B51A4D0446E87801282DD0FEF7E0F8F6
:1039E000012829D03D2028703C2068700020688084
:1039F000A88005F11400A8601148E8600020286143
:103A000005F11C0068610020A8612560E868016874
:103A1000080004D11421284601F0A8FF07E0284639
:103A20008847012807D12068142101F0DBFF00201E
:103A30002060012032BD002032BD00006809002056
:103A40003004002080B518B1C16889680A0001D12E
:103A5000012002BD8847012818BF002002BD80B5A3
:103A600018B1C168C9680A0001D1012002BD8847A8
:103A7000012818BF002002BD002818BF002901D16D
:103A800001207047C078FFE70870002070470028C9
:103A900018BF002901D1012070478078F4E780B574
:103AA00000281CBFC268002902D01269130001D18E
:103AB000012002BD9047012818BF002002BD80B53B
:103AC00000281CBFC268002902D09269130001D1EE
:103AD000012002BD9047012818BF002002BD80B51B
:103AE00000281CBFC268002902D0526A130001D10D
:103AF000012002BD9047012818BF002002BD80B5FB
:103B000000281CBFC268002902D0126B130001D12B
:103B1000012002BD9047012818BF002002BD00000F
:103B200080B5002200280A60084605D000F00AF897
:103B3000012805D0002002BD00F004F80128F9D1C9
:103B4000012002BD38B51C4D0446E878012831D06B
:103B5000FEF726F801282DD0BC202870BE20687002
:103B60000020688028710120687105F11400A860A8
:103B70001248E860002028611148E86105F11C0046
:103B800068610020A8612560E8680168080004D128
:103B90001421284601F0EAFE07E02846884701285C
:103BA00007D12068142101F01DFF002020600120B2
:103BB00032BD002032BD0000480900206C04002006
:103BC000A009002080B518B1C16889680A0001D138
:103BD000012002BD8847012818BF002002BD80B522
:103BE00018B1C168C9680A0001D1012002BD884727
:103BF000012818BF002002BD002818BF002901D1EC
:103C000001207047C078FFE7087000207047002847
:103C100018BF002901D1012070478078F4E780B5F2
:103C200000281CBFC268002902D01269130001D10C
:103C3000012002BD9047012818BF002002BD80B5B9
:103C400000281CBFC268002902D09269130001D16C
:103C5000012002BD9047012818BF002002BD80B599
:103C600000281CBFC268002902D0D269130001D10C
:103C7000012002BD9047012818BF002002BD0000AE
:103C800010B50C4600212160A0B102281CD02146AD
:103C900014D3022000F058F8012809D1204600F082
:103CA0001AF8012804D1214600F04EF8012810D05E
:103CB000002010BD204600F00EF802E0012000F0C8
:103CC00043F80128F4D104E0214600F03DF8012832
:103CD000EED1012010BD38B5494D0446E8780128E1
:103CE00031D0FDF75DFF01282DD0BC202870BE200B
:103CF00068700020688028710120687105F13C001F
:103D0000A8604048E860002028613F48686505F1E8
:103D10005400E863002028642560E8680168080012
:103D200004D11421284601F021FE07E028468847E7
:103D3000012807D12068142101F054FE00202060E2
:103D4000012032BD002032BD70B505462C4E142036
:103D500000FB05600C46C078012850D0FDF720FF1D
:103D600001284CD0012D06F114002849284A02D020
:103D7000022D17D030E0BD230370C260BA23437018
:103D800041640123837000220023C370037106F194
:103D9000580101234371026106F14403836001630A
:103DA000426318E0BD230375091DB8234375026201
:103DB0000223837581640023C375037600220123E7
:103DC000437606F15C0106F14C03C36142628163F4
:103DD000C26306F1280020602068C16809680A00F3
:103DE00008BF142104D08847012807D12068142176
:103DF00001F0F8FD00202060012070BD002070BDA2
:103E00003407002094040020A00900208809002025
:103E1000E404002080B518B1C16889680A0001D1A6
:103E2000012002BD8847012818BF002002BD80B5CF
:103E300018B1C168C9680A0001D1012002BD8847D4
:103E4000012818BF002002BD002818BF002901D199
:103E500001207047C078FFE70870002070470028F5
:103E600018BF002901D1012070478078F4E780B5A0
:103E700000281CBFC268002902D01269130001D1BA
:103E8000012002BD9047012818BF002002BD80B567
:103E900000281CBFC268002902D09269130001D11A
:103EA000012002BD9047012818BF002002BD80B547
:103EB00000281CBFC268002902D0D269130001D1BA
:103EC000012002BD9047012818BF002002BD00005C
:103ED00010B50C460021216078B10128214612D08E
:103EE000012000F016F8012805D12146002000F03D
:103EF00010F801280BD0002010BD214600F009F871
:103F00000128F8D103E000F004F80128F3D10120E2
:103F100010BD70B505462B4E142000FB05600C4605
:103F2000C07801284CD0FDF73BFE012848D0264838
:103F3000264915B1012D16D02FE0BD223270F16057
:103F4000BA227270B06400227280327100210122A4
:103F5000727106F1480006F12802B26031613063E7
:103F60007163266019E0BD223275001DB82272759A
:103F7000F0640122B27531620022F275327606F1E8
:103F80004C0001227276306406F138020021F261A1
:103F90007162716406F1140020602068C1680968CC
:103FA0000A0008BF142104D08847012807D12068DF
:103FB000142101F017FD00202060012070BD0020B9
:103FC00070BD00009407002088090020BC04002078
:103FD00080B518B1C16889680A0001D1012002BD0D
:103FE0008847012818BF002002BD80B518B1C168FC
:103FF000C9680A0001D1012002BD8847012818BF05
:10400000002002BD002818BF002901D101207047FF
:10401000C078FFE7087000207047002818BF00290B
:1040200001D1012070478078F4E780B500281CBFDB
:10403000C268002902D01269130001D1012002BD1B
:104040009047012818BF002002BD80B500281CBF82
:10405000C268002902D09269130001D1012002BD7B
:104060009047012818BF002002BD80B500281CBF62
:10407000C268002902D0D269130001D1012002BD1B
:104080009047012818BF002002BD00000CB41CB5E9
:10409000044604A801900A46009401AB00A9074811
:1040A0007844183001F0A2FC009A00211170002819
:1040B0005CBF0098001B16BC5DF80CFB4FD2FFFFE5
:1040C00000F10103810704D010F8011B89B18107B9
:1040D000FAD10268B2F10131914311F0803F04BF7F
:1040E00050F8042FF6E710F8011B11B110F8011B6E
:1040F000FBE7C01A7047000038B504000BD004F18C
:104100006805687818B92870204600F032F800F089
:104110000DF8012801D1012032BD606A08B100F01C
:1041200025F800F014F821F02A0109E00220687057
:1041300020680168490849000160204600F06CB819
:10414000816000F00CF8BDE8324000F0F6B920685C
:10415000416821F49041416020688168704720687F
:10416000016841F00101016020467047204600F0DF
:1041700081B97047F8B5044604F150070D46787EC2
:1041800001281CBF787E22281E4640D1002D18BF72
:10419000002A01D10120F2BD387E012837D001204C
:1041A00038760020F861787E22280CBF3220122059
:1041B00078763A807A8001E0216808857888A8B10D
:1041C000401E788033460022802100F022F898B902
:1041D000A068B0F5805F04BF2069002811BF15F802
:1041E000010B35F8020BC005C00DE5E73346002290
:1041F000402100F00EF808B10320F2BD787E32288D
:104200000CBF22200120787600203876F2BD0220F3
:10421000F2BD204600F0B6B9F8B50446894B2268D5
:1042200010681840A368184323691843636918434A
:10423000E3691843106010265068E36820F440508A
:104240001843506000210025A0697F4B9A421CBF93
:10425000276A3843976827F43067384390607B4F6C
:104260007B48BA421FD1006810F0030004D0022836
:1042700026D035D3032831E00126E069B0F5004FA0
:1042800040F0B98066B1012E00F09E80022E00F051
:104290009E80042E00F09D80082E00F09E80A2E0FB
:1042A00001F0F1FA97E06B4FBA420BD1006810F0C1
:1042B0000C005DD0042813D0082801D00C280DE094
:1042C00002261DE0644FBA420CD1006810F03000A5
:1042D0004ED0102804D02028F2D030280FD00FE084
:1042E00004260DE05D4FBA4223D1006810F0C000F3
:1042F0003ED04028F4D08028E2D0C02800D1082643
:104300009A42BAD1300006D0022E33D0042E33D0D8
:10431000082E34D092E001F0B6FA002800F08F8029
:10432000626802EB4201884202D31103814229D222
:1043300084E04B4FBA420CD1006810F4407017D0A3
:10434000B0F5807FCCD0B0F5007FB9D0B0F5407F1C
:10435000C4E79A42D4D1006810F4406008D0B0F5A8
:10436000806FBDD0B0F5006FAAD0B0F5406FB5E753
:104370000026C5E73B48D3E701F01FFACDE74FF42D
:104380000040CDE736B1022E07D0042E07D0082E0C
:104390000CD012E001F077FA03E0334808E001F0B6
:1043A0000CFA010E62680002002303E04FF40000E3
:1043B00000210B4601F0ECFE00E00125A0F5407164
:1043C0002A4A91423AD22EE001F065FA03E02848E9
:1043D00005E001F0F2F9400001E04FF4803061683F
:1043E000B0FBF1F100E001254FF6F0700840C1F399
:1043F0004201084317E046B1012E09D0022E0AD02F
:10440000042E0AD0082E11D018E001F03CFA06E084
:1044100001F041FA03E013480AE001F0CEF96168C7
:10442000B0FBF1F080B22168C86008E04FF40040B2
:104430006168B0FBF1F080B2D06000E00125284651
:10444000F2BD0000F369FFEF00800040003801403A
:10445000881002400044004000480040004C0040EA
:10446000005000400024F400000024F400FD0F0080
:104470000048E80190F82410C90706D501684A6889
:10448000836A22F400321A434A6090F824108907A4
:1044900006D501684A68C36A22F480321A434A602A
:1044A00090F82410490706D501684A68036B22F486
:1044B00080221A434A6090F82410090706D5016843
:1044C0004A68436B22F400421A434A6090F8241071
:1044D000C90606D501688A68836B22F480521A43A4
:1044E0008A6090F82410890606D501688A68C36B33
:1044F00022F400521A438A6090F82410490610D51D
:1045000001684A68036C22F480121A434A60026C04
:10451000B2F5801F05D14A68436C22F4C0021A43E9
:104520004A6090F82410090606D501684A68806C34
:1045300022F4002210434860704770B5044604F12D
:104540006805002068606FF07E46206800680007FC
:1045500006D5334600224FF40011FFF75AFE50B93A
:1045600020680068400708D5334600224FF48001D8
:10457000FFF74FFE08B1032070BD012068700020D6
:10458000287070BD2DE9F84304460E4691461F463B
:10459000FEF7FCFCB9F1000F804604F168050FD16D
:1045A0002068C0693040B0422BD017F1010FF7D01E
:1045B000AFB1FEF7EBFCA0EB08008742F0D20EE0B3
:1045C0002068C0693040B0421BD117F1010FF7D00D
:1045D0002FB1FEF7DBFCA0EB08008742F0D2206889
:1045E00000F012F821F0200101602068016821F438
:1045F0008071016000F00FF86870002028700320BF
:1046000000E00020BDE8F283016821F08001016034
:104610002068016870472068816849084900816006
:104620000120704700000000010040F10780F446BF
:10463000404200F003F851F00041604709D0B0FA61
:1046400080F18840C91CC1F58461090501EBD021C6
:1046500040057047000000002DE9F8452DED088B5E
:104660000FB486B040F2FF7107989DED080B8DEDF9
:10467000040BC0F30A50884208D1079800240003B5
:1046800005BF069800280225012512E0012807DA57
:1046900006A801F0F4FD012802DB0024002508E053
:1046A000079A40F2FE3161F31E520792441A4FF00E
:1046B000FF35002104A801F003FE1A9F06460FB142
:1046C0000020388036B9DDE908230020002101F000
:1046D00037FE12D0002D13D524B2012C15D1DDE9FF
:1046E00006230020DFF88C1301F02AFE05D0012EEE
:1046F0000BD1DF4901F024FE3ED10AB0CD49E8E1FB
:10470000022D04D1DDE90601E2E1012E6FDB022E6C
:1047100008BFDDE9080100F0DB81012D2AD10798EF
:104720000028099806D4002854BF9FEDD50B9FEDB3
:10473000D60BCBE100280ED456B94FF0FF3104A8B8
:1047400001F0BEFD002848BF9FEDD10B00F1BE81F6
:104750009FEDCB0BBAE156B94FF0FF3104A801F041
:10476000AFFD002848BF9FEDB40B00F1AF819FED76
:10477000C60BABE1012E11D10998002824B206D452
:10478000012CACBF9FEDBE0B9FEDBF0B9EE1012C3A
:10479000ACBF9FEDBD0B9FEDBA0B97E109980028C8
:1047A00010D466B94FF0FF3104A801F089FD00284C
:1047B00042BF079800289FEDA00B00F187819FED75
:1047C000B20B83E101F0CCFD2221016066B94FF00C
:1047D000FF3104A801F074FD002842BF07980028AB
:1047E0009FEDAB0B00F172819FEDA50B6EE1079879
:1047F000002848BF002E0CD501F0B2FD2121016038
:104800000AB04FF0FF30BDEC088B6FF00041BDE8FF
:10481000F485DDE906010022002301F0A7FD38BF81
:10482000002509D381F00041CDE906014FF0FF31A9
:1048300004A801F045FD0546012C13D1DDE9060170
:104840007F4A804B01F0AAFD0CD2DDE9062300204F
:104850004FF0804100F088FBCDE9060100269FED76
:104860007A8B1CE0DDE906230020794900F07CFB0F
:104870009FED788B53EC182B01F0A8FD00F052FC53
:10488000A0F120063046FFF7CFFE0022734B00F068
:104890006BFB53EC182B01F099FD41EC180B0FF258
:1048A000582000EB461ADDE9060153EC182B01F005
:1048B00001FEDDE9062341EC190B51EC180B01F068
:1048C00085FD02460B4651EC190B01F0B3FE41EC9D
:1048D0001A0B53EC1A2B00F047FB41EC1B0B8DED30
:1048E000069B01F0D3FF53EC1B2B00F03DFBDDE9F1
:1048F000062301F0DFFD0646884600204D4953ECB3
:10490000182B01F0D7FD00224FF0804300F02CFB64
:104910003246434601F05AFD53EC1A2B00F024FBBB
:10492000DDE9062301F052FD41EC180B4C4A4D4BDA
:1049300001F080FECDE904012046FFF775FE41EC51
:10494000190BDAE9000153EC192B01F03FFDDDE909
:10495000042301F03BFDCDE90401DDE9082300F06B
:1049600003FB0022404BCDE9020101F017FDC0F02E
:10497000938001223D4B01F0F9FC40F2918000222E
:10498000002301F00BFDDDE9022339BF0020384987
:104990000020384901F01AFD00F0C4FB0446DDE9AF
:1049A000080153EC182B00F0DFFACDE90201DAE937
:1049B0000223DAE9040101F009FDDDE9082300F032
:1049C000D3FA9FED2D8B53EC182B00F0CDFADDE9D7
:1049D000022301F0FBFCCDE90201DAE9002351ECEE
:1049E000190B01F0F3FCDDE9082300F0BDFA0646DF
:1049F00088462046FFF718FE02460B4630464146E1
:104A000001F058FD53EC182B00F0AEFADDE902235B
:104A100001F0DCFCCDE902010FB13C8000240094E0
:104A20000022044B02A801F089FFA8B3012837D067
:104A300042E000BF0000F03F0000000000000080E6
:104A4000CD3B7F669EA0E63F000000000000F03FE7
:104A500000005040000000000000E03F0000903FD8
:104A6000EF39FAFE422EE63F0000E0C00000E040D1
:104A70000000E0BF0000E03FEF39FAFE422EE63FC3
:104A8000000000000000F07F0000000000000000B7
:104A9000000000000000F0FF0020CDE9020007E068
:104AA0000020014902E000BF0000F07FCDE90201D3
:104AB00001F056FC22210160002D1DBFDDE902013D
:104AC00081F0004141EC100B9DED020B51EC100BFD
:104AD0000AB0BDEC088BBDE8F48580B500200090DD
:104AE00053EC112B51EC100BFFF7B6FD41EC100B02
:104AF00001BD000000000000000000000000F0BF49
:104B000000000000000000800000000000000080A5
:104B10000000000000000000000000C05294EEBF42
:104B200000000048204E51BE000000F86467BCBC85
:104B30000000000000000000000000208133EDBFF5
:104B400000000080B3DB14BE000000506706A3BC69
:104B50000000000000000000000000D0E9DCEBBF16
:104B600000000008C39259BE00000080B0D3B8BC5A
:104B7000000000000000000000000070F98FEABF94
:104B8000000000C0A51028BE000000E8BFC0B0BCF7
:104B9000000000000000000000000070284CE9BF89
:104BA00000000060134B42BE000000C03D20B8BCB6
:104BB000000000000000000000000050FA10E8BFF4
:104BC000000000C05FF62BBE000000905C71A7BC27
:104BD000000000000000000000000020FCDDE6BF37
:104BE000000000C0F8F154BE00000018E9F6B9BC9E
:104BF0000000000000000000000000D0C3B2E5BFCC
:104C000000000070E43254BE00000050DB06B4BC6B
:104C1000000000000000000000000010EF8EE4BF64
:104C200000000020F36252BE000000C02A879ABC38
:104C30000000000000000000000000B02272E3BF8E
:104C4000000000F0E8E056BE00000028352DBDBC95
:104C50000000000000000000000000000A5CE2BF4D
:104C6000000000B0FA8E41BE00000040AE6FBDBC37
:104C7000000000000000000000000000564CE1BFF2
:104C8000000000F015CD5FBE00000000141C90BCB9
:104C9000000000000000000000000040BD42E0BF36
:104CA00000000030F93457BE000000E06C1E93BCD9
:104CB0000000000000000000000000E0F57DDEBF05
:104CC000000000B08A535EBE00000080DA77AABC04
:104CD0000000000000000000000000C09D81DCBF5B
:104CE00000000000FFA226BE0000006057E2B0BC3A
:104CF000000000000000000000000060F98FDABF33
:104D0000000000580A8151BE000000F05F60B8BC8E
:104D100000000000000000000000000098A8D8BFBC
:104D2000000000607A7F45BE000000D05433A3BC71
:104D30000000000000000000000000600FCBD6BFA4
:104D4000000000D091CB40BE000000406D1BA0BC15
:104D50000000000000000000000000A0FBF6D4BF2F
:104D600000000098C5CE52BE000000003A397EBC5B
:104D70000000000000000000000000E0FE2BD3BF98
:104D80000000004073872BBE00000000926879BCD1
:104D9000000000000000000000000040C069D1BF1A
:104DA00000000058F16353BE00000080438D7CBCBE
:104DB000000000000000000000000080D85FCFBFAE
:104DC000000000181F8354BE000000B03F42A2BC88
:104DD00000000000000000000000008067FCCBBF66
:104DE00000000060FAFF53BE00000050E00DB8BCA8
:104DF00000000000000000000000000098A8C8BFEC
:104E0000000000607A7F35BE000000C0543393BCC0
:104E1000000000000000000000000000DC63C5BFCF
:104E200000000058D6FF54BE00000000396490BC5A
:104E30000000000000000000000000C0AD2DC2BF57
:104E400000000080A45915BE000000E0484BABBC38
:104E50000000000000000000000000801A0BBEBF30
:104E600000000050BF3C5ABE000000A0B364B6BCB6
:104E700000000000000000000000008004D6B7BF62
:104E800000000040BBCF36BE0000008076CEA8BC3C
:104E900000000000000000000000008032BBB1BF35
:104EA000000000402A0043BE00000028C60CBDBC24
:104EB0000000000000000000000000009473A7BF85
:104EC000000000182B3B59BE000000C0E55DA5BCEA
:104ED000000000000000000000000000EE4397BF4B
:104EE000000000A0E6C340BE00000020958DB5BCC8
:104EF0000000000000000000000000000000008032
:104F000000000000000000800000000000000080A1
:104F100000000000000000005FF0FF0C1CEAD05110
:104F200014BF614506E0C110400721F0E04101F1E6
:104F30006051704779B900F0004100020AD0B0FA20
:104F400080FC00FA0CF001F16051A1EB0C5101EB77
:104F5000D0214005704741020CBF40F4E0016FF0E2
:104F60000001002070470000B0B581EA030C0CF08E
:104F7000004C40F2FF7515EA11541DBF15EA135796
:104F8000AC42AF4239E0E41923EA455343F48013BD
:104F9000C90241F0004141EA505EC7021100A7FB7F
:104FA000020200284FF00000EEFB01204FF000014C
:104FB000E3FB072118BF42F00102401800214941DC
:104FC000E3FB0E01A4F580640F0302D252004041BE
:104FD000494154F101046CDD470872F1004250F17F
:104FE000000051EB0451A1F580115CBF41EA0C01B6
:104FF000B0BD4CEA05510020B0BD05EA1357AC42E4
:1050000014BFAF4241E050EA410E1CBF52EA430ECA
:1050100002E061460020B0BD24423C441BD15FEA5F
:10502000070EF6D0090302BF01460020AEF1140EB0
:10503000B1FA81F7AEEB070401FA07FE0C37C7F1AE
:10504000200100FA07F7C8404EEA000E23EA455354
:1050500043F48013A2E733F00043B3FA83F704BFAD
:10506000B2FA82FE77440B3FE41BB7F1200E2FBF4C
:1050700002FA0EF3BB40C7F1200E22FA0EFE38BF33
:1050800043EA0E03BA40641C82E750EA410E14BFA3
:1050900052EA430E6FF000014FF4001717EB430F75
:1050A0008ABF194617EB410FB5E74CEA05510020BE
:1050B000B0BDD4F10104B4F120070FDAC4F1200728
:1050C000520828BF42F0010210FA07F501FA07F76B
:1050D000E1BF2A43E0403843E1400FE0352C98DC43
:1050E000C7F1200452EA400220FA07F218BF42F04A
:1050F000010231FA07F0A1400A43002172F1004297
:1051000050F1000051EB0C01B0BD00B583B000219F
:105110008DED000B00A801F0D3F89DED000B03B05E
:1051200000BD0000F446400D40EAC120490006D20F
:1051300000F00EF8004248BF6FF00040604700F0FA
:1051400007F84FF0004188428CBF08464042604754
:1051500040F00040490DA1F58061491C05D4D1F112
:105160001F0154BFC840C01770474FF00000704780
:105170002DE9F047044682B02078DFF8B857DFF811
:10518000B067C00625D5B06810F00C0F3AD1306872
:10519000C0F3400010B1A069002831D0306800078A
:1051A0004EBF30686868000900F0F001206A814253
:1051B00006D200F081FB002822D100F0DDF905E0E5
:1051C00000F0DAF9206A00F077FBC8B90F20FDF78C
:1051D000C6FE2078C00741F2893876D500F0D7FAAC
:1051E00007D000F0D9FA02BFF06800F003000328EE
:1051F0002ED100F0BDF9002867D06068002864D186
:105200000120A3E1A0690028306811D040F001001E
:1052100000F0A5F907463068C0F3400028B9FDF753
:10522000B5FEC01B6528F6D38DE100F0A5F9D0E7E7
:105230004008400000F093F907463068C0F3400092
:105240000028C6D0FDF7A2FEC01B6528F5D37AE181
:1052500000F088F920F4802000F081F9074600F082
:1052600087F928B1FDF792FEC01B4045F7D36AE1EC
:105270006068B0F5803F07D0B0F5A02F00F072F95C
:1052800006D140F480203060306840F4803001E086
:1052900020F480203060606858B1FDF777FE074643
:1052A00000F066F988B9FDF771FEC01B4045F7D3E1
:1052B00049E1FDF76BFE074600F05AF928B1FDF70A
:1052C00065FEC01B4045F7D33DE12078800718D527
:1052D00000F058FA07D000F05FFA02BFF06800F063
:1052E0000300022825D13068C0F3802010B1E068A7
:1052F000002885D07068216920F0F85040EA0160EC
:1053000070602078000748D560690028686834D04C
:1053100040F001006860FDF739FE07466868C0F399
:105320004000002839D1FDF731FEC01B6528F5D3B8
:1053300009E1E068002830680FD040F4807000F088
:105340000EF907463068C0F380200028D2D1FDF75F
:105350001DFEC01B6528F5D3F5E020F4807000F039
:10536000FEF807463068C0F380200028C9D0FDF75A
:105370000DFEC01B6528F5D3E5E0400840006860DD
:10538000FDF704FE07466868C0F3400028B1FDF74A
:10539000FDFDC01B6528F6D3D5E02078400773D506
:1053A000B06DC0004FF000090AD4B06D40F08050DD
:1053B000B0654FF00109B06D00F08050009000988A
:1053C000DFF874A5DAF80000C00512D4DAF800009E
:1053D00040F48070CAF80000FDF7D8FD0746DAF8FF
:1053E0000000C00505D4FDF7D1FDC01B6528F6D32C
:1053F000A9E0286800F0ACF82860FDF7C7FD074673
:105400002868C0F3400028B1FDF7C0FDC01B40452F
:10541000F6D398E0A06801280CD008B928680DE000
:10542000052828680AD1400840002860286840F014
:1054300004002860286840F0010001E000F088F8CE
:105440002860A06860B1FDF7A1FD07462868C0F399
:10545000400090B9FDF79AFDC01B4045F6D372E0BD
:10546000FDF794FD07462868C0F3400028B1FDF71A
:105470008DFDC01B4045F6D365E0B9F1000F03D0A8
:10548000B06D20F08050B065606A00285DD0B168D2
:1054900001F00C010C293FF4B3AE0228306820F073
:1054A000807030603AD1FDF771FD07463068C0F377
:1054B000406028B1FDF76AFDC01B6528F6D342E0C5
:1054C000E06A216B401E090241EA0010616B090984
:1054D00040EA4140A16A0843A16B891E0905490DB4
:1054E00040EA4150E16B891E090601F07E41084304
:1054F000F060306840F080703060F06840F080709C
:10550000F060FDF743FD07463068C0F34060E0B946
:10551000FDF73CFDC01B6528F6D314E0F068DFF80A
:105520001C1480088000F060F0680840F060FDF70F
:105530002DFD07463068C0F3406030B1FDF726FD11
:10554000C01B6528F6D3032000E00020BDE8F687E5
:10555000400840002860286820F004007047306050
:10556000FDF714BD306820F480303060306870473B
:105570003068C0F340407047306840F00800306049
:105580003068216A20F0F000084330607068E169FB
:1055900020F47F4040EA0120706070472DE9F84315
:1055A000DFF89C53DFF88863044628680F4600F054
:1055B0000700B84241F289385BD2002F18BF012F93
:1055C00004D0022F1CBF032F042F04D12868C00869
:1055D00047EAC00000E0286800F0C7F816D100F0E4
:1055E000E0F840F1A9806068022803D13168C1F376
:1055F00040410AE0032803D13168C1F3406104E06F
:105600000028316803D1C1F3400121B992E0C1F310
:1056100080210029FAD000F0AEF805466068022823
:1056200008D100F0B4F809D0FDF7B0FC401B4045AC
:10563000F7D36BE0032808D100F0AEF87CD0FDF77B
:10564000A5FC401B4045F7D360E048B9B06810F0B6
:105650000C0F71D0FDF79AFC401B4045F6D355E086
:1056600000F090F868D0FDF791FC401B4045F7D35F
:105670004CE000F096F84BD56068022803D1316801
:10568000C1F3404109E018B93168C1F3400104E0B9
:105690000328316803D1C1F3406121B94AE0C1F365
:1056A0008021002946D000F066F881466068022813
:1056B00009D100F06CF82BD0FDF768FCA0EB0900D5
:1056C0004045F6D322E0032809D100F065F81FD049
:1056D000FDF75CFCA0EB09004045F6D316E060B98D
:1056E000B06810F00C0F13D0FDF750FCA0EB0900D0
:1056F00041F288318842F3D308E000F043F807D044
:10570000FDF744FCA0EB09004045F6D303202AE056
:10571000002F18BF012F04D0022F1CBF032F042F0E
:1057200004D12868C00847EAC00000E0286800F0FB
:105730001CF801D0012016E02078400705D5B0689C
:10574000E16820F4E0600843B0602078000706D5E7
:10575000B068216920F4605040EAC100B0600F20B9
:10576000FDF7FDFB0020BDE8F2832860286800F00B
:105770000700B8427047B168890840EA8100B0600C
:10578000FDF704BCB06800F00C0004287047B06856
:1057900000F00C0008287047B06800F00C000C28DE
:1057A00070472078800705D5B068A16820F0F00028
:1057B0000843B0602078C00770475D498B680022BD
:1057C000002003F00C03042B08BF5F4827D08B6830
:1057D00003F00C03082B08BF5C4820D08B6813F043
:1057E0000C0F09D08B6803F00C030C2B02BFCB68A5
:1057F00003F00303012B12D10A68120704D4544AA0
:105800001268C2F3032202E00A68C2F30312514B8A
:1058100053F822208B6813F00C0F08BF10468B68DA
:1058200003F00C030C2B1ED1C868CB68C3F3021322
:105830005B1C00F00300022802D0032802D005E020
:10584000414800E04148B0FBF3F001E0B2FBF3F067
:10585000CA68C968C1F34161C2F30622491C5043BA
:105860004900B0FBF1F0704780B5FFF7A6FF354B5C
:10587000394A1B683949C3F303139A5C20FA02F3CF
:105880000B60086802BD80B5FFF7EEFF00F00EF870
:10589000C2F3022206E080B5FFF7E6FF00F006F84B
:1058A000C2F3C222125C21FA02F002BD254A12683C
:1058B00001460FF2B000704770B5294E82B0054620
:1058C00030680024C00002D501F09CF90EE0306879
:1058D00040F080503060306800F0805000900098B8
:1058E00001F090F9316821F080513160B0F5007F0E
:1058F00004D1812D0DD3A12D06D209E0812D28BF21
:10590000032406D2802D01D1022402E0702D00D1A3
:1059100001240B480168C90844EAC101016000681C
:1059200000F00700A04201D0012076BD002076BD26
:10593000001002409010024000700040FFFFEEFE99
:1059400000200240081002400024F40000127A00F7
:10595000941002403C9D00082C9D00083C0500204E
:10596000581002400000000001020304002201F070
:1059700051B9000010B51A4CB0B0206840F080500A
:105980002060206800F080500090009801F05CF9E1
:105990000C201F90002028900120249000202190AE
:1059A0001FA8FFF7E5FB08B1FDF7EEF94FF4003053
:1059B00001904FF400701E9001A801F04DF908B15C
:1059C000FDF7E2F9A06B40F40040A06300220F2134
:1059D0002920FCF7D7FA2920FCF7F1FA30B010BDE6
:1059E00058100240002201F0E9BB00002DE9F04F01
:1059F00080460FF2847095B092461D46D0E9002390
:105A0000CDE9132303AE00200391B0610DF13409F9
:105A100000E0A2440020ADF8020013AB4FF0FF32CB
:105A200051460DF1020001F0F8FB0446012C05DAA5
:105A30009AF80000441EA441E443E40FBDF80200BC
:105A400025280CBFA4F1010BA346BBF1010F0EDB0F
:105A5000574617F8011B0398C0470028039000F031
:105A6000CE81B069401CBBF1010BB061F1D1BDF832
:105A70000200252804D10020F0603061706105E04B
:105A80000028C6D1B069BCE140F001001AF8011F3E
:105A90002029F9D023290DD02B2904D02D2906D077
:105AA00030290AD00CE040F0020080B2EEE740F06E
:105AB0000400FAE740F00800F7E740F01000F4E7D0
:105AC0002A290FD12968296051F8042B2960002A5E
:105AD000326204D5514240F00400316280B20AF1D2
