:020000040800F2
:10000000B80D002045C50008FDC30008FFC3000867
:1000100000000000000000000000000000000000E0
:10002000000000000000000000000000832900081C
:1000300003C4000800000000AB29000805C4000844
:100040004B5200087B570008337C0008F37F000800
:1000500073880008D38B00084BA700080DC4000864
:1000600047B00008B3BE00087BC0000857C20008B4
:100070003FC400084FC4000800000000C7C40008C7
:100080000000000089C5000800000000000000001A
:100090008BC50008000000008DC500088FC5000852
:1000A00091C5000893C5000895C5000897C50008CC
:1000B00099C500089BC500089DC500089FC500089C
:1000C00038B5040068469A490A680260A068056865
:1000D000200000F02EFD012801D1012034E0042190
:1000E000200001F042FD002801D101202CE0402138
:1000F000200001F05DFD002801D1012024E0002155
:10010000200001F0DDFB002801D101201CE089481E
:1001100028600021200001F05CFC002801D10120B2
:1001200012E00021200000F0A5F9012801D10120F2
:100130000AE06946200000F026FA012801D10120DA
:1001400002E00120E070002032BD38B50400A06854
:100150000568200000F0EDFC012801D101203CE001
:10016000200000F041FF012801D1012035E02000EE
:1001700001F0A4FA012801D101202EE0200000F0B6
:10018000B5FF012801D1012027E0200001F032F95C
:10019000012801D1012020E0200001F0DCF9012834
:1001A00001D1012019E0200001F032F8012801D12D
:1001B000012012E0200001F08FF8012801D1012078
:1001C0000BE0200000F01FF8012801D1012004E01D
:1001D000002028600020E070002032BD10B504002F
:1001E000A06800682179012901D100200AE0016896
:1001F000200000F021FD012801D1012002E00120B2
:100200002071002010BD10B50400A068016820799D
:10021000002801D1002011E0200000F08DF8012815
:1002200001D101200AE00021200001F0D2FB0028CA
:1002300001D1012002E000202071002010BD80B516
:1002400000F06EFC02BD80B500F073FC02BD3EB54F
:1002500005000C000020009001A9280000F080FC9F
:10026000012801D1012028E06946280000F03AF871
:10027000012801D1012020E0019800B202F0F0FA3B
:10028000009902F008FB02F05FFB206001A8022148
:10029000405E02F0E5FA009902F0FDFA02F054FB2C
:1002A000606001A80421405E02F0DAFA009902F0D1
:1002B000F2FA02F049FBA06000203EBD1CB50C0024
:1002C000694600F04DFC012801D1012009E00098A9
:1002D00000B2208068464088608068468088A080A0
:1002E000002016BD10B582B00C00694601F061FB1C
:1002F000002801D101200DE068460078002806D0D2
:1003000004280ED0082806D00C2807D00CE0754829
:100310002060002016BD74482060FAE77348206012
:10032000F7E773482060F4E7724820600120F1E7A6
:1003300080C500080000D04210B582B00C006946AC
:1003400001F06AFB002801D101201DE06846007819
:10035000002816D0102818D0202819D030281AD0FC
:1003600040281BD050281CD060281DD070281ED0DB
:1003700080281FD0902820D0A02821D0B02822D0BB
:1003800024E000202060002016BD5B482060FAE7D2
:100390005A482060F7E75A482060F4E7594820603F
:1003A000F1E759482060EEE758482060EBE75848ED
:1003B0002060E8E757482060E5E7AD482060E2E7C5
:1003C000AC482060DFE7AC482060DCE749482060AB
:1003D0000120D9E780B50279012A06D1C9B200F01F
:1003E000E4FB012808D1012007E0C9B200F0FCFBC2
:1003F000012801D1012000E0002002BD80B5027972
:10040000012A05D100F018FC012807D1012006E0DF
:1004100000F05CFC012801D1012000E0002002BDB9
:1004200010B582B00C00694601F0C3FA002801D172
:1004300001200EE068460078002806D0042811D07C
:10044000082807D00C2809D010E08020C0052060C3
:10045000002016BD8120C0052060F9E78220C0057C
:100460002060F5E78320C0052060F1E72148206087
:100470000120EEE780B5C9B2002903D002290BD0D4
:1004800008D30BE00021C9B201F070FA002807D1AF
:10049000012006E00821F6E70C21F4E7012000E046
:1004A000002002BD80B502000800744902F06AFA1B
:1004B00001D200210CE0724902F064FA01D2082155
:1004C00006E0704902F05EFA01D20C2100E004213E
:1004D000C9B2100001F04AFA002801D1012000E061
:1004E000002002BD23DB793D23DBF93D23DB793E90
:1004F00023DBF93E000080BF000050410000D041E6
:10050000000050420000D042000050430000D043A1
:10051000004050440080CF4438B505000C0000A9CD
:10052000891C280001F08AFB002801D1012029E064
:1005300000A9491C280001F0B4FB002801D10120CA
:1005400020E06946280001F0DFFB002801D10120EE
:1005500018E068468078082801D1012000E00020DA
:10056000207068464078102801D1012000E000206A
:10057000607068460078202801D1012000E000204A
:10058000A070002032BD38B504000D002878012885
:1005900001D1082100E00021C9B2200001F02BFBAD
:1005A000002801D101201CE06878012801D1102128
:1005B00000E00021C9B2200001F050FB002801D169
:1005C00001200EE0A878012801D1202100E00021BF
:1005D000C9B2200001F075FB002801D1012000E024
:1005E000002032BD38B50400684691490A680260AF
:1005F000A0680568200000F09CFA012801D10120C4
:1006000034E00421200001F0B0FA002801D10120DB
:100610002CE04021200001F0CBFA002801D101207C
:1006200024E00021200001F04BF9002801D1012035
:100630001CE0A04828600021200001F063FA002897
:1006400001D1012012E00221200000F092F90128DE
:1006500001D101200AE06946200000F032FA0128A9
:1006600001D1012002E00120E070002032BD000035
:10067000002050450020D045004850460100004071
:10068000010080400100004138B50400A068056801
:10069000200000F04EFA012801D101200BE02000DB
:1006A00000F01FF8012801D1012004E0002028609B
:1006B0000020E070002032BD10B50400A068006882
:1006C0002179012901D100200AE00168200000F011
:1006D000BFFB012801D1012002E001202071002090
:1006E00010BD10B50400A06801682079002801D170
:1006F000002011E0200000F09DF8012801D1012028
:100700000AE00021200001F0FDF9002801D10120BC
:1007100002E000202071002010BD80B500F000FA3A
:1007200002BD80B500F005FA02BD3EB505000C0023
:100730000020009001A9280000F014FB012801D13D
:10074000012028E06946280000F03AF8012801D18C
:10075000012020E0019800B202F082F8009902F036
:100760009AF802F0F1F8206001A80221405E02F040
:1007700077F8009902F08FF802F0E6F8606001A8BF
:100780000421405E02F06CF8009902F084F802F057
:10079000DBF8A06000203EBD1CB50C00694600F0EF
:1007A000E1FA012801D1012009E0009800B220807F
:1007B00068464088608068468088A080002016BD1A
:1007C00038B504000D0000A9491C200001F057F9BC
:1007D000002801D1012006E068464078022803D1B4
:1007E0008A482860002032BD6946200001F07AF96D
:1007F000002801D10120F6E768460078002806D0DD
:10080000042807D0082808D00C2809D00BE080481D
:100810002860E7E77F482860E4E77F482860E1E751
:100820007E482860DEE77E4828600120DBE7000084
:1008300084C5000810B582B00C00694601F085F946
:10084000002801D1012017E068460078002810D068
:10085000102812D0202813D0302814D0402815D0CA
:10086000502816D0602817D0702818D0802819D0AA
:100870001BE000202060002016BD6A482060FAE7D7
:1008800069482060F7E769482060F4E7094820607C
:10089000F1E767482060EEE766482060EBE76648CE
:1008A0002060E8E765482060E5E75D4820600120BA
:1008B000E2E700000000D04280B50279012A06D1AB
:1008C000C9B200F074FA012808D1012007E0C9B2CA
:1008D00000F08CFA012801D1012000E0002002BDC7
:1008E00080B50279012A05D100F0B2FA012807D1BA
:1008F000012006E000F0E8FA012801D1012000E023
:10090000002002BD38B505000C006946280001F042
:10091000B6F8002801D101200FE000A9491C2800E9
:1009200001F0E0F8002801D1012006E068460078D7
:10093000022803D142482060002032BD684640783A
:10094000002806D0042807D0082808D00C2809D091
:100950000BE03C482060EFE73B482060ECE73B4879
:100960002060E9E73A482060E6E72D482060012052
:10097000E3E780B5C9B2002903D002290BD008D320
:100980000BE00021C9B201F08AF8002807D101204C
:1009900006E00421F6E70C21F4E7012000E0002046
:1009A00002BD38B5040008009F4901F0EBFF07D2F3
:1009B0000221200001F040F8002825D1012024E088
:1009C0009A4901F0DFFF01D200250CE0984901F0BF
:1009D000D9FF01D2042506E0964901F0D3FF01D2E8
:1009E000082500E00C250021200001F025F8002852
:1009F00001D1012009E02900C9B2200001F04FF81F
:100A0000002801D1012000E0002032BD00008C4010
:100A100000000C4100008C4100000C4200008C42A0
:100A2000000080BF000050410000D0410000504253
:100A3000000050430000D043004050440080CF44A9
:100A40000000FA42000075430000FA4300007A44B7
:100A50000000FA4438B505000C0000A9891C2800E4
:100A600001F0A8F9002801D1012029E000A9491CC2
:100A7000280001F0D2F9002801D1012020E06946C8
:100A8000280001F0FDF9002801D1012018E0684696
:100A90008078082801D1012000E0002020706846FD
:100AA0004078102801D1012000E0002060706846E5
:100AB0000078202801D1012000E00020A070002053
:100AC00032BD38B504000D002878012801D1082175
:100AD00000E00021C9B2200001F049F9002801D14D
:100AE00001201CE06878012801D1102100E00021DC
:100AF000C9B2200001F06EF9002801D101200EE0FA
:100B0000A878012801D1202100E00021C9B22000ED
:100B100001F093F9002801D1012000E0002032BD4E
:100B200080B500F013FF002801D1012000E0002073
:100B300002BD10B582B00400002069460870694605
:100B40002000FFF7EDFF012801D1012007E06846F2
:100B500000782178884201D0012000E0002016BDF5
:100B60001CB50C006946002200230CC108396946F7
:100B700001F00EFE002801D1012015E06846407802
:100B8000000269460978401820806846C078000253
:100B90006946897840186080684640790002694655
:100BA00009794018A080002016BD80B5C9B200297F
:100BB00006D002290ED00BD304290FD00CD30FE09E
:100BC0001021C9B200F005FF00280BD101200AE076
:100BD0001021F6E72021F4E73021F2E74021F0E789
:100BE000012000E0002002BD00B580680068C9B2A5
:100BF000002906D002290BD007D304290ED00AD32E
:100C00000FE055490160002000BD53490160FAE73B
:100C100052490160F7E752490160F4E783490160F6
:100C2000F1E70120F0E700000100FA4201007543FE
:100C30000100FA4301007A4480B5020008007C49B3
:100C400001F0A0FE01D2102136E07A4901F09AFEAF
:100C500001D2202130E0784901F094FE01D2302108
:100C60002AE0764901F08EFE01D2402124E0744949
:100C700001F088FE01D250211EE0724901F082FE8F
:100C800001D2602118E0704901F07CFE01D2702190
:100C900012E06E4901F076FE01D280210CE0884915
:100CA00001F070FE01D2902106E0A14901F06AFE38
:100CB00001D2A02100E0B021C9B2100000F089FEED
:100CC000002801D1012000E0002002BD80B5020013
:100CD000080091680A68564901F054FE01D21E4886
:100CE00036E0544901F04EFE01D21C4830E0524932
:100CF00001F048FE01D21A482AE0504901F042FEB4
:100D000001D24A4824E04E4901F03CFE01D26D4830
:100D10001EE04C4901F036FE01D2864818E04A49EF
:100D200001F030FE01D2844812E0484901F02AFE69
:100D300001D282480CE0624901F024FE01D28048D1
:100D400006E07B4901F01EFE01D27E4800E0A0488B
:100D50001060002002BD0000000050410000D041A2
:100D6000000050421CB50C006946002200230CC153
:100D70000839694601F0EBFC002801D1012015E09B
:100D80006846407800026946097840182080684625
:100D9000C0780002694689784018608068464079CA
:100DA0000002694609794018A080002016BD80B570
:100DB000C9B2002906D002290ED00BD304290FD0C6
:100DC0000CD30FE01021C9B200F09CFE00280BD11B
:100DD00001200AE01021F6E72021F4E73021F2E7B4
:100DE0004021F0E7012000E0002002BD00B580684E
:100DF0000068C9B2002906D002290BD007D3042904
:100E00000ED00AD30FE073490160002000BD714984
:100E10000160FAE770490160F7E770490160F4E7A3
:100E2000AB490160F1E70120F0E700000000D0428B
:100E3000010050410100D041010050420100D04268
:100E4000010050430100D043014050440180CF4491
:100E500080B502000800624901F094FD01D2102122
:100E600024E0604901F08EFD01D220211EE0994965
:100E700001F088FD01D2302118E0974901F082FD90
:100E800001D2402112E0954901F07CFD01D25021B0
:100E90000CE0934901F076FD01D2602106E0914912
:100EA00001F070FD01D2702100E08021C9B2100074
:100EB00000F028FE002801D1012000E0002002BD42
:100EC000012050450000504380B5020008009168A1
:100ED0000A68434901F056FD01D23E4824E04149E9
:100EE00001F050FD01D23C481EE07A4901F04AFD74
:100EF00001D23A4818E0784901F044FD01D2744823
:100F000012E0764901F03EFD01D277480CE07449C9
:100F100001F038FD01D2074806E0724901F032FDC8
:100F200001D2054800E005481060002002BD000025
:100F30000120D0450000D043004050440080CF4401
:100F4000002050450020D04510B50400AF492000D6
:100F5000FFF754FA012801D1012038E000212000D8
:100F600000F004FD002801D1012030E0062120001E
:100F700001F0CEFA002801D1012028E00021200054
:100F800001F07CFA002801D1012020E0002120009E
:100F900001F051FA002801D1012018E000212000C1
:100FA00001F024FA002801D1012010E003212000E3
:100FB00000F04FF8012801D1012008E010212000A5
:100FC00001F05CFB002801D1012000E0002010BDF1
:100FD00000485046000050410000D04100005042FF
:100FE000010050410100D04110B504000021200053
:100FF00001F044FB002801D1012010E00021200075
:1010000001F086FA002801D1012008E0002120002B
:1010100001F05BFA002801D1012000E0002010BDA2
:1010200010B582B00C00694600F06DFF002801D1B8
:10103000012008E068460078002805D0202806D165
:1010400001202070002016BD00202070FAE701204A
:10105000F9E780B5C9B201F038FA002801D10120C2
:1010600000E0002002BD10B504009A492000FFF7FF
:10107000C5F9012801D1012028E00021200000F05D
:1010800075FC002801D1012020E01721200000F08C
:1010900087F8012801D1012018E00421200000F088
:1010A000FFFE002801D1012010E04021200001F0C6
:1010B00077F8002801D1012008E08021200000F00D
:1010C00022FC002801D1012000E0002010BD00001A
:1010D0000000D042010050420100D04201005043C4
:1010E0000100D043014050440000504310B50400BB
:1010F0000021200000F007FC002801D1012018E0A9
:101100000021200001F04CF8002801D1012010E05E
:101110000021200000F0C4FE002801D1012008E0D9
:101120000021200000F03CF8012801D1012000E05E
:10113000002010BD10B582B00C00694600F084FF9D
:10114000002801D1012008E068460078002805D079
:10115000102806D101202070002016BD002020702C
:10116000FAE70120F9E780B501F033FB002801D14F
:10117000012000E0002002BD80B5022100F0D4FD76
:10118000002801D1012000E0002002BD80B500212F
:1011900000F0CAFD002801D1012000E0002002BDBE
:1011A00080B5C9B201F036FB002801D1012000E072
:1011B000002002BD10B5040046492000FFF71EF9CB
:1011C000012801D1012020E00021200000F0CEFB09
:1011D000002801D1012018E00421200000F060FE69
:1011E000002801D1012010E02021200000F0B5FFEF
:1011F000002801D1012008E00221200001F0D5F9EA
:10120000002801D1012000E0002010BD0000D043E3
:1012100010B504000021200001F0C7F9002801D119
:10122000012010E00021200000F097FF002801D1EC
:10123000012008E00021200000F032FE002801D14A
:10124000012000E0002010BD10B582B00C006946FE
:1012500000F00AFF002801D1012008E0684600786C
:10126000002805D0202806D101202070002016BDBE
:1012700000202070FAE70120F9E710B504005C496E
:101280002000FFF7BBF8012801D1012020E0002158
:10129000200000F06BFB002801D1012018E00021A4
:1012A000200001F0EBF8002801D1012010E002211C
:1012B000200001F053F8002801D1012008E020218E
:1012C000200001F0FEF9002801D1012000E00020FB
:1012D00010BD00000000D04110B504000021200026
:1012E00001F0EFF9002801D1012010E000212000D9
:1012F00001F0C4F8002801D1012008E000212000FD
:1013000001F02CF8002801D1012000E0002010BDE0
:1013100010B582B00C00694600F0E5FD002801D14F
:10132000012008E068460078002805D0082806D18A
:1013300001202070002016BD00202070FAE7012057
:10134000F9E780B5C9B201F009F8002801D1012000
:1013500000E0002002BD10B5040025492000FFF781
:101360004DF8012801D1012040E00021200000F0CB
:10137000FDFA002801D1012038E00821200000F00A
:10138000C9FE002801D1012030E00421200000F036
:101390009EFE002801D1012028E00221200000F05B
:1013A00073FE002801D1012020E00821200000F078
:1013B00037F9012801D1012018E00221200000F0B6
:1013C00039F9012801D1012010E00121200000F0AD
:1013D0003BF9012801D1012008E04021200001F063
:1013E00093F9002801D1012000E0002010BD000089
:1013F0000000D04310B504000021200001F084F962
:10140000002801D1012030E00021200000F008F97F
:10141000012801D1012028E00021200000F00AF974
:10142000012801D1012020E00021200000F00CF96A
:10143000012801D1012018E00021200000F024FE45
:10144000002801D1012010E00021200000F03FFE23
:10145000002801D1012008E00021200000F05AFE00
:10146000002801D1012000E0002010BD10B582B09D
:101470000C00694600F067FD002801D1012008E05A
:1014800068460078002805D0202806D10120207069
:10149000002016BD00202070FAE70120F9E710B502
:1014A000040085492000FEF7A9FF012801D1012091
:1014B00050E00021200000F059FA002801D101205D
:1014C00048E00821200000F025FE002801D101207D
:1014D00040E00421200000F0FAFD002801D10120A5
:1014E00038E00221200000F0CFFD002801D10120CA
:1014F00030E00821200000F093F8012801D10120FC
:1015000028E00321200000F095F8012801D10120F6
:1015100020E00321200000F097F8012801D10120EC
:1015200018E00821200000F099F8012801D10120DD
:1015300010E08021200000F036FF002801D10120BA
:1015400008E00821200001F076F8002801D10120F0
:1015500000E0002010BD10B504000021200001F0C3
:101560006AF8002801D1012040E00021200000F0AD
:1015700057F8012801D1012038E00021200000F0B7
:1015800059F8012801D1012030E00021200000F0AD
:101590005BF8012801D1012028E00021200000F0A3
:1015A0005DF8012801D1012020E00021200000F099
:1015B000FAFE002801D1012018E00021200000F0EF
:1015C00063FD002801D1012010E00021200000F07F
:1015D0007EFD002801D1012008E00021200000F05C
:1015E00099FD002801D1012000E0002010BD10B5B8
:1015F00082B00C00694600F096FC002801D1012061
:1016000008E068460078002805D0102806D101209F
:101610002070002016BD00202070FAE70120F9E7B5
:1016200080B5C9B200F0DFFD002801D1012000E043
:10163000002002BD80B5C9B200F01DFE002801D116
:10164000012000E0002002BD80B5C9B200F038FEE4
:10165000002801D1012000E0002002BD80B5C9B200
:1016600000F055FE002801D1012000E0002002BD5D
:1016700010B5040010492000FEF7C0FE012801D17A
:10168000012018E00021200000F070F9002801D1AD
:10169000012010E04021200000F0CAFD002801D107
:1016A000012008E00421200000F0A2FF002801D161
:1016B000012000E0002010BD0000D04310B5040060
:1016C0000021200000F094FF002801D1012008E053
:1016D0000021200000F0ACFD002801D1012000E035
:1016E000002010BD10B582B00C00694600F09CFCD3
:1016F000002801D1012008E068460078002805D0C4
:10170000402806D101202070002016BD0020207046
:10171000FAE70120F9E710B582B00C00694600F045
:1017200022FC002801D1012008E06846007800284A
:1017300005D0012806D101202070002016BD002010
:101740002070FAE70120F9E710B582B00C00694675
:1017500000F01AFC002801D1012008E0684600785A
:10176000002805D0022806D101202070002016BDD7
:1017700000202070FAE70120F9E710B582B00C00D4
:10178000694600F011FC002801D1012008E06846FC
:101790000078002805D0042806D101202070002000
:1017A00016BD00202070FAE70120F9E710B582B0DD
:1017B0000C00694600F008FC002801D1012008E077
:1017C00068460078002805D0082806D1012020703E
:1017D000002016BD00202070FAE70120F9E710B5BF
:1017E00082B00C00694600F0FFFB002801D1012007
:1017F00008E068460078002805D0102806D10120AE
:101800002070002016BD00202070FAE70120F9E7C3
:1018100010B582B00C00694600F0F6FB002801D13B
:10182000012008E068460078002805D0202806D16D
:1018300001202070002016BD00202070FAE7012052
:10184000F9E70268531C03601170704780B50123EB
:10185000C9B201F009F9002801D0002000E0012000
:1018600002BD04B501236A46C9B201F0F1F80028AF
:1018700001D0002000E0012002BD38B505000C00B9
:101880006A4601212800FFF7E1FF002801D100206E
:1018900015E0684600784006400E694608706846C4
:1018A00000780443684604706846027801212800E5
:1018B000FFF7D7FF002801D1002000E0012032BD52
:1018C00038B505000C006A460A212800FFF7BEFF64
:1018D000002801D1002015E068460078F821014079
:1018E000684601706846007804436846047068469C
:1018F00002780A212800FFF7B4FF002801D1002058
:1019000000E0012032BD38B505000C006A460D210B
:101910002800FFF79BFF002801D1002015E0684652
:1019200000784006400E6946087068460078044317
:1019300068460470684602780D212800FFF791FF81
:10194000002801D1002000E0012032BD10B50C00BC
:1019500022000F21FFF77AFF002801D1002004E0C8
:101960002078207020782070012010BD38B5050047
:101970000C006A4610212800FFF768FF002801D1FB
:10198000002015E068460078F321014068460170A8
:10199000684600780443684604706846027810215F
:1019A0002800FFF75EFF002801D1002000E00120A1
:1019B00032BD10B50C0022001021FFF747FF0028B0
:1019C00001D1002004E020780C2101402170012089
:1019D00010BD38B505000C006A4610212800FFF73D
:1019E00035FF002801D1002015E068460078000787
:1019F000000F694608706846007804436846047022
:101A00006846027810212800FFF72BFF002801D13B
:101A1000002000E0012032BD10B50C002200102192
:101A2000FFF714FF002801D1002004E02078F02106
:101A300001402170012010BD38B505000C006A4638
:101A400011212800FFF702FF002801D1002015E036
:101A500068460078FD2101406846017068460078BC
:101A60000443684604706846027811212800FFF795
:101A7000F8FE002801D1002000E0012032BD10B5A1
:101A80000C0022001121FFF7E1FE002801D1002007
:101A900004E02078022108402070012010BD38B5F4
:101AA00005000C006A4611212800FFF7CFFE002830
:101AB00001D1002015E068460078F3210140684616
:101AC00001706846007804436846047068460278EE
:101AD00011212800FFF7C5FE002801D1002000E0F9
:101AE000012032BD10B50C0022001121FFF7AEFE1F
:101AF000002801D1002004E020780C210140217051
:101B0000012010BD38B505000C006A4611212800DF
:101B1000FFF79CFE002801D1002015E06846007800
:101B20000007000F6946087068460078044368465D
:101B300004706846027811212800FFF792FE002801
:101B400001D1002000E0012032BD10B50C002200C0
:101B50001121FFF77BFE002801D1002004E020784E
:101B6000F02101402170012010BD38B505000C00A6
:101B70006A4612212800FFF769FE002801D10020E3
:101B800015E068460078FB21014068460170684610
:101B900000780443684604706846027812212800E1
:101BA000FFF75FFE002801D1002000E0012032BDD8
:101BB00038B505000C006A4612212800FFF746FEE2
:101BC000002801D1002015E068460078BF210140BF
:101BD00068460170684600780443684604706846A9
:101BE000027812212800FFF73CFE002801D10020D6
:101BF00000E0012032BD38B505000C006A4618210E
:101C00002800FFF723FE002801D1002015E06846D8
:101C10000078F72101406846017068460078044367
:101C2000684604706846027818212800FFF719FEFC
:101C3000002801D1002000E0012032BD10B50C00C9
:101C400022001821FFF702FE002801D1002004E045
:101C50002078082108402070012010BD38B505000B
:101C60000C006A4618212800FFF7F0FD002801D17A
:101C7000002015E068460078EF21014068460170B9
:101C80006846007804436846047068460278182164
:101C90002800FFF7E6FD002801D1002000E0012028
:101CA00032BD10B50C0022001821FFF7CFFD00282F
:101CB00001D1002004E0207810210840207001208C
:101CC00010BD38B505000C006A4618212800FFF742
:101CD000BDFD002801D1002015E068460078DF2115
:101CE0000140684601706846007804436846047005
:101CF0006846027818212800FFF7B3FD002801D1BB
:101D0000002000E0012032BD10B50C002200182197
:101D1000FFF79CFD002801D1002004E0207820215D
:101D200008402070012010BD38B505000C006A463F
:101D300019212800FFF78AFD002801D1002015E0B5
:101D400068460078FD2101406846017068460078C9
:101D50000443684604706846027819212800FFF79A
:101D600080FD002801D1002000E0012032BD38B5FF
:101D700005000C006A4619212800FFF767FD0028BE
:101D800001D1002015E068460078F721014068463F
:101D9000017068460078044368460470684602781B
:101DA00019212800FFF75DFD002801D1002000E087
:101DB000012032BD10B50C0022001921FFF746FDAD
:101DC000002801D1002004E020780821084020707C
:101DD000012010BD38B505000C006A461921280005
:101DE000FFF734FD002801D1002015E06846007897
:101DF000EF21014068460170684600780443684658
:101E000004706846027819212800FFF72AFD00288F
:101E100001D1002000E0012032BD10B50C002200ED
:101E20001921FFF713FD002801D1002004E02078DC
:101E3000102108402070012010BD38B505000C00AD
:101E40006A4619212800FFF701FD002801D1002072
:101E500015E068460078DF21014068460170684659
:101E60000078044368460470684602781921280007
:101E7000FFF7F7FC002801D1002000E0012032BD6F
:101E800010B50C0022001921FFF7E0FC002801D159
:101E9000002004E02078202108402070012010BD9F
:101EA00038B505000C006A4619212800FFF7CEFC62
:101EB000002801D1002015E068460078FB21014090
:101EC00068460170684600780443684604706846B6
:101ED000027819212800FFF7C4FC002801D1002056
:101EE00000E0012032BD10B50C0022001B21FFF7DD
:101EF000ADFC002801D1002004E020780821084032
:101F00002070012010BD10B50C0022001B21FFF72E
:101F10009DFC002801D1002004E020782021084009
:101F20002070012010BD10B50C0022001C21FFF70D
:101F30008DFC002801D1002004E020781021084009
:101F40002070012010BD10B50C0022001C21FFF7ED
:101F50007DFC002801D1002004E0207820210840E9
:101F60002070012010BD10B50C0022001D21FFF7CC
:101F70006DFC002801D1002005E020780100C90790
:101F8000C90F2170012010BD10B50C0022001D21C9
:101F9000FFF75CFC002801D1002004E0207802213A
:101FA00008402070012010BD10B50C0022001D213A
:101FB000FFF74CFC002801D1002004E02078042128
:101FC00008402070012010BD10B50C0022001D211A
:101FD000FFF73CFC002801D1002004E02078082114
:101FE00008402070012010BD10B50C0022001D21FA
:101FF000FFF72CFC002801D1002004E020781021FC
:1020000008402070012010BD10B50C0022001D21D9
:10201000FFF71CFC002801D1002004E020782021DB
:1020200008402070012010BD10B50C0022001D21B9
:10203000FFF70CFC002801D1002004E020784021AB
:1020400008402070012010BD10B50C002200532163
:10205000FFF7FCFB002801D1002004E020781021CC
:1020600008402070012010BD10B50C002200532143
:10207000FFF7ECFB002801D1002004E020782021AC
:1020800008402070012010BD38B505000C006A46DC
:1020900058212800FFF7DAFB002801D1002015E0C5
:1020A00068460078FD210140684601706846007866
:1020B0000443684604706846027858212800FFF7F8
:1020C000D0FB002801D1002000E0012032BD38B54E
:1020D00005000C006A4658212800FFF7B7FB0028CE
:1020E00001D1002015E068460078FB2101406846D8
:1020F00001706846007804436846047068460278B8
:1021000058212800FFF7ADFB002801D1002000E096
:10211000012032BD38B505000C006A465821280060
:10212000FFF794FB002801D1002015E068460078F5
:10213000F72101406846017068460078044368460C
:1021400004706846027858212800FFF78AFB0028AF
:1021500001D1002000E0012032BD38B505000C009F
:102160006A4658212800FFF771FB002801D10020A2
:1021700015E068460078DF21014068460170684636
:1021800000780443684604706846027858212800A5
:10219000FFF767FB002801D1002000E0012032BDDD
:1021A00038B505000C006A4658212800FFF74EFBA1
:1021B000002801D1002015E068460078BF210140C9
:1021C00068460170684600780443684604706846B3
:1021D000027858212800FFF744FB002801D1002095
:1021E00000E0012032BD38B505000C00E406E40E25
:1021F0006A4659212800FFF729FB002801D1002059
:1022000015E068460078E0210140684601706846A4
:102210000078044368460470684602785921280013
:10222000FFF71FFB002801D1002000E0012032BD94
:1022300038B505000C006A4659212800FFF706FB57
:10224000002801D1002015E0684600789F21014058
:102250006846017068460078044368460470684622
:10226000027859212800FFF7FCFA002801D100204C
:1022700000E0012032BD38B505000C00A407A40F12
:102280006A465A212800FFF7E1FA002801D1002010
:1022900015E068460078FC210140684601706846F8
:1022A0000078044368460470684602785A21280082
:1022B000FFF7D7FA002801D1002000E0012032BD4D
:1022C00038B505000C00A40020000C2404406A4628
:1022D0005A212800FFF7BAFA002801D1002015E0A2
:1022E00068460078F321014068460170684600782E
:1022F000044368460470684602785A212800FFF7B4
:10230000B0FA002801D1002000E0012032BD38B52C
:1023100005000C0024012000F02404406A465A21E4
:102320002800FFF793FA002801D1002015E0684645
:1023300000780007000F694608706846007804437B
:1023400068460470684602785A212800FFF789FA27
:10235000002801D1002000E0012032BD38B5050081
:102360000C00A406A40E6A465B212800FFF76EFA53
:10237000002801D1002015E068460078C021014006
:1023800068460170684600780443684604706846F1
:1023900002785B212800FFF764FA002801D10020B1
:1023A00000E0012032BD38B505000C006A465B2113
:1023B0002800FFF74BFA002801D1002015E06846FD
:1023C00000784006400E694608706846007804436D
:1023D00068460470684602785B212800FFF741FADE
:1023E000002801D1002000E0012032BD38B50500F1
:1023F0000C002407240F6A465C212800FFF726FA08
:10240000002801D1002015E068460078F021014045
:102410006846017068460078044368460470684660
:1024200002785C212800FFF71CFA002801D1002067
:1024300000E0012032BD38B505000C006A465C2181
:102440002800FFF703FA002801D1002015E06846B4
:102450000078EF2101406846017068460078044327
:1024600068460470684602785C212800FFF7F9F995
:10247000002801D1002000E0012032BD38B5050060
:102480000C0064012000602404406A465C2128009E
:10249000FFF7DCF9002801D1002015E0684600783C
:1024A0009F210140684601706846007804436846F1
:1024B0000470684602785C212800FFF7D2F90028F2
:1024C00001D1002000E0012032BD38B505000C002C
:1024D0006A465D212800FFF7B9F9002801D10020E4
:1024E00015E068460078F8210140684601706846AA
:1024F0000078044368460470684602785D2128002D
:10250000FFF7AFF9002801D1002000E0012032BD23
:1025100070B582B00600CD06ED0E0C00A406E40FE7
:10252000ED002800F82505406A465D213000FFF7E0
:102530008DF9002801D1002036E068460078400778
:10254000400F694608706846007805436846057084
:10255000684602785D213000FFF783F9002801D139
:10256000002021E0E401802004406A465C21300024
:10257000FFF76CF9002801D1002015E068460078CB
:102580004006400E69460870684600780443684675
:102590000470684602785C213000FFF762F9002879
:1025A00001D1002000E0012076BD38B505000C0007
:1025B0006A465E212800FFF749F9002801D1002072
:1025C00015E068460078FD210140684601706846C4
:1025D0000078044368460470684602785E2128004B
:1025E000FFF73FF9002801D1002000E0012032BDB3
:1025F00038B505000C006A465E212800FFF726F971
:10260000002801D1002015E068460078FB21014038
:10261000684601706846007804436846047068465E
:1026200002785E212800FFF71CF9002801D1002064
:1026300000E0012032BD38B505000C006A465E217D
:102640002800FFF703F9002801D1002015E06846B3
:102650000078F7210140684601706846007804431D
:1026600068460470684602785E212800FFF7F9F892
:10267000002801D1002000E0012032BD38B505005E
:102680000C006A465E212800FFF7E0F8002801D11F
:10269000002015E068460078EF210140684601708F
:1026A00068460078044368460470684602785E21F4
:1026B0002800FFF7D6F8002801D1002000E0012013
:1026C00032BD38B505000C006A465E212800FFF7D0
:1026D000BDF8002801D1002015E068460078DF2110
:1026E00001406846017068460078044368460470FB
:1026F000684602785E212800FFF7B3F8002801D170
:10270000002000E0012032BD38B505000C006A460B
:102710005E212800FFF79AF8002801D1002015E07B
:1027200068460078BF21014068460170684600781D
:10273000044368460470684602785E212800FFF76B
:1027400090F8002801D1002000E0012032BDF3B54F
:1027500081B002270024002600E0761CF6B2032E8A
:1027600014DA002501E0641C6D1CEDB2FFB2BD421D
:10277000F3D20298E4B2021921002231C9B20198C1
:10278000FFF764F80028EED1002000E00120FEBD34
:10279000F3B581B002270024002600E0761CF6B2D3
:1027A000032E14DA002501E0641C6D1CEDB2FFB2AB
:1027B000BD42F3D20298E4B2021921002831C9B215
:1027C0000198FFF743F80028EED1002000E0012037
:1027D000FEBDF3B581B002270024002600E0761C80
:1027E000F6B2002E14D1002501E0641C6D1CEDB280
:1027F000FFB2BD42F3D20298E4B2021921004B317C
:10280000C9B20198FFF722F80028EED1002000E0BD
:102810000120FEBD38B505000C0080212800FFF71F
:102820002CF86A460F212800FFF710F86846007858
:10283000E02101406846017068460078E106C90E53
:10284000014368460170684602780F212800FFF7AF
:1028500008F800212800FFF710F8012032BD200001
:102860009D2102000AD5F446524200F007F80122E9
:10287000D2071043604700009D2102000AD002D415
:10288000491E9218FCD5C905100A1206524100D300
:10289000012A4841704730B405004D400122D2075B
:1028A00015404B180418240E2ED01B0E32D0FF2CCE
:1028B00034D0FF2B3AD0E418000209021043114330
:1028C000000A090A9446C2B24A43000AC3B24B4303
:1028D000000A4843110A5B181A43D2B2190A0918B0
:1028E00001D44918641E080A7F3C23DBFE2C08DA59
:1028F000E40509061143634699416041284330BC11
:102900007047FF20C005F9E728001B0EFF2BF6D10A
:10291000D043F4E72800FF2CF1D1F9E74002F7D1CA
:10292000FF2B01D14902F3D1E005E7E7D8054902C1
:10293000E4D0EDE743020020641CDFD15B129B1C56
:10294000DCD9D805DAE700200122D2070118090EE8
:102950007F3910D449421F310FD4001805D2C0016D
:102960001043C84000D5D0437047C0011043C84051
:1029700005D440427047002070470042F3D5100054
:102980007047FEE70CB4012212060318DA4207D89A
:102990004B18DA4204D802000A43921802D2884245
:1029A0000CBC7047FCD08142FAE7FEE780B500F02E
:1029B00067F8002801D0012000E0002002BD0020BF
:1029C000704700B58BB07F480068012101437D4806
:1029D00001607C4800680100C907C90F0091009898
:1029E0001020069078480790022009900020089057
:1029F00006A9A020C00500F0F9F800220021072058
:102A000000F074FA072000F076FA6E4800680221A0
:102A100001436C4801606B48006802210840009047
:102A20000098012001906848029002200490002044
:102A3000039001A9654800F0D9F800220021052083
:102A400000F054FA052000F056FA00200BB000BD4B
:102A500080B59BB2C9B2407800F032F8002801D0AE
:102A6000012000E0002002BD80B59BB2C9B24078D1
:102A700000F046F8002801D0012000E0002002BD4F
:102A800080B5534800F046FC002810D15148504909
:102A9000486033204E49886001204D49C8604E4847
:102AA0004B49086000F053F8494800F039FA4848AB
:102AB00000F030FC012801D1002000E0012002BD1F
:102AC00010B584B0040000204448006802909BB216
:102AD000019300920123C9B20A0092B2E4B221002C
:102AE00089B23B4800F09EFAC0B2002805D0200011
:102AF000C0B200F025F8012000E0002004B010BDB5
:102B000010B584B0040000203448006802909BB2E5
:102B1000019300920123C9B20A0092B2E4B22100EB
:102B200089B22B4800F03AFBC0B2002805D0200043
:102B3000C0B200F005F8012000E0002004B010BD94
:102B400080B5234800F04AFAFFF79AFF01BD00B5AF
:102B500087B01C480068022101431A4801601948E7
:102B600000680221084000900098C0208000019079
:102B7000122002900220049000200390042005906F
:102B800001A9124800F032F8154800688021890335
:102B90000143134801601348006880218903014301
:102BA000104801600F4800680F4901400D4801605E
:102BB00000220021172000F099F9172000F09BF95E
:102BC00007B000BD2C10024000001110000400509E
:102BD000840700202E11B10000540040E8030020BB
:102BE0003810024028100240FFFFDFFFF0B502005E
:102BF00000230024002534E006201E00B607B60F8F
:102C000004277E43B040284305006B481E00B608E9
:102C100004277E43855167480568A5434868C0037B
:102C200000D525436348056064480568A5434868A6
:102C3000800300D525436148056061480568A543C8
:102C40004868C00200D525435D4805605D480568B9
:102C5000A5434868800201D52C43250059480560EA
:102C60005B1C0868D840002800D1A1E00868012456
:102C70009C400440002CF3D04868022802D04868E9
:102C800012281CD11800C008042568431018056AD2
:102C90000F201E007607760F04277E43B040854341
:102CA00008691E007607760F04277E43B04028434C
:102CB00005001800C0080426704310180562486813
:102CC000012808D04868022805D04868112802D099
:102CD000486812281AD1956803201E0002277E43F7
:102CE000B0408543C8681E0002277E43B040284399
:102CF0000500956055680120984085432E0048687E
:102D00000500ED06ED0F9D40354355601568032025
:102D10001E0002277E43B040854308798007800F5C
:102D20001E0002277E43B040284305001560D56889
:102D300003201E0002277E43B04085432F008D688C
:102D40001E0002204643B5403D43D5604868C000A0
:102D500086D52F480068012505432D480560164893
:102D60001D00AD080426754345590F201E00B60707
:102D7000B60F04277E43B0408543A020C0058242A1
:102D800001D1002039E72348824201D1012034E7F4
:102D90002148824201D102202FE72048824201D1FE
:102DA00003202AE71E48824200D025E7052024E7B9
:102DB000F0BD00000004014008000140040401408F
:102DC000080401400C04014000B5006989B20840C4
:102DD000002801D0012000E00020C0B200BD00B5F5
:102DE000D2B2002A02D089B2816101E089B2816247
:102DF00000BD80B50B49096880B20140002905D0AB
:102E000080B20849086080B201F0E8F901BD000015
:102E1000341002400004005000080050000C005024
:102E2000001C0050140401400121C006C00E814066
:102E3000354801607047F0B540B2002821D5334BCA
:102E400040B20207120F083A9208042462432F4C42
:102E500040B205072D0F083DAD080426754364599F
:102E6000FF258607B60F08277E43B540AC4389018E
:102E7000C9B28007800F08256843814021439950DB
:102E80001BE0234A40B203009B0804246343D2584A
:102E9000FF238407A40F08256C43A3409A438901AC
:102EA000C9B283079B0F0824634399401143184A12
:102EB00040B28008042358431150F0BD80B5411E34
:102EC00080225204914201D301200EE0401E11499C
:102ED000086003210020C043FFF7ADFF00200E492A
:102EE000086007200D490860002002BD80B540B28F
:102EF000FFF7A1FF01BD80B540B2FFF795FF01BD0F
:102F000080B5FFF7DBFF02BD00E100E01CED00E053
:102F100000E400E014E000E018E000E010E000E071
:102F200010B50400002C01D1012056E03520205CB2
:102F3000002805D1002034216054200000F06AF8F8
:102F400002203521605420680068012188432168EF
:102F5000086060683049014020680161206880682D
:102F60002E49014020688160A06800280FD0E068E9
:102F7000012806D1A06880210902014320688160F0
:102F800005E0A06884210902014320688160E068AF
:102F9000022803D180200001216848602068406831
:102FA0001F49014320684160206961690143A069AC
:102FB000000208432168C860E069216A0143206873
:102FC0000160206800680121014320680160002041
:102FD000A063012035342070002010BD10B504001E
:102FE000002C01D1012014E002203521605420681A
:102FF00000680121884321680860200000F00BF878
:103000000020A0630020352160540020343420705B
:10301000002010BD70477047FFFFFFF0FF7FFFFFEC
:1030200000800002F2B582B0040000253520205C4B
:10303000012800D0AFE0089F002F03D0099EB6B250
:10304000002E01D10120A7E020688069000401D58D
:103050000220A1E03420205C012801D102209BE065
:103060000120342160545220352160540020A06397
:103070000A9800909BB292B268460189200000F045
:103080004CF900280CD0A06B042804D10020343463
:103090002070012080E000203434207003207BE089
:1030A000B6B2FF2E0BDD0020009080235B04FF22D0
:1030B00068460189200000F0A7FAFF250CE00020F7
:1030C000009080239B043200D2B268460189200020
:1030D00000F09AFAB6B235000A99200000F0F0F933
:1030E000002806D0A06B042801D1012054E0032061
:1030F00052E03878216888627F1C6D1E761E002D94
:1031000028D1B6B2002E25D00A9B002280212000B3
:1031100000F08EF9002801D003203DE0B6B2FF2E6A
:103120000BDD0020009080235B04FF2268460189AC
:10313000200000F069FAFF250CE0002000908023B9
:103140009B043200D2B268460189200000F05CFA8C
:10315000B6B23500B6B2002EBED11921200000F063
:10316000DAF9002806D0A06B042801D1012013E071
:10317000032011E020202168C8612068406864496C
:103180000140206841600120352160540020343422
:103190002070002000E00220FEBD0000F2B582B0E9
:1031A000040000253520205C012800D0AEE0089FF7
:1031B000002F03D0099EB6B2002E01D10120A6E057
:1031C00020688069000401D50220A0E03420205C42
:1031D000012801D102209AE00120342160546220AC
:1031E000352160540020A0630A9800909BB292B2EF
:1031F00068460189200000F0D6F800280CD0A06BAA
:10320000042804D100203434207001207FE0002005
:103210003434207003207AE0B6B2FF2E0CDD90200B
:103220008001009080235B04FF2268460189200012
:1032300000F0EAF9FF250DE0902080010090802346
:103240009B043200D2B268460189200000F0DCF90C
:10325000B6B235000A9B00220421200000F0E8F8F5
:10326000002801D0032052E02068406A38707F1C9B
:103270006D1E761E002D28D1B6B2002E25D00A9BD9
:1032800000228021200000F0D3F8002801D0032084
:103290003DE0B6B2FF2E0BDD0020009080235B04E2
:1032A000FF2268460189200000F0AEF9FF250CE0FE
:1032B0000020009080239B043200D2B2684601892E
:1032C000200000F0A1F9B6B23500B6B2002EC1D18F
:1032D0001921200000F01FF9002806D0A06B042857
:1032E00001D1012013E0032011E020202168C861F2
:1032F000206840680649014020684160012035216E
:103300006054002034342070002000E00220FEBD14
:1033100000E800FE353000787047F8B5040015006D
:103320001F0080208001009080235B043A00D2B20D
:1033300089B2200000F068F9069E3100200000F0FC
:10334000BFF8002806D0A06B042801D1012029E095
:10335000032027E0BFB2012F03D1EDB220688562C0
:1033600015E0280080B2000AC0B2216888623100EE
:10337000200000F0A5F8002806D0A06B042801D199
:1033800001200FE003200DE0EDB2206885623300DC
:1033900000228021200000F04BF8002801D00320FB
:1033A00000E00020F2BDF8B5040015001F008020E9
:1033B0008001009000233A00D2B289B2200000F0D0
:1033C00023F9069E3100200000F07AF8002806D08C
:1033D000A06B042801D1012029E0032027E0BFB21F
:1033E000012F03D1EDB22068856215E0280080B27C
:1033F000000AC0B2216888623100200000F060F845
:10340000002806D0A06B042801D101200FE0032082
:103410000DE0EDB2206885623300002240212000DB
:1034200000F006F8002801D0032000E00020F2BDE3
:10343000F2B5040017001D0000F03FFF0600FFB2C8
:10344000002F1DD12068806900990140C803C00B7E
:103450000099C903C90B884230D00020C04385427F
:10346000F0D0002D04D000F028FF801B8542E9D267
:1034700001203521605400203434207003201EE0E8
:103480002068806900990140C803C00B0099C903F6
:10349000C90B884212D10020C0438542F0D0002DD4
:1034A00004D000F00AFF801B8542E9D201203521BB
:1034B0006054002034342070032000E00020F2BD6E
:1034C00070B504000E0000F0F8FE05002068806969
:1034D00080071ED43100200000F045F8002801D0FC
:1034E000012017E00020C0438642EFD0002E04D018
:1034F00000F0E3FE401B8642E8D2A06B202101438E
:10350000A163012035216054002034342070032051
:1035100000E0002070BD70B504000E00002500F032
:10352000CCFE05002068806980061AD43100200096
:1035300000F019F8002801D0012013E0002E04D07B
:1035400000F0BBFE401B8642ECD2A06B2021014361
:10355000A163012035216054002034342070032001
:1035600000E0002070BD70B505000C00002600F0E2
:10357000A4FE060028688069C00643D53520285C73
:10358000122807D03520285C522803D03520285C2B
:1035900062280AD128684068800106D428684068FB
:1035A0008021C9010143286841602868806980063C
:1035B00012D40020C0438442F7D0002C04D000F085
:1035C0007CFE801B8442F0D201203521685400200B
:1035D00034352870032016E010202968C8612020A7
:1035E0002968C8612868406812490140286841601C
:1035F0000420A86301203521685400203435287048
:10360000012000E0002070BD30B40024046864682C
:103610002500094C2C40250089B28905890DD2B2BC
:1036200012040A431343029C1C432C430068446069
:1036300030BC704700E800FE009800FC80B500F048
:103640000FFE00F04FFE002000F0D3FE012100200D
:1036500000F002FF00F074FF00F05CFD00F084FD5C
:1036600000F098FC62480078012807D100F0D4FCF3
:1036700001206049087000205D4908705E480078AC
:10368000012807D100F008FD00205A4908700020E9
:10369000594908705748007801283DD100F077F863
:1036A000AB48006800F0AAF8AA480078002803D1C7
:1036B000A948006800F0A2F8A848006800F06AF97C
:1036C000A7480078002803D1A648006800F062F9F6
:1036D000A548006800F01EFAA448006800F0C8FA87
:1036E000A348006800F044FBA248006800F040FBDB
:1036F000A1480078002803D1A048006800F038FBFA
:103700009F48006800F0C6FB9E480078002803D15F
:103710009D48006800F0BEFBFA20800000F0D0FD5C
:10372000A0E7F8B504000E0015001F002000FFF709
:103730000BF930602000002100F074FF08D83068D9
:10374000FFF78EF80100200000F0B8FF040006E04B
:103750003068FFF785F8210000F0B0FF0400380062
:1037600001F004F802000B000020884901F048FA3B
:1037700006000F00200001F05BFC32003B0001F06E
:1037800070FC01F030FD01F037FD2860F1BD00B59F
:1037900089B00020002203A97D4801F043FE0022E9
:1037A00002A97B4801F0F8FE982040000499401AD5
:1037B00064214843FF21323101F085FFC0B20190FE
:1037C00003A88078009003A843786846027BC64926
:1037D000C64801F0D3FFC54801F0ECFF0200C44B1E
:1037E00092B2C249C34802F02CF809B000BD0000F3
:1037F000F0030020B2090020AD09002010B58CB004
:10380000040004A9200002F060FC04A9491C200067
:1038100002F04EFC6846407C012800D096E009A9E1
:10382000200002F073FC012805D10020099000203F
:103830000A9000200B900B9803906846007C029041
:103840000A9801906846007C0090099B6846027CBB
:10385000A949A64801F092FFA44801F0ABFFA44B90
:10386000020092B2A149A34801F0EBFFA3480078FF
:1038700001286BD104A9891C200002F033FC012827
:1038800006D16846027C9E49984801F077FF07E020
:103890006846837C6846027C9A49944801F06EFF32
:1038A000924801F087FF0200914B92B28F499148F4
:1038B00001F0C7FF08A9200002F040FC012806D152
:1038C0006846027C9049894801F058FF0EE00323C6
:1038D00005AA06A90898FFF724FF05980090069B03
:1038E0006846027C8949814801F048FF7F4801F021
:1038F00061FF7F4B020092B27C497E4801F0A1FF3C
:1039000007A9200002F032FC012806D16846027C9B
:10391000D549764801F032FF0EE0032305AA06A937
:103920000798FFF7FEFE05980090069B6846027C0C
:1039300077496E4801F022FF6C4801F03BFF6C4B69
:10394000020092B269496B4801F07BFF0CB010BDD8
:1039500054090020AE090020580900205C0900200D
:10396000AF090020600900206409002068090020D8
:103970006C09002074090020B10900207C09002096
:1039800070090020B00900207809002000002440C0
:103990007408002010B58CB0040004A9200002F0C7
:1039A00012FD04A9491C200002F000FD6846407C7D
:1039B000012800D096E009A9200002F029FD012885
:1039C00005D10020099000200A9000200B900B9850
:1039D00003906846007C02900A9801906846007C3B
:1039E0000090099B6846027CA049404801F0C6FE51
:1039F0003E4801F0DFFE3E4B020092B23B493D489B
:103A000001F01FFF3D48007801286BD104A9891CF3
:103A1000200002F0E5FC012806D16846027C384906
:103A2000324801F0ABFE07E06846837C6846027CC2
:103A300034492E4801F0A2FE2C4801F0BBFE0200E2
:103A40002B4B92B229492B4801F0FBFE08A920001C
:103A500002F0F6FC012806D16846027C2A49234878
:103A600001F08CFE0EE0032305AA06A90898FFF7D3
:103A700058FE05980090069B6846027C23491B4827
:103A800001F07CFE194801F095FE194B020092B23C
:103A90001649184801F0D5FE07A9200002F0E8FCFD
:103AA000012806D16846027C6F49104801F066FE85
:103AB0000EE0032305AA06A90798FFF732FE059832
:103AC0000090069B6846027CA849084801F056FE13
:103AD000064801F06FFE064B020092B2034905480A
:103AE00001F0AFFE0CB010BD6CC30008F404002060
:103AF000881300007406002088C20008F10300202B
:103B0000BCC30008DCC3000814C5000850C400088A
:103B1000D8C4000810B58CB0040004A9200002F03D
:103B200066FD04A9491C200002F054FD6846407C53
:103B3000012800D096E009A9200002F07DFD0128AF
:103B400005D10020099000200A9000200B900B98CE
:103B500003906846007C02900A9801906846007CB9
:103B60000090099B6846027CC049C14801F006FEEE
:103B7000BF4801F01FFEBF4B020092B2BC49BE48D5
:103B800001F05FFEBD48007801286BD104A9891CB3
:103B9000200002F039FD012806D16846027CB849B0
:103BA000B34801F0EBFD07E06846837C6846027C81
:103BB000B449AF4801F0E2FDAD4801F0FBFD020061
:103BC000AC4B92B2AA49AC4801F03BFE08A92000D8
:103BD00002F04AFD012806D16846027CAA49A448A1
:103BE00001F0CCFD0EE0032305AA06A90898FFF713
:103BF00098FD05980090069B6846027CA3499C4866
:103C000001F0BCFD9A4801F0D5FD9A4B020092B23A
:103C10009749994801F015FE07A9200002F03CFDE4
:103C2000012806D16846027C0F49914801F0A6FDA3
:103C30000EE0032305AA06A90798FFF772FD059871
:103C40000090069B6846027C9149894801F096FDE8
:103C5000874801F0AFFD874B020092B28449864845
:103C600001F0EFFD0CB010BD24C50008B8C200087B
:103C700010B586B0040001A9200002F0D0FD01A912
:103C8000491C200002F0BEFD6846407901286AD137
:103C900004A9200002F0E8FD012801D100200490D1
:103CA000022302AA03A90498FFF73BFD02980090A3
:103CB000039B68460279B6496D4801F05FFD6C4888
:103CC00001F078FD6B4B020092B269496A4801F03D
:103CD000B8FD6A480078012845D101A9891C200057
:103CE00002F0AAFD012806D16846027964496048BD
:103CF00001F044FD07E0684683796846027961492E
:103D00005B4801F03BFD5A4801F054FD0200594B5D
:103D100092B25749584801F094FD05A9200002F0DD
:103D2000BBFD012806D1684602795749504801F089
:103D300025FD0EE0032302AA03A90598FFF7F1FC75
:103D400002980090039B684602795049484801F068
:103D500015FD474801F02EFD464B020092B2444942
:103D6000454801F06EFD06B010BD000068C40008B3
:103D700010B586B0040001A9200002F014FF01A9CB
:103D8000491C200002F002FF6846407901286AD1F0
:103D900004A9200002F02CFF012801D1002004908A
:103DA000022302AA03A90498FFF7BBFC0298009023
:103DB000039B68460279B7492D4801F0DFFC2C4887
:103DC00001F0F8FC2B4B020092B229492A4801F07D
:103DD00038FD2A480078012845D101A9891C200016
:103DE00002F0EEFE012806D16846027924492048F7
:103DF00001F0C4FC07E068468379684602792149EE
:103E00001B4801F0BBFC1A4801F0D4FC0200194B1E
:103E100092B21749184801F014FD05A9200002F0DC
:103E2000FFFE012806D1684602791749104801F0C3
:103E3000A5FC0EE0032302AA03A90598FFF771FC75
:103E400002980090039B684602791049084801F0E7
:103E500095FC074801F0AEFC064B020092B2044903
:103E6000054801F0EEFC06B010BD0000E8C20008F5
:103E7000F40400208813000074060020F1030020E1
:103E8000BCC30008DCC3000814C5000850C4000807
:103E900080C4000810B586B0040001A9200002F01B
:103EA000CEFF01A9491C200002F0BCFF6846407902
:103EB00001286AD104A9200002F0E6FF012801D1FF
:103EC00000200490022302AA03A90498FFF729FC0A
:103ED00002980090039B684602799E499E4801F033
:103EE0004DFC9D4801F066FC9C4B020092B29A4941
:103EF000B74801F0A6FC9A480078012845D101A9ED
:103F0000891C200002F0A8FF012806D1684602792A
:103F10009449914801F032FC07E06846837968468D
:103F20000279AA498C4801F029FC8B4801F042FC37
:103F300002008A4B92B28849A54801F082FC05A98B
:103F4000200002F0B9FF012806D168460279A14994
:103F5000814801F013FC0EE0032302AA03A905988F
:103F6000FFF7DFFB02980090039B684602799A49AD
:103F7000794801F003FC784801F01CFC774B020003
:103F800092B27549924801F05CFC06B010BD000089
:103F9000ECC4000880B59D49002001F07BFF9C49DE
:103FA000012001F077FF012802D101209949087012
:103FB0009949002002F0F2F89849012002F0EEF849
:103FC000012802D10120964908709649002002F08C
:103FD00067FA9549002002F077FB9449002002F02F
:103FE00073FC9349012002F06FFC9249022002F019
:103FF0006BFC012802D101208F4908708F490020F5
:1040000002F026FE8E49012002F022FE012802D194
:1040100001208C49087001BD80B57C48006802F021
:104020001FF87C480078002803D17948006802F026
:1040300017F87948006802F091F97948007800286B
:1040400003D17648006802F089F97648006802F0EA
:1040500099FA7548006802F0ADFB7448006802F0F8
:104060006DFD7348006802F069FD73480078002810
:1040700003D17048006802F061FD7048006802F0EA
:10408000A9FE70480078002803D16D48006802F04E
:10409000A1FE01BD00C5000880B55C48006801F0C4
:1040A000F3FF5C480078002803D15948006801F00C
:1040B000EBFF5948006802F065F95948007800287C
:1040C00003D15648006802F05DF95648006802F0D6
:1040D0006DFA5548006802F081FB5448006802F010
:1040E00041FD5348006802F03DFD53480078002828
:1040F00003D15048006802F035FD5048006802F0D6
:104100007DFE50480078002803D14D48006802F039
:1041100075FE01BD80B54C484C49086040204B49B4
:1041200048607F2049498860982040004749C8601E
:104130000020464908610020444988610020434925
:10414000C861424801F082F8002801D000F086F8EA
:1041500001BD000098C40008F4040020881300008A
:10416000F1030020BCC3000800B587B000206946F9
:10417000C870012069464870012069468870012096
:104180006946087001226946304801F081F900282B
:1041900001D000F063F8002069460871002001A9F1
:1041A0004870002001A98870002001A9C870002073
:1041B000049000200590012201A9244801F0A2F8F2
:1041C000002801D000F04AF807B000BDDCC30008A9
:1041D0007406002014C5000850C4000880B580B2E1
:1041E0008021890188420FD1002000F086F9012842
:1041F0000AD117480078002803D10120154908701A
:1042000002E001201449087001BD0000540900209B
:1042100058090020AE0900205C0900206009002038
:10422000AF09002064090020680900206C09002003
:10423000740900207C090020B109002070090020C9
:1042400078090020B00900200028004074080020F0
:10425000B2090020F0030020AD09002000B5FEE700
:1042600080B51E480068402101431C4801601B487E
:1042700000680221884319490860032000F005F80E
:1042800000F002F8002002BD704710B5040003F0F2
:10429000A2FAFA21890001F019FAFEF731FE002294
:1042A00021000020C043FEF721FE002010BD0C4875
:1042B0000068401C0A490860704709480068704758
:1042C00011B581B00024FFF7F8FF0400FFF7F5FFF8
:1042D000001B01998842F9D313BD00000020024061
:1042E0008009002000B593B01C4800688021490572
:1042F00001431A4801601A4800681A4901408020A9
:10430000000108431649086002200590012008902A
:104310001020099002200F90002010908020C002F1
:1043200011908020C003129005A802F0DDFD0F203F
:1043300000900320019000200290002003900020B4
:1043400004900121684603F0A1F8074800680121A4
:1043500001430548016013B000BD00BF38100240A2
:1043600000700040FFE7FFFF34100240F0B540B29C
:10437000002821D5684B40B20207120F083A920874
:1043800004246243644C40B205072D0F083DAD087C
:10439000042675436459FF258607B60F08277E4318
:1043A000B540AC438901C9B28007800F0825684336
:1043B0008140214399501BE0584A40B203009B08BA
:1043C00004246343D258FF238407A40F08256C43B9
:1043D000A3409A438901C9B283079B0F0824634312
:1043E000994011434D4A40B280080423584311506C
:1043F000F0BD10B586B004004948006801210143B2
:1044000047480160464800680100C907C90F00918C
:1044100000984448E4B202216143405A01900120CF
:104420000290012003900320049001A93E48E4B2C9
:10443000042262438058FEF7D9FB00223948E4B2D7
:1044400002216143415A3848E4B204235C430059D5
:10445000FEF7C5FC06B010BD30B587B004000D00F6
:104460002F480068042101432D4801602C48006852
:1044700004210840009000982C4800680121014365
:104480002A480160EDB2002D13D12948E4B202217F
:104490006143405A019000200290022003900320C3
:1044A000049001A92348E4B2042262438058FEF735
:1044B0009DFBEDB2012D1ED11D48E4B202216143E6
:1044C000405A0190002003901B48029001A919480E
:1044D000E4B2042262438058FEF788FB03211748A8
:1044E000E4B2005D40B2FFF741FF1448E4B2005D62
:1044F00040B2FEF700FD07B030BD80B50C49C0B238
:1045000002224243895A0B4AC0B20423584310582E
:10451000FEF75AFC02BD00001CED00E000E400E0E4
:104520002C1002405E280008DC03002034100240FA
:1045300046290008E003002000001110A0C5000873
:1045400000B587B030480068012101432E48016062
:104550002D4800680100C907C90F009100982A483A
:1045600000680121014328480160274800680100D4
:10457000C907C90F0091009824480068802189026A
:104580000143224801600420019002200290002093
:104590000390022004900420059001A9A020C005EA
:1045A000FEF724FB082001900420059001A9A0201B
:1045B000C005FEF71BFB1648164908601648006840
:1045C0001449486000201349886000201149C860E0
:1045D00000201049086100200E4988610C200D4917
:1045E00048610C4801F0EEF8002800D0FEE70B48C7
:1045F0000849486580204000094908800020054995
:10460000C86607B000BD00BF2C1002403810024041
:10461000004400407406002074C50008F403002024
:10462000CC0600200CB4012212060318DA4207D887
:104630004B18DA4204D802000A43921802D281428F
:104640000CBC7047FCD088420CBC70470122D207DA
:1046500003004B402ED4431A01D2C01AC91830B4FB
:104660004B180418240E1B0E22D0FF2C20D0E31A66
:10467000182B1DDC09021143C40D641E00021043F7
:1046800094461925ED1A0A00AA40D940451801D3CD
:104690006D08A41CE405D209280A2D062A436546A4
:1046A000AA41604103181B0EFF2B01D3C00DC005AA
:1046B00030BC7047514006E05140CCE70122D207A0
:1046C00003004B40F8D4431A03D2C01AC918504013
:1046D000514030B44B18090211430418240E1B0E2C
:1046E00040D0FF2C3AD025009D410BD31ED8C50DDC
:1046F0004002401A0BD3ED050100400AC905914163
:104700006841D5E7C50D40024918401AD0D00121B3
:104710004008491C0018FCD58C4204D36D1A000ACD
:10472000ED054019C4E7E8051040C1E7182DBFDCCE
:10473000AC1C0D00E140E5414D40012D4941C40D47
:1047400000021043451A01D46D199543641EE40517
:10475000280A2D069541604130BC7047FF2BA7D138
:10476000D843A5E72442A3D10020A1E7010009D541
:10477000F446404200F006F80122D2071143604798
:10478000010000BF42221201D21E004207D002D413
:10479000521E0018FCD5C10A400512058918704741
:1047A000F8B50FB48AB00CA803C804AA03C20B98CA
:1047B0004000400D784988420CD1002069460880AD
:1047C0000B98000304D10A98002801D1012518E0B4
:1047D000022516E0012808DA0AA803F03BF80128B0
:1047E00003DB002569460D800BE00B99BE4A0A40A9
:1047F000C34911430B916946BC4A801A08800025C1
:10480000ED43002104A803F047F8040014980028A1
:1048100002D0002014990880002C06D10CA80CC8E6
:104820000020002103F07EF815D0002D16D5009E43
:1048300036B2012E16D10AA803C80022B04B03F0ED
:1048400071F808D0012C0DD10AA80CC80020A84985
:1048500003F068F82ED10020A649B9E1022D03D15A
:104860000AA804E0012C5CDB022C02D10CA803C8CE
:10487000AEE1012D1CD10B9800280D9802D4002820
:104880004CD535E0002809D4002C47D10021C9437C
:1048900004A803F001F8002840D53CE0002C27D103
:1048A0000021C94304A802F0F7FF002820D51BE02F
:1048B000012C0AD1009E36B20D98002802D4012E98
:1048C0002CDA15E0012E13DA28E00D98002812D416
:1048D000002C0DD10021C94304A802F0DDFF0028FF
:1048E00006D50B98002803D50020802109066FE12A
:1048F000002000216CE103F027F822210160002C48
:104900000CD10021C94304A802F0C6FF002805D538
:104910000B98002802D50020AE4959E10020B74984
:1049200056E10B98002809D5002C07D503F00CF8A8
:10493000212101600020C043410849E10AA803C8C1
:104940000022002303F008F802D269468A800DE0B5
:104950000AA803C88022120651400AAA03C20021F5
:10496000C94304A802F098FF69468880012E15D13A
:104970000AA803C898A20CCA03F007F80ED20024B4
:1049800000265C4F0AA80CC800208021C90500F051
:1049900068FB0AAA03C21CE0FF0700000AA80CC8B3
:1049A00000208F4900F05DFB0022554B03F006F814
:1049B00000F022FC0400203C2000FFF7D7FE00227C
:1049C000884B00F04EFB00224D4B02F0F7FF060033
:1049D0000F0000BF8EA06101401806900AA803C80E
:1049E00032003B0003F04DF804000D000AA803C894
:1049F00032003B0002F0E2FF02000B002000290021
:104A000003F0B6F804AA03C204A803C804AA0CCA97
:104A100000F027FB08AA03C20AA830C008A803C8F0
:104A200003F008F908AA0CCA00F01BFB0AAA0CCA7A
:104A300003F027F804000D0000202E4932003B004F
:104A400003F01FF800228023DB0500F00AFB2200A0
:104A50002B0002F0B3FF04AA0CCA00F002FB020014
:104A60000B000AA803C802F0A9FF08AA03C208A8FD
:104A700003C85FA20CCA03F07BF804AA03C2009823
:104A800000B2FFF773FE06000F00069803C832005D
:104A90003B0002F093FF04AA0CCA02F08FFF04AAA5
:104AA00003C20CA80CC804A803C800F0DAFA02AAD2
:104AB00003C202A803C800224B4B02F066FF73D367
:104AC00002A803C80122494B02F046FF6FD902A891
:104AD00003C80022002302F058FF02A80CC80BD222
:104AE000002003490EE000BFFFFF0F80FE0300001F
:104AF0000000E0BF0000F03F0020014902E000BFDD
:104B00000000E03F02F05AFF00F076FB040008A826
:104B100003C80CAA0CCA00F0A4FA02AA03C20698A1
:104B2000083003C8069A10320CCA02F047FF0CAADC
:104B30000CCA00F096FA2EA20CCA00F092FA02AA51
:104B40000CCA02F03BFF02AA03C2069803C8320057
:104B50003B0002F033FF0CAA0CCA00F082FA0600F8
:104B60000F002000FFF702FE02000B0030003900AA
:104B700002F087FF1EA20CCA00F073FA02AA0CCA48
:104B800002F01CFF02AA03C21498002801D004807E
:104B9000002400940022184B02A803F09DF800287E
:104BA00002D0012803D00AE00020002101E000200B
:104BB000124902AA03C202F0C7FE22210160019835
:104BC00000B2002802A803C802D080221206514079
:104BD0000FB0F0BD0000F0FFCD3B7F669EA0E63F2A
:104BE000000050400000903F0000E0C00000E040A6
:104BF000EF39FAFE422EE63F0000F03F0000F07F62
:104C000010B582B000240094FFF7CAFD1CBD00005F
:104C1000000000000000F0BF000000000000008065
:104C20000000000000000080000000000000000004
:104C3000000000C05294EEBF00000048204E51BE5C
:104C4000000000F86467BCBC000000000000000029
:104C5000000000208133EDBF00000080B3DB14BEF4
:104C6000000000506706A3BC000000000000000028
:104C7000000000D0E9DCEBBF00000008C39259BE81
:104C800000000080B0D3B8BC0000000000000000AD
:104C900000000070F98FEABF000000C0A51028BE18
:104CA000000000E8BFC0B0BC000000000000000031
:104CB00000000070284CE9BF00000060134B42BEAA
:104CC000000000C03D20B8BC000000000000000053
:104CD00000000050FA10E8BF000000C05FF62BBED5
:104CE000000000905C71A7BC000000000000000004
:104CF00000000020FCDDE6BF000000C0F8F154BE5B
:104D000000000018E9F6B9BC000000000000000037
:104D1000000000D0C3B2E5BF00000070E43254BE12
:104D200000000050DB06B4BC0000000000000000E2
:104D300000000010EF8EE4BF00000020F36252BEBE
:104D4000000000C02A879ABC00000000000000009C
:104D5000000000B02272E3BF000000F0E8E056BEA1
:104D600000000028352DBDBC000000000000000040
:104D7000000000000A5CE2BF000000B0FA8E41BEF5
:104D800000000040AE6FBDBC00000000000000004D
:104D900000000000564CE1BF000000F015CD5FBEE2
:104DA00000000000141C90BC000000000000000087
:104DB00000000040BD42E0BF00000030F93457BEA3
:104DC000000000E06C1E93BC00000000000000002A
:104DD000000000E0F57DDEBF000000B08A535EBE3B
:104DE00000000080DA77AABC00000000000000008C
:104DF000000000C09D81DCBF00000000FFA226BEB5
:104E00000000006057E2B0BC00000000000000009D
:104E100000000060F98FDABF000000580A8151BE1F
:104E2000000000F05F60B8BC00000000000000005F
:104E30000000000098A8D8BF000000607A7F45BE3F
:104E4000000000D05433A3BC0000000000000000AC
:104E5000000000600FCBD6BF000000D091CB40BE59
:104E6000000000406D1BA0BC00000000000000001E
:104E7000000000A0FBF6D4BF00000098C5CE52BED3
:104E8000000000003A397EBC000000000000000075
:104E9000000000E0FE2BD3BF0000004073872BBE54
:104EA00000000000926879BC0000000000000000D3
:104EB00000000040C069D1BF00000058F16353BE3C
:104EC00000000080438D7CBC00000000000000005A
:104ED00000000080D85FCFBF000000181F8354BEC1
:104EE000000000B03F42A2BC000000000000000033
:104EF0000000008067FCCBBF00000060FAFF53BEDB
:104F000000000050E00DB8BC0000000000000000F0
:104F10000000000098A8C8BF000000607A7F35BE7E
:104F2000000000C0543393BC0000000000000000EB
:104F300000000000DC63C5BF00000058D6FF54BE6F
:104F400000000000396490BC000000000000000078
:104F5000000000C0AD2DC2BF00000080A45915BEE6
:104F6000000000E0484BABBC000000000000000067
:104F7000000000801A0BBEBF00000050BF3C5ABEAC
:104F8000000000A0B364B6BC0000000000000000F8
:104F90000000008004D6B7BF00000040BBCF36BE83
:104FA0000000008076CEA8BC0000000000000000D9
:104FB0000000008032BBB1BF000000402A0043BEA9
:104FC00000000028C60CBDBC00000000000000006E
:104FD000000000009473A7BF000000182B3B59BECF
:104FE000000000C0E55DA5BC00000000000000005E
:104FF00000000000EE4397BF000000A0E6C340BEE3
:1050000000000020958DB5BC0000000000000000ED
:105010000000000000000080000000000000008090
:105020000000000000000080000000000000000000
:10503000012212060118CA420AD28A420DD8382229
:10504000120609098918C20FD20711434007704799
:1050500000D049080909014301E0C10FC907002038
:105060007047F0B50E005E400125ED072E40B446B6
:10507000AE0ADF184C18F44208D2F7420ED2640D83
:1050800001D07F0D12D100206146F0BD05D1F7425D
:1050900001D87F0D05D10020C143F0BDFBD1640DC7
:1050A000F9D00020C143490549088FE0E419C9023D
:1050B000DB0229432B43DB0A460DC00231438E46F7
:1050C00030B487B295B27D432E0CADB2140C7C4344
:1050D000A419260C240425439CB27C43A419190C62
:1050E0007943270CC919A4B20F043C43090C000CE6
:1050F00097B247432E0CBE193543ADB2170C474348
:10510000360CBF19A6B2BF193E043543240C3E0C21
:1051100036199FB24743BF19BCB23E0C89191F0C08
:1051200047437F183E043443390C704680B297B22F
:1051300047432E0CBE193543ADB2170C4743360C0E
:10514000BF19A6B2BF193E043543240C3E0C3619D4
:105150009FB24743BF19BCB23E0C89191F0C47438D
:105160007F183E043443390C77463F0C90B27843A5
:105170002E0C80190604ADB22E43050CA0B22D18DA
:10518000120C7A435019020C80B2240CA4189AB263
:105190007A43121914042043120C89181B0C7B4308
:1051A000C91830BCEF0A394203D1B6194041494110
:1051B000641E6F12BF0DE41B0BDBFF19BC4211DA3A
:1051C000240500274208AE417841614166463143DB
:1051D000F0BD641C05D1401C6141CF0201D34908D8
:1051E000F4E750E75DE783B50021684602F054FB21
:1051F000684603C803B000BDF4464A1805D200F063
:105200000FF801D580174008604700F009F8012128
:10521000C907884200D90800404260474A1812D2A4
:10522000400DC90208430121C9070843520D40211E
:105230000901521A521C06D452421F3201D4D040E6
:105240007047C017704700207047FEE710B5040094
:10525000002C01D1012054E02120205C002805D140
:10526000002020216054200002F092FE0220212123
:105270006054CA2021684862532021684862200097
:1052800000F0D2F9002807D0FF20216848620420EE
:1052900021342070012034E0206880687B4901407F
:1052A0002068816020688068616822690A43A1697A
:1052B0001143014320688160E0682168086120682B
:1052C0000069A16809040143206801612068C06881
:1052D000802188432168C8602068C06C032188430E
:1052E0002168C8642068C06CE16962690A430243AE
:1052F0002068C264FF2021684862012021342070A8
:10530000002010BDF8B504000D0000262020205C10
:10531000012801D1022084E00120202160540220D4
:1053200021216054002A1BD120688068400601D4E6
:105330000020E870287800F097F90700687800F0FE
:1053400093F90600A87800F08FF9FFB23904F6B29D
:1053500032020A43C0B21043E9780E04064314E057
:1053600020688068400604D5287800F089F9060096
:1053700001E00020E8702878000469780902014300
:10538000A8780843E9780E040643CA2021684862D9
:10539000532021684862200000F046F900280AD016
:1053A000FF2021684862042021216054002020341D
:1053B0002070012035E08C4830402168086020686A
:1053C00080688A4901402068816020688068E968B7
:1053D0002A690A430243206882602068C0688021ED
:1053E00088432168C8602068806880060FD4200048
:1053F00000F000F900280AD0FF202168486204204C
:1054000021216054002020342070012009E0FF2079
:10541000216848620120212160540020203420703E
:105420000020F2BD10B50C0000210168896A61609E
:10543000016809694904490CA160006800686A496B
:1054400001400800000C8006800E20700800000A51
:105450004006400E607008004006400EA070080034
:10546000000C40210840E070002A0BD1207800F0A9
:1054700007F92070607800F003F96070A07800F000
:10548000FFF8A070002010BD00000000BFFF8FFFDC
:10549000F8B504000D0000262020205C012801D171
:1054A000022077E001202021605402202121605455
:1054B000002A07D16878C00604D56878EF2101403A
:1054C0000A316970002A15D1E87800F0CDF807009C
:1054D000687800F0C9F80600A87800F0C5F8FFB2B7
:1054E0003904F6B232020A43C0B2104329784E039F
:1054F000064311E0687800F0C3F80600A87800F0D1
:10550000BFF80600E8780004697809020143A8782A
:10551000084329784E030643CA2021684862532075
:1055200021684862200000F07FF800280AD0FF20A0
:10553000216848620420212160540020203420701A
:10554000012027E02A483040216848602068C06870
:10555000802188432168C8602068806880060FD455
:10556000200000F047F800280AD0FF202168486298
:10557000042021216054002020342070012009E003
:10558000FF2021684862012021216054002020343E
:1055900020700020F2BD000010B50C000021006852
:1055A0004068134901400800000CE0700800000A40
:1055B000C006C00E607008008006800EA070080053
:1055C000400B4007400F2070002A0BD1E07800F01C
:1055D00057F8E070607800F053F86070A07800F041
:1055E0004FF8A070002010BD7F7F7F00FFFFFBFF02
:1055F0003FFFFF0038B5040000252068C068A021E7
:1056000088432168C860FEF758FE05002068C0681E
:10561000800607D4FEF751FE401B12498842F5D39D
:10562000032000E0002032BD38B5040000252068CA
:10563000C068400612D40020C0432168C860FEF74D
:105640003CFE05002068C068400607D4FEF735FE22
:10565000401B04498842F5D3032000E0002032BDFE
:1056600000000000E903000000B5002101E0491C32
:105670000A38C0B20A28FADA09010843C0B200BDEC
:1056800000210100C9B20909C9B20A225143C0B2BE
:105690000007000F0818C0B27047F446002804D471
:1056A000494200F013F8404260474042002905D4C7
:1056B0005FD000F00BF8404249426047494200F099
:1056C00005F84942604703460B43E6D40022030A2B
:1056D0008B420BD203098B4219D243088B422ED244
:1056E000411A00D20146524110467047FF2209027A
:1056F0003FD012068B4205D3121209028B4201D30E
:105700001212090203098B4219D300E0090AC309E6
:105710008B4201D3CB01C01A524183098B4201D382
:105720008B01C01A524143098B4201D34B01C01A6D
:10573000524103098B4201D30B01C01A5241C308E5
:105740008B4201D3CB00C01A524183088B4201D354
:105750008B00C01A524143088B4201D34B00C01A40
:105760005241884200D3401A5241CFD201461046DE
:10577000704708B502F03CFC08BDFEE70CB41CB550
:10578000040004A80190009401AB0A00694608488F
:1057900078441C3002F02EFC0021009A1170002881
:1057A00001D40098001B02B0019910BC03B0084757
:1057B00093C0FFFF010000E0491C0A78002AFBD1DA
:1057C000081A704710B50400002C01D1012033E005
:1057D000A0690028FFD16920205C002805D10020A5
:1057E00068216054200000F02BF8022069216054E9
:1057F000206800680121884321680860200000F0CB
:1058000091F8606A002802D0200000F03FFA20687A
:1058100040680A49014020684160206880682A2168
:10582000884321688860206800680121014320685E
:105830000160200000F0F6F910BD0000FFB7FFFF87
:10584000704770B505000C001E006920285C012817
:1058500003D06920285C222861D1002C02D092B2AA
:10586000002A01D101205BE06820285C012801D1D9
:10587000022055E00120682168540020E866692074
:10588000285C222803D132206921685402E01220CA
:105890006921685450202A5252202A5205E020885B
:1058A000C005C00D29688862A41C5220285A00280F
:1058B0001BD05220285A401E522168523300002229
:1058C0008021280000F05AFA002801D0032027E0A8
:1058D000A86880214901884202D128690028DED0C9
:1058E000207829688862641CDFE7330000224021A9
:1058F000280000F043FA002801D0032010E06920BE
:10590000285C322803D122206921685402E001205A
:1059100069216854002068352870002000E00220CA
:1059200070BD0000F8B50400002200210022002014
:105930002268B64B9A42FFD0A26823691343656977
:105940001D43E2692A4323681B68B14D1D402A4369
:1059500023681A6022685268AE4B1340E2681A430B
:1059600023685A60A2692368A84DAB4202D0130095
:10597000226A1A4323689B68A74D1D402A43236867
:105980009A602268A54B9A4214D1A54A12689207E0
:10599000920F002A05D0022A05D006D3032A06D08A
:1059A00007E0012140E002213EE004213CE0082123
:1059B0003AE039E02268B04B9A4215D1984A126811
:1059C0000C231340002B06D0042B08D0082B04D046
:1059D0000C2B06D007E0002126E0022124E0042160
:1059E00022E0082120E01FE02268884B9A421BD168
:1059F0008B4A1268C0231B011340002B0CD080225D
:105A0000D20093420CD080221201934206D0C022D1
:105A10001201934206D007E0002105E0022103E0D5
:105A2000042101E00821FFE72268784B9A4267D100
:105A3000002906D002291CD004293AD0082950D0C8
:105A40005DE001F0D8FEFEF79BFE00228B4BFFF7D6
:105A500008FB06000F006068FEF792FE02000B00D4
:105A60003000390002F084F8FFF7D8FB2168C860E5
:105A7000CBE083480068C0060DD56068FEF780FE65
:105A800002000B0000207F4902F072F8FFF7C6FB0E
:105A90002168C8600CE06068FEF772FE02000B002F
:105AA0000020794902F064F8FFF7B8FB2168C8606C
:105AB000ABE001F037FEFEF763FE00226F4BFFF70D
:105AC000D0FA06000F006068FEF75AFE02000B00D5
:105AD0003000390002F04CF8FFF7A0FB2168C860E5
