:020000040800F2
:10000000800D002031CE0008F1CC0008F3CC0008B0
:1000100061CE000865CE000869CE0008000000002F
:100020000000000000000000000000006DCE00088D
:10003000F5CC00080000000071CE0008F7CC0008E5
:1000400075CE000879CE00087DCE000881CE00086C
:1000500085CE000889CE00088DCE000891CE00081C
:1000600095CE000899CE00089DCE0008A1CE0008CC
:10007000A5CE0008A9CE0008ADCE0008B1CE00087C
:10008000B5CE0008B9CE0008BDCE000800000000C3
:10009000000000000000000000000000C1CE0008C9
:1000A000C5CE0008C9CE0008CDCE0008D1CE0008CC
:1000B000D5CE0008D9CE0008DDCE0008E1CE00087C
:1000C000E5CE0008E9CE0008EDCE0008F1CE00082C
:1000D000F5CE0008F9CE0008FDCE000800000000B3
:1000E000FFCC000801CF000805CF00080000000089
:1000F00000000000000000000000000009CF000820
:10010000000000000DCF000811CF000815CF000837
:1001100000000000000000000000000000000000DF
:1001200019CF00081DCF000821CF000825CF0008F7
:1001300029CF0008000000000000000000000000BF
:100140000000000000000000000000002DCF0008AB
:1001500031CF000835CF000839CF00083DCF000867
:1001600041CF000845CF000800000000000000005B
:10017000000000000000000000000000000000007F
:100180000000000049CF000800000000000000004F
:100190004DCF000870B582B0040000A8DFF85C1AEB
:1001A0000A680260A5682E68200000F09CFD012806
:1001B00001D1012035E00421200001F0E0FE0028FB
:1001C00001D101202DE04021200001F0FBFE00289C
:1001D00001D1012025E00021200001F06FFD002861
:1001E00001D101201DE0DFF81C0C3060002120004F
:1001F00001F0F1FD002801D1012012E000212000D2
:1002000000F0E1F9012801D101200AE000A9200055
:1002100000F060FA012801D1012002E00120E07025
:10022000002076BD70B50400A5682E68200000F09F
:100230005AFD012801D101203CE0200001F086F8A0
:10024000012801D1012035E0200001F01DFC01282A
:1002500001D101202EE0200001F0F2F8012801D1A7
:10026000012027E0200001F08CFA012801D10120B3
:1002700020E0200001F03CFB012801D1012019E021
:10028000200001F07CF9012801D1012012E02000BA
:1002900001F0E4F9012801D101200BE0200000F079
:1002A00020F8012801D1012004E000203060002066
:1002B000E070002070BD70B50400A5682E6820793C
:1002C000012801D100200BE096ED000A200000F08B
:1002D000A3FD012801D1012002E0012020710020AE
:1002E00070BD70B50400A5682E682079002801D182
:1002F000002012E03100200000F0A3F8012801D115
:1003000001200AE00021200001F065FD002801D154
:10031000012002E000202071002070BD38B50400EB
:100320000D002900200000F0D1FC32BD10B5040002
:10033000200000F0D8FC10BD3EB504000D000020E8
:10034000009001A9200000F0E5FC012801D1012066
:1003500032E000A9200000F047F8012801D1012077
:100360002AE0BDF9040000EE100AB8EEC00ADDED87
:10037000000A20EE200ABDEEC00A85ED000ABDF994
:10038000060000EE100AB8EEC00ADDED000A20EE0D
:10039000200ABDEEC00A85ED010ABDF9080000EE95
:1003A000100AB8EEC00ADDED000A20EE200ABDEE0C
:1003B000C00A85ED020A00203EBD30B583B00400BE
:1003C0000D0000A9200000F0A5FC012801D10120AA
:1003D00009E0BDF800002880BDF802006880BDF883
:1003E0000400A88000203EBD38B504000D0000A91F
:1003F000200001F0DEFC002801D1012020E09DF862
:100400000000002806D0042810D0082806D00C28A8
:1004100008D00FE0DFF8DC0A286010E0DFF8D80A27
:1004200028600CE0DFF8D40A286008E0DFF8D00A82
:10043000286004E0DFF8A80B2860012000E000201D
:1004400032BD38B504000D0000A9200001F0E6FC23
:10045000002801D101204FE09DF80000002816D0AF
:10046000102817D0202819D030281BD040281DD0A4
:1004700050281FD0602821D0702823D0802825D074
:10048000902827D0A02829D0B0282BD02EE00020FB
:10049000286030E0DFF84C0B28602CE0DFF8480BD8
:1004A000286028E0DFF8440B286024E0DFF85409D6
:1004B000286020E0DFF8380B28601CE0DFF8340B00
:1004C000286018E0DFF8300B286014E0DFF8300B0C
:1004D000286010E0DFF82C0B28600CE0DFF82C0B14
:1004E000286008E0DFF8280B286004E0DFF8F00A55
:1004F0002860012000E0002032BD38B504000D0066
:100500002079012808D12900C9B2200000F02DFC73
:1005100001280AD1012009E02900C9B2200000F019
:100520004DFC012801D1012000E0002032BD10B5B2
:100530002DED028B0400B0EE408A2079012808D10D
:10054000B0EE480A200000F067FC01280AD1012023
:1005500009E0B0EE480A200000F0D4FC012801D1E7
:10056000012000E00020BDEC028B10BD38B5040076
:100570000D0000A9200001F01CFC002801D1012081
:1005800020E09DF80000002806D0042810D008289C
:1005900006D00C2808D00FE05FF08040286010E003
:1005A0005FF0814028600CE05FF08240286008E046
:1005B0005FF08340286004E0DFF8240A286001200F
:1005C00000E0002032BD70B504000D00EDB2002D3A
:1005D00003D0022D07D003D308E00020060007E077
:1005E0000820060004E00C20060001E0012009E0DC
:1005F0003100C9B2200001F0B9FB002801D101206F
:1006000000E0002070BD000038B52DED028B040025
:10061000B0EE408A9FED6B0AB4EE408AF1EE10FA1C
:1006200001D5002512E09FED680AB4EE408AF1EE94
:1006300010FA01D5082509E09FED640AB4EE408A5E
:10064000F1EE10FA01D50C2500E004252900C9B20D
:10065000200001F08BFB002801D1012000E00020E8
:10066000BDEC028B32BD38B504000D000DF1020166
:10067000200001F0EDFC002801D1012029E00DF15E
:100680000101200001F019FD002801D1012020E026
:1006900000A9200001F046FD002801D1012018E04A
:1006A0009DF80200082801D1012000E000202870F8
:1006B0009DF80100102801D1012000E000206870A1
:1006C0009DF80000202801D1012000E00020A87042
:1006D000002032BD38B504000D002878012801D172
:1006E000082100E00021C9B2200001F08EFC0028A2
:1006F00001D101201CE06878012801D1102100E01F
:100700000021C9B2200001F0B5FC002801D1012070
:100710000EE0A878012801D1202100E00021C9B213
:10072000200001F0DCFC002801D1012000E00020C5
:1007300032BD70B582B0040000A8DFF8381B0A682B
:100740000260A5682E68200000F0CDFA012801D1D2
:10075000012035E00421200001F011FC002801D126
:1007600001202DE04021200001F02CFC002801D1C7
:10077000012025E00021200001F0A0FA002801D18D
:1007800001201DE0DFF87C0B30600021200001F02B
:10079000C1FB002801D1012012E00221200000F05D
:1007A000C7F9012801D101200AE000A9200000F0CA
:1007B0005EFA012801D1012002E00120E070002052
:1007C00076BD0000010000400100804001000041B2
:1007D00070B50400A5682E68200000F084FA012896
:1007E00001D101200BE0200000F020F8012801D108
:1007F000012004E0002030600020E070002070BD87
:1008000070B50400A5682E682079012801D1002068
:100810000BE096ED000A200000F086FC012801D1D3
:10082000012002E001202071002070BD70B504009D
:10083000A5682E682079002801D1002012E031003F
:10084000200000F0B4F8012801D101200AE00021C5
:10085000200001F05FFB002801D1012002E0002010
:100860002071002070BD38B504000D002900200063
:1008700000F02CFA32BD10B50400200000F033FA6D
:1008800010BD3EB504000D000020009001A920001D
:1008900000F0C8FB012801D1012032E000A92000AE
:1008A00000F047F8012801D101202AE0BDF9040039
:1008B00000EE100AB8EEC00ADDED000A20EE200AB4
:1008C000BDEEC00A85ED000ABDF9060000EE100A73
:1008D000B8EEC00ADDED000A20EE200ABDEEC00A27
:1008E00085ED010ABDF9080000EE100AB8EEC00A55
:1008F000DDED000A20EE200ABDEEC00A85ED020AF9
:1009000000203EBD30B583B004000D0000A92000DA
:1009100000F088FB012801D1012009E0BDF80000AA
:100920002880BDF802006880BDF80400A88000207F
:100930003EBD38B504000D000DF10101200001F0AD
:10094000A2FA002801D1012030E09DF80100022820
:1009500003D1DFF8E409286027E000A9200001F0B6
:10096000C7FA002801D1012020E09DF800000028EE
:1009700006D0042808D008280AD00C280CD00FE094
:10098000DFF8B809286010E0DFF8B40928600CE04F
:10099000DFF8B009286008E0DFF8AC09286004E05F
:1009A000DFF83C062860012000E0002032BD38B5A9
:1009B00004000D0000A9200001F0CFFA002801D1A9
:1009C00001203DE09DF80000002810D0102811D033
:1009D000202813D0302815D0402817D0502819D0FF
:1009E00060281BD070281DD080281FD022E0002056
:1009F000286024E0DFF8EC05286020E0DFF8E80557
:100A000028601CE0DFF8E405286018E0DFF8F40354
:100A1000286014E0DFF8D805286010E0DFF8D4057E
:100A200028600CE0DFF8D005286008E0DFF8D0058A
:100A3000286004E0DFF8A8052860012000E000201D
:100A400032BD38B504000D002079012808D12900F5
:100A5000C9B2200000F011FB01280AD1012009E0F1
:100A60002900C9B2200000F031FB012801D101208A
:100A700000E0002032BD10B52DED028B0400B0EE79
:100A8000408A2079012808D1B0EE480A200000F001
:100A90004BFB01280AD1012009E0B0EE480A2000F2
:100AA00000F098FB012801D1012000E00020BDECFE
:100AB000028B10BD38B504000D0000A9200001F024
:100AC000E2F9002801D1012031E00DF101012000FF
:100AD00001F00EFA002801D1012028E09DF8000065
:100AE000022803D1DFF8600B28601FE09DF80100A9
:100AF000002806D0042808D008280AD00C280CD0DA
:100B00000FE0DFF8480B286010E0DFF8440B2860A6
:100B10000CE0DFF8400B286008E0DFF83C0B2860B1
:100B200004E0DFF8BC042860012000E0002032BDB2
:100B300070B504000D00EDB2002D03D0022D07D0DA
:100B400003D308E00020060007E00420060004E0CC
:100B50000C20060001E0012009E03100C9B22000AC
:100B600001F0A3F9002801D1012000E0002070BDB0
:100B700038B52DED028B0400B0EE408A9FEDA20A3D
:100B8000B4EE408AF1EE10FA07D50221200001F000
:100B900057F900282ED101202DE09FED9C0AB4EEDC
:100BA000408AF1EE10FA01D5002512E09FED980A77
:100BB000B4EE408AF1EE10FA01D5042509E09FED6C
:100BC000950AB4EE408AF1EE10FA01D5082500E04E
:100BD0000C250021200001F033F9002801D101206B
:100BE00009E02900C9B2200001F05FF9002801D115
:100BF000012000E00020BDEC028B32BD58CE000881
:100C000038B504000D000DF10201200001F0E2FAF8
:100C1000002801D1012029E00DF10101200001F09F
:100C20000EFB002801D1012020E000A9200001F0E6
:100C30003BFB002801D1012018E09DF802000828A4
:100C400001D1012000E0002028709DF8010010284B
:100C500001D1012000E0002068709DF800002028EC
:100C600001D1012000E00020A870002032BD38B57D
:100C700004000D002878012801D1082100E000219E
:100C8000C9B2200001F083FA002801D101201CE044
:100C90006878012801D1102100E00021C9B22000AC
:100CA00001F0AAFA002801D101200EE0A87801285D
:100CB00001D1202100E00021C9B2200001F0D1FAC9
:100CC000002801D1012000E0002032BD38B5040029
:100CD0000D002900200001F037F8002801D1012083
:100CE00000E0002032BD10B582B0040000208DF875
:100CF000000000A92000FFF7E9FF012801D1012031
:100D000007E09DF800002178884201D0012000E032
:100D1000002016BD30B583B004000D0000A80021EE
:100D2000002206C0083800A9200001F067FF002853
:100D300001D1012018E09DF8010000029DF800108B
:100D400050FA81F028809DF8030000029DF80210FF
:100D500050FA81F068809DF8050000029DF80410AB
:100D600050FA81F0A88000203EBD70B504000D004F
:100D7000EDB2002D06D0022D0AD006D3042D0DD0E1
:100D800009D30EE0102006000DE0102006000AE056
:100D90002020060007E03020060004E04020060086
:100DA00001E0012009E03100C9B2200001F013F890
:100DB000002801D1012000E0002070BD10B4020025
:100DC00093681C68C9B2002906D002290AD006D34C
:100DD00004290DD009D30FE0824820600EE081483D
:100DE00020600BE08048206008E08048206005E03B
:100DF000DFF81005206001E0012000E0002010BCB9
:100E0000704700000000D0420100FA420100754323
:100E10000100FA4301007A4438B52DED028B04003D
:100E2000B0EE408A9FED750AB4EE408AF1EE10FAFA
:100E300001D5102551E09FED740AB4EE408AF1EE21
:100E400010FA01D5202548E09FED720AB4EE408AE1
:100E5000F1EE10FA01D530253FE09FED6F0AB4EEB8
:100E6000408AF1EE10FA01D5402536E09FED6B0A7D
:100E7000B4EE408AF1EE10FA01D550252DE09FED39
:100E8000A60AB4EE408AF1EE10FA01D5602524E0FE
:100E90009FEDA20AB4EE408AF1EE10FA01D570255A
:100EA0001BE09FED9F0AB4EE408AF1EE10FA01D5E7
:100EB000802512E09FED9B0AB4EE408AF1EE10FA15
:100EC00001D5902509E09FEDC20AB4EE408AF1EE0B
:100ED00010FA01D5A02500E0B0252900C9B22000F4
:100EE00000F079FF002801D1012000E00020BDECD6
:100EF000028B32BD23DB793D23DBF93D23DB793ED9
:100F000023DBF93E01008A681368DFED3C0AB4EE8A
:100F1000600AF1EE10FA02D5F2EE0A0A5BE0DFEDAC
:100F20003A0AB4EE600AF1EE10FA02D5F3EE0A0ABC
:100F300051E0DFED380AB4EE600AF1EE10FA02D5A6
:100F4000DFED2A0A47E0DFED340AB4EE600AF1EE85
:100F500010FA02D5DFED320A3DE0DFED300AB4EEE3
:100F6000600AF1EE10FA02D5DFED210A33E0DFED81
:100F70006A0AB4EE600AF1EE10FA02D5DFED1D0A3E
:100F800029E0DFED660AB4EE600AF1EE10FA02D550
:100F9000DFED190A1FE0DFED620AB4EE600AF1EE40
:100FA00010FA02D5DFED160A15E0DFED5E0AB4EEA9
:100FB000600AF1EE10FA02D5DFED120A0BE0DFED68
:100FC000840AB4EE600AF1EE10FA02D5DFED0F0AE2
:100FD00001E0DFED0F0AC3ED000A002070470000BA
:100FE000000080BF000050410000D041000050428E
:100FF000000050430000D0430040504401005041E5
:101000000080CF44002050450100D0410020D04551
:1010100000485046010050420100D04201005043B8
:101020000000D04230B583B004000D0000A80021BC
:10103000002206C0083800A9200001F0B4FD0028F5
:1010400001D1012018E09DF8010000029DF8001078
:1010500050FA81F028809DF8030000029DF80210EC
:1010600050FA81F068809DF8050000029DF8041098
:1010700050FA81F0A88000203EBD70B504000D003C
:10108000EDB2002D06D0022D0AD006D3042D0DD0CE
:1010900009D30EE0102006000DE0102006000AE043
:1010A0002020060007E03020060004E04020060073
:1010B00001E0012009E03100C9B2200000F02AFF60
:1010C000002801D1012000E0002070BD10B4020012
:1010D00093681C68C9B2002906D002290CD007D336
:1010E000042910D00CD311E0DFF8940920600FE040
:1010F000DFF88C0920600BE0DFF88809206007E04A
:101100008848206004E07F48206001E0012000E082
:10111000002010BC704700000100D0430140504443
:101120000180CF440120504538B52DED028B0400DD
:10113000B0EE408A9FED740AB4EE408AF1EE10FAE8
:1011400001D5102536E09FED710AB4EE408AF1EE2C
:1011500010FA01D520252DE09FED6D0AB4EE408AEE
:10116000F1EE10FA01D5302524E09FED6A0AB4EEC5
:10117000408AF1EE10FA01D540251BE09FED660A8A
:10118000B4EE408AF1EE10FA01D5502512E09FED41
:10119000630AB4EE408AF1EE10FA01D5602509E049
:1011A0009FED5F0AB4EE408AF1EE10FA01D570258A
:1011B00000E080252900C9B2200000F0ABFE002825
:1011C00001D1012000E00020BDEC028B32BD000007
:1011D0000120D04501008A681368DFED4B0AB4EEA8
:1011E000600AF1EE10FA02D5F2EE0A0A3DE0DFEDF8
:1011F000470AB4EE600AF1EE10FA02D5F3EE0A0ADD
:1012000033E0DFED430AB4EE600AF1EE10FA02D5E6
:10121000DFED440A29E0DFED3F0AB4EE600AF1EEAB
:1012200010FA02D5DFED370A1FE0DFED3B0AB4EE1E
:10123000600AF1EE10FA02D5DFED3B0A15E0DFEDB2
:10124000370AB4EE600AF1EE10FA02D5DFED370A84
:101250000BE0DFED330AB4EE600AF1EE10FA02D5CE
:10126000DFED330A01E0DFED330AC3ED000A0020B1
:10127000704700005CCE000810B504009FED2B0AFB
:101280002000FFF754F9012801D1012038E00021A6
:10129000200000F06BFD002801D1012030E0062184
:1012A000200001F061FB002801D1012028E000218D
:1012B000200001F010FB002801D1012020E00021D6
:1012C000200001F0E5FA002801D1012018E00021FA
:1012D000200001F0B8FA002801D1012010E003211C
:1012E000200000F06AF8012801D1012008E0102157
:1012F000200001F0EFFB002801D1012000E00020D8
:1013000010BD00000000D042010050410100D0415A
:10131000010050420100D042010050430100D0437F
:101320000140504400005042000050430000D043B0
:10133000004050440080CF4400008C4000000C412D
:1013400000008C4100000C4200008C4210B50400EB
:101350000021200001F0BEFB002801D1012010E097
:101360000021200001F000FB002801D1012008E04D
:101370000021200001F0D5FA002801D1012000E071
:10138000002010BD38B504000D0000A9200000F0B9
:10139000D2FF002801D101200EE09DF800000028B6
:1013A00004D0202805D10120287004E000202870F6
:1013B00001E0012000E0002032BD38B504000D003E
:1013C0002900C9B2200001F0ACFA002801D10120A7
:1013D00000E0002032BD10B50400B3EE0A0A200080
:1013E000FFF7A5F8012801D1012028E00021200005
:1013F00000F0BCFC002801D1012020E017212000D2
:1014000000F082F8012801D1012018E00421200019
:1014100000F05CFF002801D1012010E040212000F5
:1014200001F0EDF8002801D1012008E08021200022
:1014300000F067FC002801D1012000E0002010BD71
:1014400010B504000021200000F05BFC002801D151
:10145000012018E00021200001F0D1F8002801D17E
:10146000012010E00021200000F030FF002801D111
:10147000012008E00021200000F046F8012801D1F9
:10148000012000E0002010BD38B504000D0000A9C7
:10149000200001F004F8002801D101200EE09DF8A1
:1014A0000000002804D0102805D10120287004E095
:1014B0000020287001E0012000E0002032BD38B596
:1014C00004000D002900200001F0C3FB002801D119
:1014D000012000E0002032BD10B5040002212000F0
:1014E00000F032FE002801D1012000E0002010BDF4
:1014F00010B504000021200000F026FE002801D1D4
:10150000012000E0002010BD38B504000D002900C6
:10151000C9B2200001F0C8FB002801D1012000E081
:10152000002032BD10B50400B3EE0A0A2000FEF719
:10153000FEFF012801D1012020E00021200000F061
:1015400015FC002801D1012018E00421200000F042
:10155000BDFE002801D1012010E02021200001F073
:101560002BF8002801D1012008E00221200001F021
:1015700048FA002801D1012000E0002010BD10B57C
:1015800004000021200001F03CFA002801D10120D4
:1015900010E00021200001F00FF8002801D1012007
:1015A00008E00021200000F091FE002801D1012078
:1015B00000E0002010BD38B504000D0000A9200097
:1015C00000F07FFF002801D101200EE09DF800000F
:1015D000002804D0202805D10120287004E0002034
:1015E000287001E0012000E0002032BD10B50400A9
:1015F0009FEDBE0A2000FEF79AFF012801D10120CD
:1016000020E00021200000F0B1FB002801D10120E2
:1016100018E00021200001F05EF9002801D101202E
:1016200010E00221200001F0C6F8002801D10120BD
:1016300008E02021200001F070FA002801D10120EB
:1016400000E0002010BD00000000FA4200007543D9
:101650000000FA4300007A440000FA4410B5040088
:101660000021200001F059FA002801D1012010E0EA
:101670000021200001F02FF9002801D1012008E00D
:101680000021200001F097F8002801D1012000E09E
:10169000002010BD38B504000D0000A9200000F0A6
:1016A00038FE002801D101200EE09DF8000000283E
:1016B00004D0082805D10120287004E000202870FB
:1016C00001E0012000E0002032BD38B504000D002B
:1016D0002900C9B2200001F06EF8002801D10120D4
:1016E00000E0002032BD000010B504009FED7F0A2D
:1016F0002000FEF71CFF012801D1012040E000215D
:10170000200000F033FB002801D1012038E008213F
:10171000200000F02EFF002801D1012030E004213C
:10172000200000F003FF002801D1012028E0022161
:10173000200000F0D8FE002801D1012020E008217F
:10174000200000F03CF9012801D1012018E002211D
:10175000200000F042F9012801D1012010E0012110
:10176000200000F048F9012801D1012008E04021C3
:10177000200001F0F5F9002801D1012000E000204F
:1017800010BD10B504000021200001F0E9F9002887
:1017900001D1012030E00021200000F010F90128E3
:1017A00001D1012028E00021200000F016F90128D5
:1017B00001D1012020E00021200000F01CF90128C7
:1017C00001D1012018E00021200000F08CFE00284B
:1017D00001D1012010E00021200000F0A7FE002828
:1017E00001D1012008E00021200000F0C2FE002805
:1017F00001D1012000E0002010BD38B504000D002B
:1018000000A9200000F0BBFD002801D101200EE05E
:101810009DF80000002804D0202805D10120287060
:1018200004E00020287001E0012000E0002032BD2B
:1018300010B504009FED2D0A2000FEF778FE012868
:1018400001D1012050E00021200000F08FFA002893
:1018500001D1012048E00821200000F08AFE002884
:1018600001D1012040E00421200000F05FFE0028AB
:1018700001D1012038E00221200000F034FE0028D0
:1018800001D1012030E00821200000F098F8012863
:1018900001D1012028E00321200000F09EF801285A
:1018A00001D1012020E00321200000F0A4F801284C
:1018B00001D1012018E00821200000F0AAF8012839
:1018C00001D1012010E08021200000F099FF0028C4
:1018D00001D1012008E00821200001F0D8F80028FB
:1018E00001D1012000E0002010BD00000000D04325
:1018F00010B504000021200001F0C9F8002801D132
:10190000012040E00021200000F059F8012801D119
:10191000012038E00021200000F05FF8012801D10B
:10192000012030E00021200000F065F8012801D1FD
:10193000012028E00021200000F06BF8012801D1EF
:10194000012020E00021200000F05AFF002801D1F2
:10195000012018E00021200000F0C5FD002801D181
:10196000012010E00021200000F0E0FD002801D15E
:10197000012008E00021200000F0FBFD002801D13B
:10198000012000E0002010BD38B504000D0000A9C2
:10199000200000F0E2FC002801D101200EE09DF8BB
:1019A0000000002804D0102805D10120287004E090
:1019B0000020287001E0012000E0002032BD38B591
:1019C00004000D002900C9B2200000F03BFE0028F1
:1019D00001D1012000E0002032BD38B504000D0027
:1019E0002900C9B2200000F075FE002801D10120B5
:1019F00000E0002032BD38B504000D002900C9B256
:101A0000200000F08CFE002801D1012000E0002021
:101A100032BD38B504000D002900C9B2200000F025
:101A2000A4FE002801D1012000E0002032BD00000A
:101A300010B504009FED110A2000FEF778FD012883
:101A400001D1012018E00021200000F08FF90028CA
:101A500001D1012010E04021200000F018FE0028F4
:101A600001D1012008E00421200000F0EDFF002852
:101A700001D1012000E0002010BD00000000D04393
:101A8000000050410000D04110B5040000212000AA
:101A900000F0DAFF002801D1012008E00021200039
:101AA00000F0F5FD002801D1012000E0002010BD6C
:101AB00038B504000D0000A9200000F0DEFC00286D
:101AC00001D101200EE09DF80000002804D040283C
:101AD00005D10120287004E00020287001E00120D9
:101AE00000E0002032BD38B504000D0000A9200040
:101AF00000F057FC002801D101200EE09DF8000005
:101B0000002804D0012805D10120287004E000201D
:101B1000287001E0012000E0002032BD38B504004B
:101B20000D0000A9200000F04EFC002801D101208A
:101B30000EE09DF80000002804D0022805D1012005
:101B4000287004E00020287001E0012000E000205F
:101B500032BD38B504000D0000A9200000F045FC9E
:101B6000002801D101200EE09DF80000002804D0DB
:101B7000042805D10120287004E00020287001E02D
:101B8000012000E0002032BD38B504000D0000A99E
:101B9000200000F03CFC002801D101200EE09DF85F
:101BA0000000002804D0082805D10120287004E096
:101BB0000020287001E0012000E0002032BD38B58F
:101BC00004000D0000A9200000F033FC002801D122
:101BD00001200EE09DF80000002804D0102805D157
:101BE0000120287004E00020287001E0012000E0BE
:101BF000002032BD38B504000D0000A9200000F01F
:101C00002AFC002801D101200EE09DF800000028E8
:101C100004D0202805D10120287004E0002028707D
:101C200001E0012000E0002032BD0268531C036087
:101C30001170704770B504000D00160001233200CA
:101C40002900C9B2200001F0BCF8002801D0002012
:101C500000E0012070BD34B504000D00012300AA8E
:101C60002900C9B2200001F095F8002801D0002019
:101C700000E0012032BD38B504000D0000AA0121AA
:101C80002000FFF7D7FF002801D1002015E09DF8C4
:101C9000000010F07F008DF800009DF80000284340
:101CA0008DF800009DF8002001212000FFF7D3FFF0
:101CB000002801D1002000E0012032BD38B5040029
:101CC0000D0000AA0A212000FFF7B4FF002801D16F
:101CD000002015E09DF8000010F0F8008DF80000DD
:101CE0009DF8000028438DF800009DF800200A218F
:101CF0002000FFF7B0FF002801D1002000E0012004
:101D000032BD38B504000D0000AA0D212000FFF7F8
:101D100091FF002801D1002015E09DF8000010F08F
:101D20007F008DF800009DF8000028438DF800002A
:101D30009DF800200D212000FFF78DFF002801D124
:101D4000002000E0012032BD38B504000D002A005B
:101D50000F212000FFF76EFF002801D1002004E0D2
:101D60002878287028782870012032BD38B5040002
:101D70000D0000AA10212000FFF75CFF002801D110
:101D8000002015E09DF8000010F0F3008DF8000031
:101D90009DF8000028438DF800009DF800201021D8
:101DA0002000FFF758FF002801D1002000E00120AB
:101DB00032BD38B504000D002A0010212000FFF7C5
:101DC00039FF002801D1002004E0287810F00C0031
:101DD0002870012032BD38B504000D0000AA102182
:101DE0002000FFF727FF002801D1002015E09DF813
:101DF000000010F00F008DF800009DF8000028434F
:101E00008DF800009DF8002010212000FFF723FF2F
:101E1000002801D1002000E0012032BD38B50400C7
:101E20000D002A0010212000FFF704FF002801D137
:101E3000002004E0287810F0F0002870012032BD66
:101E400038B504000D0000AA11212000FFF7F2FEB2
:101E5000002801D1002015E09DF8000010F0FD00E1
:101E60008DF800009DF8000028438DF800009DF8D3
:101E7000002011212000FFF7EEFE002801D10020F4
:101E800000E0012032BD38B504000D002A00112108
:101E90002000FFF7CFFE002801D1002004E02878C1
:101EA00010F002002870012032BD38B504000D008A
:101EB00000AA11212000FFF7BDFE002801D100205B
:101EC00015E09DF8000010F0F3008DF800009DF87B
:101ED000000028438DF800009DF80020112120000B
:101EE000FFF7B9FE002801D1002000E0012032BD3B
:101EF00038B504000D002A0011212000FFF79AFEDA
:101F0000002801D1002004E0287810F00C0028708F
:101F1000012032BD38B504000D0000AA11212000B7
:101F2000FFF788FE002801D1002015E09DF8000091
:101F300010F00F008DF800009DF8000028438DF888
:101F400000009DF8002011212000FFF784FE0028EA
:101F500001D1002000E0012032BD38B504000D00A1
:101F60002A0011212000FFF765FE002801D1002082
:101F700004E0287810F0F0002870012032BD38B558
:101F800004000D0000AA12212000FFF753FE0028D4
:101F900001D1002015E09DF8000010F0FB008DF845
:101FA00000009DF8000028438DF800009DF80020F7
:101FB00012212000FFF74FFE002801D1002000E091
:101FC000012032BD38B504000D0000AA1221200006
:101FD000FFF730FE002801D1002015E09DF8000039
:101FE00010F0BF008DF800009DF8000028438DF828
:101FF00000009DF8002012212000FFF72CFE002891
:1020000001D1002000E0012032BD38B504000D00F0
:1020100000AA18212000FFF70DFE002801D10020A2
:1020200015E09DF8000010F0F7008DF800009DF815
:10203000000028438DF800009DF8002018212000A2
:10204000FFF709FE002801D1002000E0012032BD89
:1020500038B504000D002A0018212000FFF7EAFD22
:10206000002801D1002004E0287810F00800287032
:10207000012032BD38B504000D0000AA182120004F
:10208000FFF7D8FD002801D1002015E09DF80000E1
:1020900010F0EF008DF800009DF8000028438DF847
:1020A00000009DF8002018212000FFF7D4FD002833
:1020B00001D1002000E0012032BD38B504000D0040
:1020C0002A0018212000FFF7B5FD002801D10020CB
:1020D00004E0287810F010002870012032BD38B5D7
:1020E00004000D0000AA18212000FFF7A3FD00281E
:1020F00001D1002015E09DF8000010F0DF008DF800
:1021000000009DF8000028438DF800009DF8002095
:1021100018212000FFF79FFD002801D1002000E0DA
:10212000012032BD38B504000D002A00182120001E
:10213000FFF780FD002801D1002004E0287810F08E
:1021400020002870012032BD38B504000D0000AA1F
:1021500019212000FFF76EFD002801D1002015E0B5
:102160009DF8000010F0FD008DF800009DF80000C3
:1021700028438DF800009DF8002019212000FFF76A
:102180006AFD002801D1002000E0012032BD38B5F1
:1021900004000D0000AA19212000FFF74BFD0028C4
:1021A00001D1002015E09DF8000010F0F7008DF837
:1021B00000009DF8000028438DF800009DF80020E5
:1021C00019212000FFF747FD002801D1002000E081
:1021D000012032BD38B504000D002A00192120006D
:1021E000FFF728FD002801D1002004E0287810F036
:1021F00008002870012032BD38B504000D0000AA87
:1022000019212000FFF716FD002801D1002015E05C
:102210009DF8000010F0EF008DF800009DF8000020
:1022200028438DF800009DF8002019212000FFF7B9
:1022300012FD002801D1002000E0012032BD38B598
:1022400004000D002A0019212000FFF7F3FC0028EC
:1022500001D1002004E0287810F01000287001203F
:1022600032BD38B504000D0000AA19212000FFF787
:10227000E1FC002801D1002015E09DF8000010F0DD
:10228000DF008DF800009DF8000028438DF8000065
:102290009DF8002019212000FFF7DDFC002801D166
:1022A000002000E0012032BD38B504000D002A00F6
:1022B00019212000FFF7BEFC002801D1002004E016
:1022C000287810F020002870012032BD38B50400B5
:1022D0000D0000AA19212000FFF7ACFC002801D155
:1022E000002015E09DF8000010F0FB008DF80000C4
:1022F0009DF8000028438DF800009DF8002019216A
:102300002000FFF7A8FC002801D1002000E00120F8
:1023100032BD38B504000D002A001B212000FFF754
:1023200089FC002801D1002004E0287810F0080082
:102330002870012032BD38B504000D002A001B2191
:102340002000FFF777FC002801D1002004E0287866
:1023500010F020002870012032BD38B504000D00B7
:102360002A001C212000FFF765FC002801D1002075
:1023700004E0287810F010002870012032BD38B534
:1023800004000D002A001C212000FFF753FC002848
:1023900001D1002004E0287810F0200028700120EE
:1023A00032BD38B504000D002A001D212000FFF7C2
:1023B00041FC002801D1002004E0287810F0010041
:1023C0002870012032BD38B504000D002A001D21FF
:1023D0002000FFF72FFC002801D1002004E028781E
:1023E00010F002002870012032BD38B504000D0045
:1023F0002A001D212000FFF71DFC002801D100202C
:1024000004E0287810F004002870012032BD38B5AF
:1024100004000D002A001D212000FFF70BFC0028FE
:1024200001D1002004E0287810F008002870012075
:1024300032BD38B504000D002A001D212000FFF731
:10244000F9FB002801D1002004E0287810F01000EA
:102450002870012032BD38B504000D002A001D216E
:102460002000FFF7E7FB002801D1002004E02878D6
:1024700010F020002870012032BD38B504000D0096
:102480002A001D212000FFF7D5FB002801D10020E4
:1024900004E0287810F040002870012032BD38B5E3
:1024A00004000D002A0053212000FFF7C3FB002881
:1024B00001D1002004E0287810F0100028700120DD
:1024C00032BD38B504000D002A0053212000FFF76B
:1024D000B1FB002801D1002004E0287810F0200092
:1024E0002870012032BD38B504000D0000AA582123
:1024F0002000FFF79FFB002801D1002015E09DF888
:10250000000010F0FD008DF800009DF80000284349
:102510008DF800009DF8002058212000FFF79BFB5C
:10252000002801D1002000E0012032BD38B50400B0
:102530000D0000AA58212000FFF77CFB002801D1E4
:10254000002015E09DF8000010F0FB008DF8000061
:102550009DF8000028438DF800009DF800205821C8
:102560002000FFF778FB002801D1002000E00120C7
:1025700032BD38B504000D0000AA58212000FFF735
:1025800059FB002801D1002015E09DF8000010F053
:10259000F7008DF800009DF8000028438DF800003A
:1025A0009DF8002058212000FFF755FB002801D19D
:1025B000002000E0012032BD38B504000D0000AA63
:1025C00058212000FFF736FB002801D1002015E03C
:1025D0009DF8000010F0DF008DF800009DF800006D
:1025E00028438DF800009DF8002058212000FFF7B7
:1025F00032FB002801D1002000E0012032BD38B5B7
:1026000004000D0000AA58212000FFF713FB00284A
:1026100001D1002015E09DF8000010F0BF008DF8FA
:1026200000009DF8000028438DF800009DF8002070
:1026300058212000FFF70FFB002801D1002000E007
:10264000012032BD38B504000D0015F01F0500AAA9
:1026500059212000FFF7EEFA002801D1002015E0F3
:102660009DF8000010F0E0008DF800009DF80000DB
:1026700028438DF800009DF8002059212000FFF725
:10268000EAFA002801D1002000E0012032BD38B56F
:1026900004000D0000AA59212000FFF7CBFA002802
:1026A00001D1002015E09DF8000010F09F008DF88A
:1026B00000009DF8000028438DF800009DF80020E0
:1026C00059212000FFF7C7FA002801D1002000E0BF
:1026D000012032BD38B504000D0015F0030500AA35
:1026E0005A212000FFF7A6FA002801D1002015E0AA
:1026F0009DF8000010F0FC008DF800009DF800002F
:1027000028438DF800009DF800205A212000FFF793
:10271000A2FA002801D1002000E0012032BD38B526
:1027200004000D00AD0015F00C0500AA5A21200090
:10273000FFF780FA002801D1002015E09DF8000085
:1027400010F0F3008DF800009DF8000028438DF88C
:1027500000009DF800205A212000FFF77CFA002895
:1027600001D1002000E0012032BD38B504000D0089
:102770002D0115F0F00500AA5A212000FFF75AFAA2
:10278000002801D1002015E09DF8000010F00F0096
:102790008DF800009DF8000028438DF800009DF89A
:1027A00000205A212000FFF756FA002801D100200E
:1027B00000E0012032BD38B504000D0015F03F05E2
:1027C00000AA5B212000FFF735FA002801D1002084
:1027D00015E09DF8000010F0C0008DF800009DF895
:1027E000000028438DF800009DF800205B212000A8
:1027F000FFF731FA002801D1002000E0012032BDAE
:1028000038B504000D0000AA5B212000FFF712FA82
:10281000002801D1002015E09DF8000010F07F0095
:102820008DF800009DF8000028438DF800009DF809
:1028300000205B212000FFF70EFA002801D10020C4
:1028400000E0012032BD38B504000D0015F00F0581
:1028500000AA5C212000FFF7EDF9002801D100203B
:1028600015E09DF8000010F0F0008DF800009DF8D4
:10287000000028438DF800009DF800205C21200016
:10288000FFF7E9F9002801D1002000E0012032BD66
:1028900038B504000D0000AA5C212000FFF7CAF93A
:1028A000002801D1002015E09DF8000010F0EF0095
:1028B0008DF800009DF8000028438DF800009DF879
:1028C00000205C212000FFF7C6F9002801D100207C
:1028D00000E0012032BD38B504000D006D0115F097
:1028E000600500AA5C212000FFF7A4F9002801D1AF
:1028F000002015E09DF8000010F09F008DF800000A
:102900009DF8000028438DF800009DF800205C2110
:102910002000FFF7A0F9002801D1002000E00120ED
:1029200032BD38B504000D0000AA5D212000FFF77C
:1029300081F9002801D1002015E09DF8000010F079
:10294000F8008DF800009DF8000028438DF8000085
:102950009DF800205D212000FFF77DF9002801D1BE
:10296000002000E0012032BDF8B504000D0015F094
:102970001F000700C5F340100600FF0017F0F8071E
:1029800000AA5D212000FFF755F9002801D10020A1
:1029900036E09DF8000010F007008DF800009DF86B
:1029A000000038438DF800009DF800205D212000D4
:1029B000FFF751F9002801D1002021E0F60116F0BF
:1029C000800600AA5C212000FFF734F9002801D11D
:1029D000002015E09DF8000010F07F008DF8000049
:1029E0009DF8000030438DF800009DF800205C2128
:1029F0002000FFF730F9002801D1002000E001207D
:102A0000F2BD38B504000D0000AA5E212000FFF7DA
:102A100011F9002801D1002015E09DF8000010F008
:102A2000FD008DF800009DF8000028438DF800009F
:102A30009DF800205E212000FFF70DF9002801D14C
:102A4000002000E0012032BD38B504000D0000AACE
:102A50005E212000FFF7EEF8002801D1002015E0EC
:102A60009DF8000010F0FB008DF800009DF80000BC
:102A700028438DF800009DF800205E212000FFF71C
:102A8000EAF8002801D1002000E0012032BD38B56D
:102A900004000D0000AA5E212000FFF7CBF80028FB
:102AA00001D1002015E09DF8000010F0F7008DF82E
:102AB00000009DF8000028438DF800009DF80020DC
:102AC0005E212000FFF7C7F8002801D1002000E0B8
:102AD000012032BD38B504000D0000AA5E2120009F
:102AE000FFF7A8F8002801D1002015E09DF80000AC
:102AF00010F0EF008DF800009DF8000028438DF8DD
:102B000000009DF800205E212000FFF7A4F80028B7
:102B100001D1002000E0012032BD38B504000D00D5
:102B200000AA5E212000FFF785F8002801D10020CF
:102B300015E09DF8000010F0DF008DF800009DF812
:102B4000000028438DF800009DF800205E21200041
:102B5000FFF781F8002801D1002000E0012032BDFC
:102B600038B504000D0000AA5E212000FFF762F8CE
:102B7000002801D1002015E09DF8000010F0BF00F2
:102B80008DF800009DF8000028438DF800009DF8A6
:102B900000205E212000FFF75EF8002801D1002010
:102BA00000E0012032BD2DE9F84304000D000220B1
:102BB00081460020804600200600F6B2032E1ADA75
:102BC00000200700FFB25FFA89F94F4511D25FFA82
:102BD00088F818EB050218F12201C9B22000FFF7AE
:102BE00029F8002801D1002006E018F101087F1C17
:102BF000E8E7761CE1E70120BDE8F2832DE9F84320
:102C000004000D00022081460020804600200600BE
:102C1000F6B2032E1ADA00200700FFB25FFA89F934
:102C20004F4511D25FFA88F818EB050218F1280118
:102C3000C9B22000FEF7FEFF002801D1002006E007
:102C400018F101087F1CE8E7761CE1E70120BDE8E8
:102C5000F2832DE9F84304000D0002208146002094
:102C6000804600200600F6B2002E1AD10020070090
:102C7000FFB25FFA89F94F4511D25FFA88F818EB75
:102C8000050218F14B01C9B22000FEF7D3FF00285E
:102C900001D1002006E018F101087F1CE8E7761C4E
:102CA000E1E70120BDE8F28338B504000D00802182
:102CB0002000FEF7E0FF00AA0F212000FEF7BAFF78
:102CC0009DF8000010F0E0008DF800009DF8000075
:102CD00015F01F0108438DF800009DF800200F211A
:102CE0002000FEF7B8FF00212000FEF7C4FF0120FE
:102CF00032BD200080B500F07BF8002801D0012013
:102D000000E0002002BD0020704700B58BB09C4859
:102D1000006850F001009A4908609948006810F076
:102D2000010000900098102006909648079002201D
:102D300009900020089006A9934800F035F9002278
:102D400000210A2000F0BCFA0A2000F0CCFA8C48DE
:102D5000006850F002008A4908608948006810F055
:102D60000200009000980120019086480290022005
:102D700004900020039001A9844800F015F9002276
:102D80000021062000F09CFA062000F0ACFA00209A
:102D90000BB000BD2DE9F04104000D0016001F002E
:102DA000A0463B009BB232002900C9B298F801004E
:102DB00000F042F8002801D0012000E00020BDE82A
:102DC000F0812DE9F04104000D0016001F00A0461F
:102DD0003B009BB232002900C9B298F8010000F014
:102DE00055F8002801D0012000E00020BDE8F08166
:102DF00080B5674800F004FD002814D16548644997
:102E0000486000206249886033206149C8604FF4FF
:102E100080405F49086160485D49086000F068F8DB
:102E20005B4800F07DFA5A4800F0EAFC012801D125
:102E3000002000E0012002BD2DE9F04184B0040033
:102E40000D0016001F005FF0000854480068029053
:102E5000380080B2019000960123EDB22A0092B2B0
:102E6000E4B2210089B24A4800F00CFB80465FFAC8
:102E700088F8B8F1000F05D02000C0B200F030F89B
:102E8000012000E0002004B0BDE8F0812DE9F04110
:102E900084B004000D0016001F005FF000083F48DA
:102EA00000680290380080B2019000960123EDB2D4
:102EB0002A0092B2E4B2210089B2354800F074FBD6
:102EC00080465FFA88F8B8F1000F05D02000C0B244
:102ED00000F006F8012000E0002004B0BDE8F08119
:102EE00010B504002A4800F0AAFAFFF781FF10BDD0
:102EF00000B587B02248006850F002002049086001
:102F00001F48006810F00200009000984FF44070D5
:102F100001901220029002200490002003900420CF
:102F2000059001A9194800F03FF81D48006850F4C9
:102F300000101B4908601A48006810F40010009047
:102F400000981848006850F40010164908601548A9
:102F5000006830F4001013490860002200211F208F
:102F600000F0AEF91F2000F0BEF900220021202061
:102F700000F0A6F9202000F0B6F907B000BD00006F
:102F800030380240000011100000024000040240EE
:102F900054070020801A060000540040E803002077
:102FA0004038024020380240F8B4002300240025B5
:102FB00000263200102A80F0D68001269640330089
:102FC0000E681E4034009C4240F0CB804E68022EBA
:102FD00002D04E68122E16D1D60810EB8606366A3D
:102FE00035000F2612F00707FFB2BF00BE40B54301
:102FF0000E6912F00707FFB2BF00BE403543D60886
:1030000010EB860635620668350003261700FFB20E
:103010007F00BE40B5430E7916F003061700FFB2DD
:103020007F00BE40354305604E68012E08D04E68D3
:10303000022E05D04E68112E02D04E68122E19D1E4
:103040008668350003261700FFB27F00BE40B543F7
:10305000CE681700FFB27F00BE40354385604668EA
:10306000350001269640B5434E68C6F300169640DB
:1030700035434560C668350003261700FFB27F0060
:10308000BE40B5438E681700FFB27F00BE40354397
:10309000C5604E68F60064D5464E366856F48046E4
:1030A000444F3E60434E366816F480460096009EBC
:1030B000414E970856F8276035000F2612F0030797
:1030C000FFB2BF00BE40B5433C4EB04201D1002626
:1030D00014E03B4EB04201D101260FE0394EB04220
:1030E00001D102260AE0384EB04201D1032605E0A4
:1030F000364EB04201D1042600E00526F6B212F0A9
:103100000307FFB2BF00BE4035432B4E970846F879
:1031100027502F4E36683500A5434E68F60300D57C
:1031200025432B4E35602B4E36683500A5434E683F
:10313000B60300D52543274E3560274E3668350047
:10314000A5434E68F60200D52543234E3560234E35
:1031500036683500A5434E68B60200D525431F4E9C
:103160003560521C26E7F1BC70470200136989B232
:103170000B4202D00123180001E000231800C0B266
:103180007047D2B2002A02D089B2816102E089B2CE
:103190000B048361704710B5040011480068A4B2A5
:1031A000204206D0A4B20E480460200080B201F094
:1031B00015FB10BD443802400838014000000240B1
:1031C0000004024000080240000C024000100240CF
:1031D000003C0140043C0140083C01400C3C0140E3
:1031E000143C014010F00702454B1B6819004FF6D4
:1031F000FF031940434B53EA02231943404B196024
:1032000070473F480068C0F302207047012110F06A
:103210001F0291403C4A40B2430942F823107047D4
:1032200010B440B2002808D50A01384B40B210F063
:103230000F04E31803F8042C03E00A01344B40B2F6
:10324000C25410BC704770B4030013F00704D4F1EB
:103250000706052E01D3042001E0D4F10700261D46
:10326000072E01D2002500E0E51E012616FA00F027
:10327000401E0840A8400121A940491E11400843B2
:1032800070BC704710B50400601EB0F1807F01D3A0
:1032900001200EE0601E1F4908600F215FF0FF3023
:1032A000FFF7BEFF00201C49086007201B4908608B
:1032B000002010BD10B504002000FFF793FF10BDE3
:1032C000F8B504000D0016000027FFF79AFF07006D
:1032D000320029003800FFF7B6FF0100200040B29D
:1032E000FFF79EFFF1BD10B50400200040B2FFF7CC
:1032F0008DFF10BD10B504002000FFF7C3FF10BD07
:103300000CED00E00000FA0500E100E018ED00E03F
:1033100000E400E014E000E018E000E010E000E06D
:1033200070B5040000250026002C01D1012085E0A5
:1033300094F83500002805D1002084F834002000DE
:1033400000F099F8022084F83500206800684008F1
:1033500040002168086001F01EFE0600DFF81C0135
:10336000B6FBF0F00500206845606068DFF81011DA
:10337000884201D2681C08E04FF4967000FB05F00B
:103380004FF47A71B0FBF1F0401C2168086260686C
:10339000DFF8EC1088420ED260684000B6FBF0F017
:1033A0000005000D042801D204202AE060684000D6
:1033B000B6FBF0F025E0A068002805D16068032185
:1033C0004843B6FBF0F006E0606819214843B6FBBD
:1033D000F0F050F48040000501D1012011E0A06818
:1033E000002805D1606803214843B6FBF0F006E0F1
:1033F000606819214843B6FBF0F050F4804050F467
:1034000000402168C861E069216A084321680860BA
:103410002069E1680843216888606069A169084300
:103420002168C8602068006850F0010021680860C9
:103430000020A063012084F83500002070BD10B585
:103440000400002C01D1012014E0022084F8350092
:10345000206800684008400021680860200000F0F3
:103460000BF80020A063002084F83500002084F8C9
:103470003400002010BD70477047000040420F002C
:10348000A18601002DE9F04782B005000E0017006B
:103490009846DDF828900B9CDDF830A095F83500B3
:1034A00001287CD1B9F1000F02D0A4B2002C01D1C7
:1034B000012075E042F210730122DFF8401328006A
:1034C00000F092FA002801D0022069E095F834005B
:1034D000012801D1022063E0012085F8340028682A
:1034E000006830F4006029680860322085F83500F3
:1034F0000020A863CDF800A043469BB23A0092B2E8
:10350000310089B2280000F081F900280CD0A86BA6
:10351000042804D1002085F83400012040E0002078
:1035200085F8340003203BE0A4B2002C1FD05346A2
:1035300000221C49280000F057FA002801D003207F
:103540002EE099F800002968086119F10109641E4C
:10355000286840694007E7D5A4B2002CE4D099F868
:1035600000002968086119F10109641EDCE753466F
:1035700000220C49280000F037FA002801D003206F
:103580000EE02868006850F4007029680860012087
:1035900085F83500002085F83400002000E0022086
:1035A000BDE8F687800001002DE9F04782B00500F4
:1035B0000E0017009846DDF828900B9CDDF830A02F
:1035C00095F83500012840F01481B9F1000F02D0C0
:1035D000A4B2002C01D101200CE142F210730122AF
:1035E000DFF81812280000F0FFF9002801D00220AF
:1035F00000E195F83400012801D10220FAE0012011
:1036000085F834002868006830F400602968086094
:10361000422085F835000020A863CDF800A043467D
:103620009BB23A0092B2310089B2280000F049F909
:1036300000280CD0A86B042804D1002085F83400A1
:103640000120D7E0002085F834000320D2E0A4B2A6
:10365000012C13D12868006830F480602968086064
:103660002868406900902868806900900098286860
:10367000006850F40070296808601DE0A4B2022CB4
:1036800013D12868006830F48060296808602868D1
:10369000006850F40060296808602868406900905C
:1036A000286880690090009806E0286840690090CA
:1036B0002868806900900098A4B2002C00F09180E6
:1036C000A4B2042C6FDAA4B2012C11D1534600220B
:1036D0004949280000F088F9002801D0032089E03A
:1036E0002868006989F8000019F10109641EE3E700
:1036F000A4B2022C1FD153460022DFF80C1128007F
:1037000000F072F9002801D0032073E028680068F7
:1037100050F40070296808602868006989F8000082
:1037200019F10109641E2868006989F8000019F17F
:103730000109641EC0E753460022DFF8CC102800C0
:1037400000F052F9002801D0032053E028680068F7
:1037500030F48060296808602868006989F80000F2
:1037600019F10109641E53460022DFF89C1028005D
:1037700000F03AF9002801D003203BE028680068F7
:1037800050F40070296808602868006989F8000012
:1037900019F10109641E2868006989F8000019F10F
:1037A0000109641E88E7534600221349280000F0EF
:1037B0001BF9002801D003201CE02868006989F863
:1037C000000019F10109641E2868406940077FF56F
:1037D00073AF2868006989F8000019F10109641EB7
:1037E0006AE7012085F83500002085F834000020C4
:1037F00000E00220BDE8F687400001000200100052
:1038000090F8350070470000040001002DE9F041F8
:1038100082B004000D0016001F00DDF82080206833
:10382000006850F4807021680860434600225FF011
:103830000111200000F0D8F8002801D003203EE05C
:1038400015F0FE002168086142466549200000F03D
:1038500038F9002806D0A06B042801D101202EE001
:1038600003202CE020684069009020688069009067
:103870000098434600225B49200000F0B5F800287C
:1038800001D003201BE0BFB2012F04D13000C0B231
:103890002168086112E0B6B2300AC0B2216808613E
:1038A000434600224F49200000F09EF8002801D036
:1038B000032004E03000C0B2216808610020BDE8A8
:1038C000F6812DE9F04182B004000D0016001F00C2
:1038D000DDF820802068006850F48060216808606E
:1038E0002068006850F48070216808604346002218
:1038F0005FF00111200000F077F8002801D00320CC
:103900006CE015F0FE002168086142463449200051
:1039100000F0D7F8002806D0A06B042801D10120C0
:103920005CE003205AE020684069009020688069CC
:1039300000900098434600222A49200000F054F8E5
:10394000002801D0032049E0BFB2012F04D130008C
:10395000C0B22168086112E0B6B2300AC0B2216874
:103960000861434600221F49200000F03DF800286E
:1039700001D0032032E03000C0B221680861434624
:1039800000221849200000F02FF8002801D0032061
:1039900024E02068006850F4807021680860434685
:1039A00000225FF00111200000F01EF8002801D075
:1039B000032013E055F00100C0B2216808614246BF
:1039C0000749200000F07DF8002806D0A06B0428ED
:1039D00001D1012002E0032000E00020BDE8F681D3
:1039E00002000100800001002DE9F04104000D00FB
:1039F00016001F005FF0000801F04CFB8046F6B295
:103A0000002E2DD1280CC0B201280AD120684069AF
:103A1000284080B2A9B2884201D101200BE00020E9
:103A200009E020688069284080B2A9B2884201D1AB
:103A3000012000E00020002840D117F1010FE1D063
:103A4000002F05D001F026FBB0EB08008742D9D249
:103A5000012084F83500002084F8340003202EE093
:103A6000280CC0B201280AD120684069284080B2E1
:103A7000A9B2884201D101200BE0002009E02068B2
:103A80008069284080B2A9B2884201D1012000E0BB
:103A90000020002812D017F1010FE1D0002F05D02F
:103AA00001F0F8FAB0EB08008742D9D2012084F87F
:103AB0003500002084F83400032000E00020BDE839
:103AC000F081F8B504000D001600002701F0E2FABD
:103AD0000700280CC0B201280AD12068406928409C
:103AE00080B2A9B2884201D101200BE0002009E098
:103AF00020688069284080B2A9B2884201D10120A3
:103B000000E00020002829D120684069400513D535
:103B10002068006850F40070216808607FF48060BD
:103B2000216848610420A063012084F8350000204A
:103B300084F83400012012E016F1010FC9D0002EE4
:103B400004D001F0A7FAC01B8642C2D2012084F83B
:103B50003500002084F83400032000E00020F2BD8E
:103B600080B501F061FA01F0A9FA002001F0EEFA47
:103B70000121002001F022FB01F092FB00F0D6FDB4
:103B800000F0F3FD00F014FDDFF8440C007801288C
:103B900009D100F04FFD0120DFF8381C087000202B
:103BA000DFF82C1C0870DFF8300C0078012809D1F0
:103BB00000F07EFD0020DFF81C1C08700020DFF8FC
:103BC000181C0870DFF80C0C007801284CD100F0AC
:103BD00090F8DFF8380C006800F0C3F8DFF8300C1C
:103BE0000078002804D1DFF82C0C006800F0B9F848
:103BF000DFF8240C006800F085F9DFF8200C00786D
:103C0000002804D1DFF8180C006800F07BF9DFF819
:103C1000140C006800F042FADFF80C0C006800F0A9
:103C200009FBDFF8080C006800F09BFBDFF8000CD4
:103C3000006800F096FBDFF8FC0B0078002804D148
:103C4000DFF8F40B006800F08CFBDFF8F00B006885
:103C500000F01EFCDFF8E80B0078002804D1DFF844
:103C6000E40B006800F014FC4FF47A7001F015FAD0
:103C70008AE7000070B52DED048BB0EE408A040099
:103C80000D001600BDEEC80A84ED000AB5EE408AAC
:103C9000F1EE10FA06DB94ED000AB8EEC00A38EE39
:103CA000408A05E094ED000AB8EEC00A30EE488A7A
:103CB000300001F067FB41EC110B9FED900B01F020
:103CC000F0FDB0EE409AF0EE609A18EE100A02F0A5
:103CD00007F853EC192B02F02BF841EC100B02F013
:103CE000F8F851EC100B02F001F92860BDEC048BE0
:103CF00070BD10B588B00024002203A9DFF8480B7E
:103D000002F000FA002202A9DFF83C0B02F0AFFA41
:103D10000498D0F598706421484340F2311190FB2B
:103D2000F1F00400E4B201949DF80E0000909DF8BB
:103D30000D309DF80C20DFF8141BDFF8140B02F097
:103D400013FBDFF80C0B02F029FB020041F2883371
:103D500092B2DFF8FC1ADFF8FC0A02F074FB08B03C
:103D600010BD10B58CB0040004A9200002F094FE30
:103D70000DF11101200002F081FE9DF811000128D3
:103D800040F0B98009A9200002F0AEFE012805D15B
:103D90000020099000200A9000200B900B980390BF
:103DA0009DF8100002900A9801909DF81000009074
:103DB000099B9DF81020DFF8A01ADFF8940A02F0A2
:103DC000D3FADFF88C0A02F0E9FA41F288330200F4
:103DD00092B2DFF87C1ADFF87C0A02F034FBDFF8DD
:103DE0007C0A0078012840F086800DF11201200045
:103DF00002F060FE012808D19DF81020DFF8601A5B
:103E0000DFF84C0A02F0B0FA09E09DF812309DF894
:103E10001020DFF8501ADFF8380A02F0A5FADFF8B0
:103E2000300A02F0BBFA020041F2883392B2DFF8A6
:103E3000201ADFF8200A02F006FB08A9200002F091
:103E400071FE012808D19DF81020DFF81C1ADFF858
:103E5000000A02F089FA11E0032205A906A89DEDE7
:103E6000080AFFF707FF05980090069B9DF81020B1
:103E7000DFF8F819DFF8D80902F076FADFF8D00990
:103E800002F08CFA41F28833020092B2DFF8C019D6
:103E9000DFF8C00902F0D7FA07A9200002F060FE9F
:103EA000012808D19DF81020DFF8C419DFF8A00917
:103EB00002F05AFA11E0032205A906A89DED070AAF
:103EC000FFF7D8FE05980090069B9DF81020DFF8BC
:103ED000A419DFF87C0902F047FADFF8740902F050
:103EE0005DFA41F28833020092B2DFF86419DFF81C
:103EF000640902F0A8FA0CB010BD00000000000038
:103F00000000244010B58CB0040004A9200002F089
:103F100077FF0DF11101200002F064FF9DF8110000
:103F2000012840F0B98009A9200002F095FF01287E
:103F300005D10020099000200A9000200B900B98DA
:103F400003909DF8100002900A9801909DF81000CF
:103F50000090099B9DF81020DFF81C19DFF8F0088D
:103F600002F002FADFF8E80802F018FA41F28833AA
:103F7000020092B2DFF8D818DFF8D80802F063FA2E
:103F8000DFF8D8080078012840F086800DF1120192
:103F9000200002F043FF012808D19DF81020DFF82F
:103FA000C018DFF8AC0802F0DFF909E09DF8123024
:103FB0009DF81020DFF8AC18DFF8940802F0D4F96F
:103FC000DFF88C0802F0EAF9020041F2883392B27D
:103FD000DFF87C18DFF87C0802F035FA08A9200029
:103FE00002F058FF012808D19DF81020DFF878185A
:103FF000DFF85C0802F0B8F911E0032205A906A871
:104000009DED080AFFF736FE05980090069B9DF887
:104010001020DFF85818DFF8380802F0A5F9DFF8AB
:10402000300802F0BBF941F28833020092B2DFF8A7
:104030002018DFF8200802F006FA07A9200002F095
:1040400047FF012808D19DF81020DFF82418DFF879
:10405000000802F089F911E0032205A906A89DEDE8
:10406000070AFFF707FE05980090069B9DF81020B1
:10407000DFF80818DFF8D80702F076F9DFF8D00784
:1040800002F08CF941F28833020092B2DFF8C017D7
:10409000DFF8C00702F0D7F90CB010BD10B58CB036
:1040A000040004A9200002F0EBFF0DF11101200033
:1040B00002F0D8FF9DF81100012840F0B98009A94D
:1040C000200003F009F8012805D100200990002004
:1040D0000A9000200B900B9803909DF8100002901E
:1040E0000A9801909DF810000090099B9DF81020FF
:1040F000DFF88C17DFF8580702F036F9DFF85007C1
:1041000002F04CF941F28833020092B2DFF8401716
:10411000DFF8400702F097F9DFF840070078012840
:1041200040F086800DF11201200002F0B7FF012857
:1041300008D19DF81020DFF82817DFF8140702F0E7
:1041400013F909E09DF812309DF81020DFF81417DC
:10415000DFF8FC0602F008F9DFF8F40602F01EF9B9
:10416000020041F2883392B2DFF8E416DFF8E40689
:1041700002F069F908A9200002F0CCFF012808D15B
:104180009DF81020DFF8E016DFF8C40602F0ECF826
:1041900011E0032205A906A89DED080AFFF76AFDB4
:1041A00005980090069B9DF81020DFF8C016DFF8F8
:1041B000A00602F0D9F8DFF8980602F0EFF841F215
:1041C0008833020092B2DFF88816DFF8880602F022
:1041D0003AF907A9200002F0BBFF012808D19DF899
:1041E0001020DFF88C16DFF8680602F0BDF811E049
:1041F000032205A906A89DED070AFFF73BFD0598D8
:104200000090069B9DF81020DFF87816DFF8400636
:1042100002F0AAF8DFF8380602F0C0F841F288335D
:10422000020092B2DFF82816DFF8280602F00BF938
:104230000CB010BD10B586B0040001A9200003F039
:1042400065F80DF10501200003F052F89DF8050016
:10425000012840F0848004A9200003F083F801289D
:1042600001D100200490022202A903A89DED040AB6
:10427000FFF700FD02980090039B9DF80420DFF8F3
:104280000816DFF8CC0502F06FF8DFF8C40502F07D
:1042900085F841F28833020092B2DFF8B415DFF8F6
:1042A000B40502F0D0F8DFF8B4050078012856D143
:1042B0000DF10601200003F037F8012808D19DF820
:1042C0000420DFF89C15DFF8880502F04DF809E0BE
:1042D0009DF806309DF80420DFF88815DFF870059A
:1042E00002F042F8DFF8680502F058F8020041F2E7
:1042F000883392B2DFF85815DFF8580502F0A3F8BA
:1043000005A9200003F04CF8012808D19DF80420ED
:10431000DFF85415DFF8380502F026F811E0032223
:1043200002A903A89DED050AFFF7A4FC02980090DE
:10433000039B9DF80420DFF83415DFF8140502F024
:1043400013F8DFF80C0502F029F841F28833020077
:1043500092B2DFF8FC14DFF8FC0402F074F806B047
:1043600010BD10B586B0040001A9200003F0C0F90B
:104370000DF10501200003F0ADF99DF805000128BD
:1043800040F0848004A9200003F0DEF9012801D167
:1043900000200490022202A903A89DED040AFFF761
:1043A00069FC02980090039B9DF80420DFF8DC1460
:1043B000DFF89C0401F0D8FFDFF8940401F0EEFF71
:1043C00041F28833020092B2DFF88414DFF88404EB
:1043D00002F039F8DFF884040078012856D10DF195
:1043E0000601200003F092F9012808D19DF804206D
:1043F000DFF86C14DFF8580401F0B6FF09E09DF80F
:1044000006309DF80420DFF85C14DFF8440401F066
:10441000ABFFDFF83C0401F0C1FF020041F288333A
:1044200092B2DFF82C14DFF82C0402F00CF805A986
:10443000200003F0A7F9012808D19DF80420DFF837
:104440002814DFF80C0401F08FFF11E0032202A909
:1044500003A89DED050AFFF70DFC02980090039B51
:104460009DF80420DFF80414DFF8E40301F07CFF7A
:10447000DFF8DC0301F092FF41F28833020092B2D0
:10448000DFF8CC13DFF8CC0301F0DDFF06B010BD80
:1044900010B586B0040001A9200003F09DFA0DF1CB
:1044A0000501200003F08AFA9DF8050001287DD15E
:1044B00004A9200003F0BCFA012801D100200490D7
:1044C000022202A903A89DED040AFFF7D3FB02987C
:1044D0000090039B9DF80420DFF8B413DFF870030D
:1044E00001F042FFDFF8680301F058FF41F2883322
:1044F000020092B2DFF85813DFF8580301F0A3FF6F
:10450000DFF858030078012850D10DF10601200092
:1045100003F070FA012808D19DF80420DFF8401359
:10452000DFF82C0301F020FF09E09DF806309DF82C
:104530000420DFF83013DFF8180301F015FFDFF86F
:10454000100301F02BFF020041F2883392B2DFF832
:104550000013DFF8000301F076FF05A9200003F047
:1045600085FA012807D19DF80420DFF8FC12B8482D
:1045700001F0FAFE0FE0032202A903A89DED050A4F
:10458000FFF778FB02980090039B9DF80420B74941
:10459000AF4801F0E9FEAE4801F000FF41F2883378
:1045A000020092B2AA49AB4801F04DFF06B010BD1F
:1045B00080B59649002002F037F99649012002F0B3
:1045C00033F9012802D10120914908709249002055
:1045D00002F0E4FA9249012002F0E0FA012802D147
:1045E00001208E4908708F49002002F08FFC8E490F
:1045F000002002F0CBFD8D49002002F0EFFE8C4937
:10460000012002F0EBFE8C49022002F0E7FE0128B7
:1046100002D10120874908708849002003F0D0F8B2
:104620008849012003F0CCF8012802D101208449F7
:10463000087001BD80B57548006802F0EFF9744854
:104640000078002803D17348006802F0E7F9724847
:10465000006802F097FB71480078002803D1704889
:10466000006802F08FFB6F48006802F0CBFC6E48D8
:10467000006802F00DFE6D48006802F0FBFF6C4818
:10468000006802F0F7FF6B480078002803D16A4801
:10469000006802F0EFFF6948006803F05FF96848BE
:1046A0000078002803D16748006803F057F901BD7E
:1046B00080B55648006802F0C9F9554800780028CE
:1046C00003D15448006802F0C1F95348006802F071
:1046D00071FB52480078002803D15148006802F06D
:1046E00069FB5048006802F0A5FC4F48006802F0E2
:1046F000E7FD4E48006802F0D5FF4D48006802F023
:10470000D1FF4C480078002803D14B48006802F0E4
:10471000C9FF4A48006803F039F949480078002881
:1047200003D14848006803F031F901BD80B559480C
:10473000454908604020444948607F2042498860DC
:104740004FF498704049C86000203F49086100203C
:104750003D49486100203C4988613B4801F0ECFB41
:10476000002801D000F09EF801BD00B587B0002000
:104770008DF8030001208DF8010001208DF8020062
:1047800001208DF80000012200A92F4801F0ECFC67
:10479000002801D000F086F800208DF804000020E9
:1047A0008DF8050000208DF8060000208DF8070028
:1047B0000020049000200590012201A9224801F068
:1047C00011FC002801D000F06DF807B000BD00001A
:1047D000F00300207E0900207909002010B50400B4
:1047E000A4B2B4F5005F0FD1002000F03CFD00281A
:1047F0000AD129480078002803D1012027490870F0
:1048000002E001202649087010BD000020090020A8
:104810007A09002024090020280900207B090020B3
:104820002C0900203009002034090020380900201C
:10483000400900207D090020480900203C09002093
:104840007C09002044090020440800203CCC0008DA
:10485000F40400201407002058CB0008F1030020C6
:10486000B0CC0008D0CC000800CE000840CD000835
:1048700010CE0008C4CD000888CB000858CD000831
:10488000B8CB000870CD0008D8CD0008ECCD0008EA
:1048900088CD0008002800407E090020F003002099
:1048A00079090020FEE7002070B582B004000025E1
:1048B0002078C0075AD5DFF82C07006810F00C00EC
:1048C00004280BD0DFF81C07006810F00C00082843
:1048D0000ED1DFF814070068400209D5DFF80C0795
:1048E0000068800342D5606800283FD10120A2E122
:1048F0000020DFF8FC16087000F0CCFB0500DFF8A4
:10490000EC060068800308D500F0C4FB401B41F2B0
:1049100089318842F3D303208DE16068DFF8D01637
:1049200008706068002810D000F0B4FB0500DFF8C4
:10493000BC060068800319D400F0ACFB401B41F2B8
:1049400089318842F3D3032075E100F0A3FB050011
:10495000DFF898060068800308D500F09BFB401B39
:1049600041F289318842F3D3032064E12078800743
:1049700066D5DFF87006006810F00C0F0BD0DFF87A
:104980006406006810F00C0008281FD1DFF85806F4
:10499000006840021AD4DFF854060068800704D586
:1049A000E068012801D0012045E1DFF840060068F9
:1049B0005FF0F851B1FA81F130F0F800226912FA93
:1049C00001F10843DFF82416086039E0E0680028A8
:1049D00023D00120DFF81C16086000F05BFB050007
:1049E000DFF808060068800706D400F053FB401B80
:1049F0006528F5D303201EE1DFF8F00500685FF0BD
:104A0000F851B1FA81F130F0F800226912FA01F19F
:104A10000843DFF8D815086012E00020DFF8D4154D
:104A2000086000F037FB0500DFF8C005006880076C
:104A300006D500F02FFB401B6528F5D30320FAE0D4
:104A40002078000728D56069002812D00120DFF8FF
:104A5000A815086000F01EFB0500DFF8A00500683F
:104A6000800719D400F016FB401B6528F5D30320FE
:104A7000E1E00020DFF88015086000F00BFB050086
:104A8000DFF878050068800706D500F003FB401BBF
:104A90006528F5D30320CEE02078400763D5DFF802
:104AA0006005006850F08050DFF854150860DFF8AA
:104AB0005005006810F0805000900098DFF8440521
:104AC000006850F48070DFF83C15086000F0E2FAEE
:104AD0000500DFF830050068C00506D400F0DAFAFA
:104AE000401B6528F5D30320A5E00020DFF818154A
:104AF000087000F0CFFA0500DFF80C0500688007A9
:104B000008D500F0C7FA401B41F289318842F3D33F
:104B1000032090E0A068DFF8F0140870A068002877
:104B200010D000F0B7FA0500DFF8DC040068800759
:104B300019D400F0AFFA401B41F289318842F3D317
:104B4000032078E000F0A6FA0500DFF8BC04006856
:104B5000800708D500F09EFA401B41F28931884257
:104B6000F3D3032067E0A069002863D0DFF8740462
:104B7000006810F00C0008285AD0A069022844D11F
:104B80000020DFF88814086000F084FA0500DFF8E0
:104B90005C040068800106D500F07CFA401B6528A3
:104BA000F5D3032047E0DFF86804B0FA80F24FF451
:104BB0004040B0FA80F0F021B1FA81F1E369266A51
:104BC0003343666A16FA02F21A43A36A5B085B1E55
:104BD00013FA00F01043E26A12FA01F10843DFF819
:104BE000081408600120DFF82414086000F052FA6D
:104BF0000500DFF8F803006880011BD400F04AFAD2
:104C0000401B6528F5D3032015E00020DFF8FC13D6
:104C1000086000F03FFA0500DFF8D003006880016B
:104C200008D500F037FA401B6528F5D3032002E0D1
:104C3000012000E0002076BD70B504000D000026C4
:104C4000DFF8D003006810F00F00A84280F08F80DA
:104C5000DFF8C0030570DFF8BC03006810F00F0038
:104C6000A84201D001202AE12078800709D5DFF889
:104C70007403006830F0F000A1680843DFF86413A3
:104C800008602078C00740F1FD806068012806D1E7
:104C9000DFF858030068800315D401200FE1606835
:104CA000022802D06068032806D1DFF840030068BC
:104CB000800108D4012002E1DFF83003006880079A
:104CC00001D40120FBE0DFF81C03006880088000AD
:104CD00061680843DFF80C13086000F0DBF9060098
:104CE0006068012810D1DFF8FC02006810F00C00A9
:104CF000042800F0C78000F0CDF9801B41F2893113
:104D00008842F0D30320DAE06068022810D1DFF88F
:104D1000D402006810F00C00082800F0B38000F006
:104D2000B9F9801B41F289318842F0D30320C6E0F3
:104D3000606803280BD1DFF8AC02006800F0AAF924
:104D4000801B41F289318842F5D30320B7E0DFF8B8
:104D50009402006810F00C0F00F0948000F09AF9B3
:104D6000801B41F289318842F1D30320A7E02078EB
:104D7000800709D5DFF86C02006830F0F000A16808
:104D80000843DFF8601208602078C0076ED56068BD
:104D9000012806D1DFF854020068800315D40120F1
:104DA0008DE06068022802D06068032806D1DFF831
:104DB0003C020068800108D4012080E0DFF82C026A
:104DC0000068800701D4012079E0DFF8180200684C
:104DD0008008800061680843DFF80812086000F06E
:104DE00059F90600606801280FD1DFF8F801006862
:104DF00010F00C00042839D000F04CF9801B41F26F
:104E000089318842F1D3032059E0606802280FD12C
:104E1000DFF8D001006810F00C00082826D000F060
:104E200039F9801B41F289318842F1D3032046E0F1
:104E3000606803280BD1DFF8AC01006800F02AF9A4
:104E4000801B41F289318842F5D3032037E0DFF837
:104E50009401006810F00C0F08D000F01BF9801BC3
:104E600041F289318842F2D3032028E0DFF8A4011F
:104E70000570DFF8A001006810F00F00A84201D013
:104E800001201CE02078400709D5DFF858010068B0
:104E900030F4E050E1680843DFF8481108602078FA
:104EA000000708D54F48006830F46040216950EA97
:104EB000C1004C4908600F2000F0D4F8002070BDFC
:104EC000F0B40021002200230020464C246814F096
:104ED0000C04002C04D0042C05D0082C06D040E093
:104EE0004D4C20003FE04D4C20003CE03E4C2468FF
:104EF00014F03F0421003C4C2468640210D53A4C65
:104F00002468464DB5FBF1F547F6C0763440404E77
:104F1000B6FA86F62700F74007FB05F422000FE0FB
:104F2000314C24683C4DB5FBF1F547F6C076344072
:104F3000374EB6FA86F62700F74007FB05F4220045
:104F4000294C246814F440344FF44045B5FA85F5F3
:104F50002600EE40741C64002300B2FBF3F4200032
:104F600001E02D4C2000F0BC704710B5FFF7A8FF02
:104F70001C4909685FF07062B2FA82F2284B11F0A6
:104F8000F0010C00D440E15C0200CA4025480260F8
:104F90002448006810BD10B5FFF7E7FF0100114875
:104FA00000685FF46012B2FA82F21D4B10F4E05018
:104FB0000400D440E25C0800D04010BD10B5FFF7FB
:104FC000D4FF0100074800685FF4E022B2FA82F2E1
:104FD000134B10F460400400D440E25C0800D04061
:104FE00010BD00000838024004380240003802407A
:104FF0000238024000004742800E474274380240A7
:105000004038024000700040703802406000474263
:105010000000FE03003C02400024F40000127A006D
:1050200020CE0008E403002080B52248006850F438
:105030000070204908601F48006850F480601D49D6
:1050400008601C48006850F480701A49086003200A
:10505000FEF730F90F2000F005F800F002F800200C
:1050600002BD704710B50400FFF77FFF4FF47A715F
:10507000B0FBF1F0FEF73EF9002221005FF0FF30B7
:10508000FEF71EF9002010BD0B480068401C0A49BD
:105090000860704708480068704711B581B0002467
:1050A000FFF7F8FF0400FFF7F5FF001B01998842A6
:1050B000F9D313BD003C02404C09002000B593B069
:1050C0002048006850F080501E4908601D48006864
:1050D00010F08050009000981B48006830F4404069
:1050E00050F40040184908601748006810F4404028
:1050F00000900098022006900120099010200A904C
:1051000002200C9000200D9010200E904FF4A870FB
:105110000F90042010900720119006A8FFF7C4FB01
:105120000F20019002200290002003904FF4805045
:10513000049000200590022101A8FFF77DFD13B027
:1051400000BD00BF403802400070004010B586B07E
:105150000400E4B2002C0ED1DFF82801006850F002
:105160000100DFF820110860DFF81801006810F076
:10517000010000900098DFF81001E4B230F814004C
:10518000019001200290012003900220049001A9C7
:10519000DFF8F800E4B250F82400FDF705FF002224
:1051A000DFF8E400E4B230F81410DFF8E000E4B215
:1051B00050F82400FDF7E5FF06B010BD30B587B00C
:1051C00004000D00E4B2002C0ED1DFF8B800006836
:1051D00050F00400DFF8AC100860DFF8A8000068A9
:1051E00010F0040000900098EDB2002D13D1DFF80C
:1051F000A000E4B230F814000190002002900220D8
:1052000003900220049001A9DFF88800E4B250F86E
:105210002400FDF7C9FEEDB2012D22D1DFF87000A8
:10522000E4B230F81400019000200390DFF8680029
:10523000029001A9DFF85C00E4B250F82400FDF709
:10524000B3FE00220F21DFF85400E4B2205640B232
:10525000FEF736F8DFF84400E4B2205640B2FEF71D
:1052600042F807B030BD10B50400DFF82400E4B206
:1052700030F81410DFF81C00E4B250F82400FDF7F9
:1052800074FF10BD30380240F22C0008DC0300200F
:10529000A6480008E0030020000021102E5D000851
:1052A00000B587B03048006850F001002E49086012
:1052B0002D48006810F00100009000982A4800680E
:1052C00050F00100284908602748006810F00100EC
:1052D000009000982548006850F400302349086089
:1052E0002248006810F400300090009804200190DB
:1052F00002200290002003900220049007200590D5
:1053000001A91B48FDF750FE0820019007200590D9
:1053100001A91748FDF748FE1648174908601748C5
:105320000068154948600020134988600020124930
:10533000C86000201049086100200F4988610C20D6
:105340000D4948610C4801F045F8002800D0FEE7FF
:105350000B48094988624FF480700749888500200E
:105360000549C86307B000BD3038024040380240EC
:105370000000024000440040140700204CCE00080A
:10538000F4030020010040F10780F446404200F0A1
:1053900003F851F00041604709D0B0FA80F188402D
:1053A000C91CC1F58461090501EBD0214005704796
:1053B0001248006850F470001049086010480068F6
:1053C00050F001000E49086000200E4908600C48AA
:1053D00000680D4908400A4908600C480C490860FB
:1053E0000748006830F4802005490860002009491A
:1053F00008605FF0006008490860704788ED00E0D1
:105400000038024008380240FFFFF6FE103000244A
:10541000043802400C38024008ED00E000000000B3
:105420002DE9F8452DED088B0FB486B040F2FF71E1
:1054300007989DED080B8DED040BC0F30A508842D0
:1054400008D107980024000305BF0698002802250C
:10545000012512E0012807DA06A802F025FB012841
:1054600002DB0024002508E0079A40F2FE3161F3D8
:105470001E520792441A4FF0FF35002104A802F093
:1054800034FB1A9F06460FB10020388036B9DDE99B
:1054900008230020002102F067FB12D0002D13D555
:1054A00024B2012C15D1DDE906230020DFF88C138E
:1054B00002F05AFB05D0012E0BD1DF4902F054FB5C
:1054C0003ED10AB0CD49E8E1022D04D1DDE9060163
:1054D000E2E1012E6FDB022E08BFDDE9080100F0DA
:1054E000DB81012D2AD107980028099806D40028CD
:1054F00054BF9FEDD50B9FEDD60BCBE100280ED40A
:1055000056B94FF0FF3104A802F0EFFA002848BF67
:105510009FEDD10B00F1BE819FEDCB0BBAE156B9E7
:105520004FF0FF3104A802F0E0FA002848BF9FEDD9
:10553000B40B00F1AF819FEDC60BABE1012E11D191
:105540000998002824B206D4012CACBF9FEDBE0BF5
:105550009FEDBF0B9EE1012CACBF9FEDBD0B9FEDFE
:10556000BA0B97E10998002810D466B94FF0FF31C3
:1055700004A802F0BAFA002842BF079800289FED5D
:10558000A00B00F187819FEDB20B83E102F0FCFAE2
:105590002221016066B94FF0FF3104A802F0A5FA9C
:1055A000002842BF079800289FEDAB0B00F17281E5
:1055B0009FEDA50B6EE10798002848BF002E0CD583
:1055C00002F0E2FA212101600AB04FF0FF30BDEC99
:1055D000088B6FF00041BDE8F485DDE9060100228B
:1055E000002302F0D7FA38BF002509D381F000412B
:1055F000CDE906014FF0FF3104A802F076FA054626
:10560000012C13D1DDE906017F4A804B02F0DAFA62
:105610000CD2DDE9062300204FF0804100F088FB2A
:10562000CDE9060100269FED7A8B1CE0DDE906231B
:105630000020794900F07CFB9FED788B53EC182B10
:1056400002F0D8FA00F052FCA0F120063046FFF735
:1056500099FE0022734B00F06BFB53EC182B02F009
:10566000C9FA41EC180B0FF2582000EB461ADDE99D
:10567000060153EC182B02F031FBDDE9062341EC67
:10568000190B51EC180B02F0B5FA02460B4651EC1F
:10569000190B02F0E3FB41EC1A0B53EC1A2B00F050
:1056A00047FB41EC1B0B8DED069B02F003FD53EC19
:1056B0001B2B00F03DFBDDE9062302F00FFB064645
:1056C000884600204D4953EC182B02F007FB0022BE
:1056D0004FF0804300F02CFB3246434602F08AFA3A
:1056E00053EC1A2B00F024FBDDE9062302F082FACA
:1056F00041EC180B4C4A4D4B02F0B0FBCDE90401D4
:105700002046FFF73FFE41EC190BDAE9000153ECAC
:10571000192B02F06FFADDE9042302F06BFACDE9F0
:105720000401DDE9082300F003FB0022404BCDE932
:10573000020102F047FAC0F0938001223D4B02F0D3
:1057400029FA40F291800022002302F03BFADDE9C1
:10575000022339BF002038490020384902F04AFAB4
:1057600000F0C4FB0446DDE9080153EC182B00F0FF
:10577000DFFACDE90201DAE90223DAE9040102F0F5
:1057800039FADDE9082300F0D3FA9FED2D8B53ECB5
:10579000182B00F0CDFADDE9022302F02BFACDE957
:1057A0000201DAE9002351EC190B02F023FADDE9DA
:1057B000082300F0BDFA064688462046FFF7E2FDC2
:1057C00002460B463046414602F088FA53EC182B4D
:1057D00000F0AEFADDE9022302F00CFACDE9020195
:1057E0000FB13C80002400940022044B02A802F078
:1057F000B9FCA8B3012837D042E000BF0000F03F59
:105800000000000000000080CD3B7F669EA0E63FC8
:10581000000000000000F03F0000504000000000C9
:105820000000E03F0000903FEF39FAFE422EE63FD5
:105830000000E0C00000E0400000E0BF0000E03FEA
:10584000EF39FAFE422EE63F000000000000F07F34
:105850000000000000000000000000000000F0FF59
:105860000020CDE9020007E00020014902E000BF6E
:105870000000F07FCDE9020102F086F922210160EB
:10588000002D1DBFDDE9020181F0004141EC100B4C
:105890009DED020B51EC100B0AB0BDEC088BBDE87E
:1058A000F48580B50020009053EC112B51EC100BC7
:1058B000FFF7B6FD41EC100B01BD00000000000039
:1058C000000000000000F0BF0000000000000080A9
:1058D0000000000000000080000000000000000048
:1058E000000000C05294EEBF00000048204E51BEA0
:1058F000000000F86467BCBC00000000000000006D
:10590000000000208133EDBF00000080B3DB14BE37
:10591000000000506706A3BC00000000000000006B
:10592000000000D0E9DCEBBF00000008C39259BEC4
:1059300000000080B0D3B8BC0000000000000000F0
:1059400000000070F98FEABF000000C0A51028BE5B
:10595000000000E8BFC0B0BC000000000000000074
:1059600000000070284CE9BF00000060134B42BEED
:10597000000000C03D20B8BC000000000000000096
:1059800000000050FA10E8BF000000C05FF62BBE18
:10599000000000905C71A7BC000000000000000047
:1059A00000000020FCDDE6BF000000C0F8F154BE9E
:1059B00000000018E9F6B9BC00000000000000007B
:1059C000000000D0C3B2E5BF00000070E43254BE56
:1059D00000000050DB06B4BC000000000000000026
:1059E00000000010EF8EE4BF00000020F36252BE02
:1059F000000000C02A879ABC0000000000000000E0
:105A0000000000B02272E3BF000000F0E8E056BEE4
:105A100000000028352DBDBC000000000000000083
:105A2000000000000A5CE2BF000000B0FA8E41BE38
:105A300000000040AE6FBDBC000000000000000090
:105A400000000000564CE1BF000000F015CD5FBE25
:105A500000000000141C90BC0000000000000000CA
:105A600000000040BD42E0BF00000030F93457BEE6
:105A7000000000E06C1E93BC00000000000000006D
:105A8000000000E0F57DDEBF000000B08A535EBE7E
:105A900000000080DA77AABC0000000000000000CF
:105AA000000000C09D81DCBF00000000FFA226BEF8
:105AB0000000006057E2B0BC0000000000000000E1
:105AC00000000060F98FDABF000000580A8151BE63
:105AD000000000F05F60B8BC0000000000000000A3
